{
  "contractName": "DropboxV2",
  "abi": [
    {
      "inputs": [],
      "stateMutability": "nonpayable",
      "type": "constructor"
    },
    {
      "anonymous": false,
      "inputs": [
        {
          "indexed": false,
          "internalType": "uint256",
          "name": "fileId",
          "type": "uint256"
        },
        {
          "indexed": false,
          "internalType": "string",
          "name": "fileHash",
          "type": "string"
        },
        {
          "indexed": false,
          "internalType": "address payable",
          "name": "uploader",
          "type": "address"
        },
        {
          "indexed": false,
          "internalType": "uint256",
          "name": "deleteTime",
          "type": "uint256"
        }
      ],
      "name": "FileDeleted",
      "type": "event"
    },
    {
      "anonymous": false,
      "inputs": [
        {
          "indexed": false,
          "internalType": "uint256",
          "name": "fileId",
          "type": "uint256"
        },
        {
          "indexed": false,
          "internalType": "string",
          "name": "fileHash",
          "type": "string"
        },
        {
          "indexed": false,
          "internalType": "uint256",
          "name": "fileSize",
          "type": "uint256"
        },
        {
          "indexed": false,
          "internalType": "string",
          "name": "fileType",
          "type": "string"
        },
        {
          "indexed": false,
          "internalType": "string",
          "name": "fileName",
          "type": "string"
        },
        {
          "indexed": false,
          "internalType": "string",
          "name": "fileDescription",
          "type": "string"
        },
        {
          "indexed": false,
          "internalType": "uint256",
          "name": "uploadTime",
          "type": "uint256"
        },
        {
          "indexed": false,
          "internalType": "address payable",
          "name": "uploader",
          "type": "address"
        }
      ],
      "name": "FileUploaded",
      "type": "event"
    },
    {
      "inputs": [],
      "name": "fileCount",
      "outputs": [
        {
          "internalType": "uint256",
          "name": "",
          "type": "uint256"
        }
      ],
      "stateMutability": "view",
      "type": "function",
      "constant": true
    },
    {
      "inputs": [
        {
          "internalType": "uint256",
          "name": "",
          "type": "uint256"
        }
      ],
      "name": "files",
      "outputs": [
        {
          "internalType": "uint256",
          "name": "fileId",
          "type": "uint256"
        },
        {
          "internalType": "string",
          "name": "fileHash",
          "type": "string"
        },
        {
          "internalType": "uint256",
          "name": "fileSize",
          "type": "uint256"
        },
        {
          "internalType": "string",
          "name": "fileType",
          "type": "string"
        },
        {
          "internalType": "string",
          "name": "fileName",
          "type": "string"
        },
        {
          "internalType": "string",
          "name": "fileDescription",
          "type": "string"
        },
        {
          "internalType": "uint256",
          "name": "uploadTime",
          "type": "uint256"
        },
        {
          "internalType": "address payable",
          "name": "uploader",
          "type": "address"
        }
      ],
      "stateMutability": "view",
      "type": "function",
      "constant": true
    },
    {
      "inputs": [],
      "name": "name",
      "outputs": [
        {
          "internalType": "string",
          "name": "",
          "type": "string"
        }
      ],
      "stateMutability": "view",
      "type": "function",
      "constant": true
    },
    {
      "inputs": [],
      "name": "getFileCount",
      "outputs": [
        {
          "internalType": "uint256",
          "name": "",
          "type": "uint256"
        }
      ],
      "stateMutability": "view",
      "type": "function",
      "constant": true
    },
    {
      "inputs": [],
      "name": "listFiles",
      "outputs": [
        {
          "components": [
            {
              "internalType": "uint256",
              "name": "fileId",
              "type": "uint256"
            },
            {
              "internalType": "string",
              "name": "fileHash",
              "type": "string"
            },
            {
              "internalType": "uint256",
              "name": "fileSize",
              "type": "uint256"
            },
            {
              "internalType": "string",
              "name": "fileType",
              "type": "string"
            },
            {
              "internalType": "string",
              "name": "fileName",
              "type": "string"
            },
            {
              "internalType": "string",
              "name": "fileDescription",
              "type": "string"
            },
            {
              "internalType": "uint256",
              "name": "uploadTime",
              "type": "uint256"
            },
            {
              "internalType": "address payable",
              "name": "uploader",
              "type": "address"
            }
          ],
          "internalType": "struct DropboxV2.File[]",
          "name": "",
          "type": "tuple[]"
        }
      ],
      "stateMutability": "view",
      "type": "function",
      "constant": true
    },
    {
      "inputs": [
        {
          "internalType": "string",
          "name": "_fileHash",
          "type": "string"
        },
        {
          "internalType": "uint256",
          "name": "_fileSize",
          "type": "uint256"
        },
        {
          "internalType": "string",
          "name": "_fileType",
          "type": "string"
        },
        {
          "internalType": "string",
          "name": "_fileName",
          "type": "string"
        },
        {
          "internalType": "string",
          "name": "_fileDescription",
          "type": "string"
        },
        {
          "internalType": "uint8",
          "name": "v",
          "type": "uint8"
        },
        {
          "internalType": "bytes32",
          "name": "r",
          "type": "bytes32"
        },
        {
          "internalType": "bytes32",
          "name": "s",
          "type": "bytes32"
        }
      ],
      "name": "uploadFile",
      "outputs": [],
      "stateMutability": "nonpayable",
      "type": "function"
    },
    {
      "inputs": [
        {
          "internalType": "uint256",
          "name": "fileId",
          "type": "uint256"
        },
        {
          "internalType": "uint8",
          "name": "v",
          "type": "uint8"
        },
        {
          "internalType": "bytes32",
          "name": "r",
          "type": "bytes32"
        },
        {
          "internalType": "bytes32",
          "name": "s",
          "type": "bytes32"
        }
      ],
      "name": "deleteFile",
      "outputs": [],
      "stateMutability": "nonpayable",
      "type": "function"
    }
  ],
  "bytecode": "0x60806040526040518060400160405280600981526020017f44726f70626f785632000000000000000000000000000000000000000000000081525060009080519060200190620000519291906200006b565b5060006001553480156200006457600080fd5b5062000180565b82805462000079906200011b565b90600052602060002090601f0160209004810192826200009d5760008555620000e9565b82601f10620000b857805160ff1916838001178555620000e9565b82800160010185558215620000e9579182015b82811115620000e8578251825591602001919060010190620000cb565b5b509050620000f89190620000fc565b5090565b5b8082111562000117576000816000905550600101620000fd565b5090565b600060028204905060018216806200013457607f821691505b602082108114156200014b576200014a62000151565b5b50919050565b7f4e487b7100000000000000000000000000000000000000000000000000000000600052602260045260246000fd5b611bd380620001906000396000f3fe608060405234801561001057600080fd5b506004361061007d5760003560e01c8063b033d8fa1161005b578063b033d8fa146100da578063bab50cc9146100f8578063be46386f14610116578063f4c714b4146101325761007d565b806306fdde031461008257806326b3f930146100a057806343953519146100bc575b600080fd5b61008a610169565b604051610097919061172a565b60405180910390f35b6100ba60048036038101906100b59190611280565b6101f7565b005b6100c4610491565b6040516100d191906117ac565b60405180910390f35b6100e2610497565b6040516100ef91906116c3565b60405180910390f35b610100610993565b60405161010d91906117ac565b60405180910390f35b610130600480360381019061012b9190611145565b61099d565b005b61014c60048036038101906101479190611257565b610b9f565b6040516101609897969594939291906117c7565b60405180910390f35b6000805461017690611a3f565b80601f01602080910402602001604051908101604052809291908181526020018280546101a290611a3f565b80156101ef5780601f106101c4576101008083540402835291602001916101ef565b820191906000526020600020905b8154815290600101906020018083116101d257829003601f168201915b505050505081565b600060026000868152602001908152602001600020600001541415610251576040517f08c379a00000000000000000000000000000000000000000000000000000000081526004016102489061178c565b60405180910390fd5b60006102fd60026000878152602001908152602001600020600101805461027790611a3f565b80601f01602080910402602001604051908101604052809291908181526020018280546102a390611a3f565b80156102f05780601f106102c5576101008083540402835291602001916102f0565b820191906000526020600020905b8154815290600101906020018083116102d357829003601f168201915b5050505050858585610e27565b90508073ffffffffffffffffffffffffffffffffffffffff166002600087815260200190815260200160002060070160009054906101000a900473ffffffffffffffffffffffffffffffffffffffff1673ffffffffffffffffffffffffffffffffffffffff16146103a3576040517f08c379a000000000000000000000000000000000000000000000000000000000815260040161039a9061174c565b60405180910390fd5b600260008681526020019081526020016000206000808201600090556001820160006103cf9190610f60565b60028201600090556003820160006103e79190610f60565b6004820160006103f79190610f60565b6005820160006104079190610f60565b60068201600090556007820160006101000a81549073ffffffffffffffffffffffffffffffffffffffff021916905550507f376d812a0ae60a2d07d3aaa131b15cc2c82bdf892e23aa903f8a358396ea18db856002600088815260200190815260200160002060010183426040516104829493929190611861565b60405180910390a15050505050565b60015481565b606060006104a3610993565b90506060600080600190505b8381116105025760006002600083815260200190815260200160002060010180546104d990611a3f565b9050146104ef5781806104eb90611a71565b9250505b80806104fa90611a71565b9150506104af565b50600081141561059157600067ffffffffffffffff81111561054d577f4e487b7100000000000000000000000000000000000000000000000000000000600052604160045260246000fd5b60405190808252806020026020018201604052801561058657816020015b610573610fa0565b81526020019060019003908161056b5790505b509350505050610990565b8067ffffffffffffffff8111156105d1577f4e487b7100000000000000000000000000000000000000000000000000000000600052604160045260246000fd5b60405190808252806020026020018201604052801561060a57816020015b6105f7610fa0565b8152602001906001900390816105ef5790505b509150600080600190505b84811161098757600060026000838152602001908152602001600020600101805461063f90611a3f565b9050146109745760026000828152602001908152602001600020604051806101000160405290816000820154815260200160018201805461067f90611a3f565b80601f01602080910402602001604051908101604052809291908181526020018280546106ab90611a3f565b80156106f85780601f106106cd576101008083540402835291602001916106f8565b820191906000526020600020905b8154815290600101906020018083116106db57829003601f168201915b505050505081526020016002820154815260200160038201805461071b90611a3f565b80601f016020809104026020016040519081016040528092919081815260200182805461074790611a3f565b80156107945780601f1061076957610100808354040283529160200191610794565b820191906000526020600020905b81548152906001019060200180831161077757829003601f168201915b505050505081526020016004820180546107ad90611a3f565b80601f01602080910402602001604051908101604052809291908181526020018280546107d990611a3f565b80156108265780601f106107fb57610100808354040283529160200191610826565b820191906000526020600020905b81548152906001019060200180831161080957829003601f168201915b5050505050815260200160058201805461083f90611a3f565b80601f016020809104026020016040519081016040528092919081815260200182805461086b90611a3f565b80156108b85780601f1061088d576101008083540402835291602001916108b8565b820191906000526020600020905b81548152906001019060200180831161089b57829003601f168201915b50505050508152602001600682015481526020016007820160009054906101000a900473ffffffffffffffffffffffffffffffffffffffff1673ffffffffffffffffffffffffffffffffffffffff1673ffffffffffffffffffffffffffffffffffffffff168152505084838151811061095a577f4e487b7100000000000000000000000000000000000000000000000000000000600052603260045260246000fd5b6020026020010181905250818061097090611a71565b9250505b808061097f90611a71565b915050610615565b50829450505050505b90565b6000600154905090565b60006109ab89858585610e27565b905060008951116109bb57600080fd5b60008751116109c957600080fd5b60008551116109d757600080fd5b60008651116109e557600080fd5b600088116109f257600080fd5b60016000815480929190610a0590611a71565b919050555060405180610100016040528060015481526020018a81526020018981526020018881526020018781526020018681526020014281526020018273ffffffffffffffffffffffffffffffffffffffff16815250600260006001548152602001908152602001600020600082015181600001556020820151816001019080519060200190610a97929190610ffb565b50604082015181600201556060820151816003019080519060200190610abe929190610ffb565b506080820151816004019080519060200190610adb929190610ffb565b5060a0820151816005019080519060200190610af8929190610ffb565b5060c0820151816006015560e08201518160070160006101000a81548173ffffffffffffffffffffffffffffffffffffffff021916908373ffffffffffffffffffffffffffffffffffffffff1602179055509050507f6e95bbaa37a5fdec42a312e049dea2fe6160ebe659214d3409b4f91f164c2f526001548a8a8a8a8a4288604051610b8c9897969594939291906117c7565b60405180910390a1505050505050505050565b6002602052806000526040600020600091509050806000015490806001018054610bc890611a3f565b80601f0160208091040260200160405190810160405280929190818152602001828054610bf490611a3f565b8015610c415780601f10610c1657610100808354040283529160200191610c41565b820191906000526020600020905b815481529060010190602001808311610c2457829003601f168201915b505050505090806002015490806003018054610c5c90611a3f565b80601f0160208091040260200160405190810160405280929190818152602001828054610c8890611a3f565b8015610cd55780601f10610caa57610100808354040283529160200191610cd5565b820191906000526020600020905b815481529060010190602001808311610cb857829003601f168201915b505050505090806004018054610cea90611a3f565b80601f0160208091040260200160405190810160405280929190818152602001828054610d1690611a3f565b8015610d635780601f10610d3857610100808354040283529160200191610d63565b820191906000526020600020905b815481529060010190602001808311610d4657829003601f168201915b505050505090806005018054610d7890611a3f565b80601f0160208091040260200160405190810160405280929190818152602001828054610da490611a3f565b8015610df15780601f10610dc657610100808354040283529160200191610df1565b820191906000526020600020905b815481529060010190602001808311610dd457829003601f168201915b5050505050908060060154908060070160009054906101000a900473ffffffffffffffffffffffffffffffffffffffff16905088565b6000806040518060400160405280601c81526020017f19457468657265756d205369676e6564204d6573736167653a0a333200000000815250905060008187604051602001610e7792919061169f565b604051602081830303815290604052805190602001209050600060018288888860405160008152602001604052604051610eb494939291906116e5565b6020604051602081039080840390855afa158015610ed6573d6000803e3d6000fd5b505050602060405103519050600073ffffffffffffffffffffffffffffffffffffffff168173ffffffffffffffffffffffffffffffffffffffff161415610f52576040517f08c379a0000000000000000000000000000000000000000000000000000000008152600401610f499061176c565b60405180910390fd5b809350505050949350505050565b508054610f6c90611a3f565b6000825580601f10610f7e5750610f9d565b601f016020900490600052602060002090810190610f9c9190611081565b5b50565b60405180610100016040528060008152602001606081526020016000815260200160608152602001606081526020016060815260200160008152602001600073ffffffffffffffffffffffffffffffffffffffff1681525090565b82805461100790611a3f565b90600052602060002090601f0160209004810192826110295760008555611070565b82601f1061104257805160ff1916838001178555611070565b82800160010185558215611070579182015b8281111561106f578251825591602001919060010190611054565b5b50905061107d9190611081565b5090565b5b8082111561109a576000816000905550600101611082565b5090565b60006110b16110ac846118de565b6118ad565b9050828152602081018484840111156110c957600080fd5b6110d48482856119fd565b509392505050565b6000813590506110eb81611b58565b92915050565b600082601f83011261110257600080fd5b813561111284826020860161109e565b91505092915050565b60008135905061112a81611b6f565b92915050565b60008135905061113f81611b86565b92915050565b600080600080600080600080610100898b03121561116257600080fd5b600089013567ffffffffffffffff81111561117c57600080fd5b6111888b828c016110f1565b98505060206111998b828c0161111b565b975050604089013567ffffffffffffffff8111156111b657600080fd5b6111c28b828c016110f1565b965050606089013567ffffffffffffffff8111156111df57600080fd5b6111eb8b828c016110f1565b955050608089013567ffffffffffffffff81111561120857600080fd5b6112148b828c016110f1565b94505060a06112258b828c01611130565b93505060c06112368b828c016110dc565b92505060e06112478b828c016110dc565b9150509295985092959890939650565b60006020828403121561126957600080fd5b60006112778482850161111b565b91505092915050565b6000806000806080858703121561129657600080fd5b60006112a48782880161111b565b94505060206112b587828801611130565b93505060406112c6878288016110dc565b92505060606112d7878288016110dc565b91505092959194509250565b60006112ef83836115ad565b905092915050565b611300816119aa565b82525050565b61130f816119aa565b82525050565b600061132082611933565b61132a8185611961565b93508360208202850161133c8561190e565b8060005b85811015611378578484038952815161135985826112e3565b945061136483611954565b925060208a01995050600181019050611340565b50829750879550505050505092915050565b611393816119bc565b82525050565b60006113a48261193e565b6113ae8185611972565b93506113be818560208601611a0c565b80840191505092915050565b60006113d582611949565b6113df818561197d565b93506113ef818560208601611a0c565b6113f881611b47565b840191505092915050565b600061140e82611949565b611418818561198e565b9350611428818560208601611a0c565b61143181611b47565b840191505092915050565b600061144782611949565b611451818561199f565b9350611461818560208601611a0c565b80840191505092915050565b6000815461147a81611a3f565b611484818661198e565b9450600182166000811461149f57600181146114b1576114e4565b60ff19831686526020860193506114e4565b6114ba8561191e565b60005b838110156114dc578154818901526001820191506020810190506114bd565b808801955050505b50505092915050565b60006114fa600c8361198e565b91507f556e617574686f72697a656400000000000000000000000000000000000000006000830152602082019050919050565b600061153a60118361198e565b91507f496e76616c6964207369676e61747572650000000000000000000000000000006000830152602082019050919050565b600061157a60138361198e565b91507f46696c6520646f6573206e6f74206578697374000000000000000000000000006000830152602082019050919050565b6000610100830160008301516115c66000860182611672565b50602083015184820360208601526115de82826113ca565b91505060408301516115f36040860182611672565b506060830151848203606086015261160b82826113ca565b9150506080830151848203608086015261162582826113ca565b91505060a083015184820360a086015261163f82826113ca565b91505060c083015161165460c0860182611672565b5060e083015161166760e08601826112f7565b508091505092915050565b61167b816119e6565b82525050565b61168a816119e6565b82525050565b611699816119f0565b82525050565b60006116ab8285611399565b91506116b7828461143c565b91508190509392505050565b600060208201905081810360008301526116dd8184611315565b905092915050565b60006080820190506116fa600083018761138a565b6117076020830186611690565b611714604083018561138a565b611721606083018461138a565b95945050505050565b600060208201905081810360008301526117448184611403565b905092915050565b60006020820190508181036000830152611765816114ed565b9050919050565b600060208201905081810360008301526117858161152d565b9050919050565b600060208201905081810360008301526117a58161156d565b9050919050565b60006020820190506117c16000830184611681565b92915050565b6000610100820190506117dd600083018b611681565b81810360208301526117ef818a611403565b90506117fe6040830189611681565b81810360608301526118108188611403565b905081810360808301526118248187611403565b905081810360a08301526118388186611403565b905061184760c0830185611681565b61185460e0830184611306565b9998505050505050505050565b60006080820190506118766000830187611681565b8181036020830152611888818661146d565b90506118976040830185611306565b6118a46060830184611681565b95945050505050565b6000604051905081810181811067ffffffffffffffff821117156118d4576118d3611b18565b5b8060405250919050565b600067ffffffffffffffff8211156118f9576118f8611b18565b5b601f19601f8301169050602081019050919050565b6000819050602082019050919050565b60008190508160005260206000209050919050565b600081519050919050565b600081519050919050565b600081519050919050565b6000602082019050919050565b600082825260208201905092915050565b600081905092915050565b600082825260208201905092915050565b600082825260208201905092915050565b600081905092915050565b60006119b5826119c6565b9050919050565b6000819050919050565b600073ffffffffffffffffffffffffffffffffffffffff82169050919050565b6000819050919050565b600060ff82169050919050565b82818337600083830152505050565b60005b83811015611a2a578082015181840152602081019050611a0f565b83811115611a39576000848401525b50505050565b60006002820490506001821680611a5757607f821691505b60208210811415611a6b57611a6a611ae9565b5b50919050565b6000611a7c826119e6565b91507fffffffffffffffffffffffffffffffffffffffffffffffffffffffffffffffff821415611aaf57611aae611aba565b5b600182019050919050565b7f4e487b7100000000000000000000000000000000000000000000000000000000600052601160045260246000fd5b7f4e487b7100000000000000000000000000000000000000000000000000000000600052602260045260246000fd5b7f4e487b7100000000000000000000000000000000000000000000000000000000600052604160045260246000fd5b6000601f19601f8301169050919050565b611b61816119bc565b8114611b6c57600080fd5b50565b611b78816119e6565b8114611b8357600080fd5b50565b611b8f816119f0565b8114611b9a57600080fd5b5056fea2646970667358221220b13af6c0f68979a9b386dc7bf0dafea6d652e93dfe77164cbaffd5981e270e6864736f6c63430008000033",
  "immutableReferences": {},
  "source": "// SPDX-License-Identifier: MIT\npragma solidity ^0.8.0;\n\ncontract DropboxV2 {\n    string public name = 'DropboxV2';\n    uint public fileCount = 0;\n    mapping (uint => File) public files;\n\n    constructor() {}\n\n    struct File {\n        uint fileId;\n        string fileHash;\n        uint fileSize;\n        string fileType;\n        string fileName;\n        string fileDescription;\n        uint uploadTime;\n        address payable uploader;\n    }\n\n    event FileUploaded(\n        uint fileId,\n        string fileHash,\n        uint fileSize,\n        string fileType,\n        string fileName,\n        string fileDescription,\n        uint uploadTime,\n        address payable uploader\n    );\n\n    event FileDeleted(\n        uint fileId,\n        string fileHash,\n        address payable uploader,\n         uint deleteTime\n    );\n\n    function getFileCount() public view returns (uint) {\n        return fileCount;\n    }\n\n    function listFiles() public view returns (File[] memory) {\n        uint count = getFileCount();\n        File[] memory allFiles;// = new File[](count);\n\n        uint countNotDeleted = 0;\n        for (uint i = 1; i <= count; i++) {\n            if (bytes(files[i].fileHash).length != 0) {\n                countNotDeleted++;\n            }\n        }\n\n        // retorn a empty array\n        if (countNotDeleted == 0) {\n            return new File[](0);\n        }\n\n        allFiles = new File[](countNotDeleted);\n        uint index = 0;\n        for (uint i = 1; i <= count; i++) {\n            if (bytes(files[i].fileHash).length != 0) {\n                allFiles[index] = files[i];\n                index++;\n            }\n            \n        }\n\n        return allFiles;\n    }\n\n    // function to upload file info, but in this case the uplaoder is obtained from the signature\n     function uploadFile(\n        string memory _fileHash, \n        uint _fileSize, \n        string memory _fileType, \n        string memory _fileName, \n        string memory _fileDescription,\n        uint8 v, \n        bytes32 r, \n        bytes32 s) public {\n\n        // Verify the signature\n        address uploader = verifySignature(_fileHash, v, r, s);\n\n        // validate incomming data\n        require(bytes(_fileHash).length > 0);\n        require(bytes(_fileType).length > 0);\n        require(bytes(_fileDescription).length > 0);\n        require(bytes(_fileName).length > 0);\n        //require(msg.sender!=address(0));\n        require(_fileSize>0);\n\n        fileCount++;\n        files[fileCount] = File(\n            fileCount, \n             _fileHash,\n             _fileSize,\n             _fileType,\n             _fileName,\n             _fileDescription,\n             block.timestamp,\n             payable(uploader)\n        );\n\n        emit FileUploaded(fileCount, _fileHash, _fileSize, _fileType, _fileName, _fileDescription, block.timestamp, payable(uploader));\n    }\n\n    function deleteFile(\n        uint fileId,\n        uint8 v, \n        bytes32 r, \n        bytes32 s) public {\n\n        require(files[fileId].fileId != 0, \"File does not exist\");\n\n         // Verify the signature\n        address uploader = verifySignature(files[fileId].fileHash, v, r, s); \n    \n        // Verifica que el archivo fue cargado por el remitente\n        require(files[fileId].uploader == payable(uploader), \"Unauthorized\");\n        \n        // Elimina el archivo del mapping\n        delete files[fileId];\n\n        emit FileDeleted(fileId, files[fileId].fileHash, payable(uploader), block.timestamp);\n    }\n\n    function verifySignature(string memory _fileHash, uint8 v, bytes32 r, bytes32 s) internal pure returns (address) {\n        // Prefix the hash according to the Ethereum signed message prefix\n        bytes memory prefix = \"\\x19Ethereum Signed Message:\\n32\";\n        bytes32 ethSignedMessageHash = keccak256(abi.encodePacked(prefix, _fileHash));\n        \n        // Recover the signer address\n        address signer = ecrecover(ethSignedMessageHash, v, r, s);\n        require(signer != address(0), \"Invalid signature\");\n        return signer;\n    }\n}",
  "sourcePath": "/Users/israeljosueparrarosales/blockchain/dropbox-clone-v2/contracts/DropboxV2.sol",
  "compiler": {
    "name": "solc",
    "version": "0.8.0+commit.c7dfd78e.Emscripten.clang"
  },
  "schemaVersion": "3.4.16",
  "updatedAt": "2024-06-06T15:52:06.286Z",
  "networkType": "ethereum",
  "devdoc": {
    "kind": "dev",
    "methods": {},
    "version": 1
  },
  "userdoc": {
    "kind": "user",
    "methods": {},
    "version": 1
  }
}