{
  "contractName": "DropboxV2",
  "abi": [
    {
      "inputs": [],
      "stateMutability": "nonpayable",
      "type": "constructor"
    },
    {
      "anonymous": false,
      "inputs": [
        {
          "indexed": false,
          "internalType": "uint256",
          "name": "fileId",
          "type": "uint256"
        },
        {
          "indexed": false,
          "internalType": "string",
          "name": "fileHash",
          "type": "string"
        },
        {
          "indexed": false,
          "internalType": "uint256",
          "name": "fileSize",
          "type": "uint256"
        },
        {
          "indexed": false,
          "internalType": "string",
          "name": "fileType",
          "type": "string"
        },
        {
          "indexed": false,
          "internalType": "string",
          "name": "fileName",
          "type": "string"
        },
        {
          "indexed": false,
          "internalType": "string",
          "name": "fileDescription",
          "type": "string"
        },
        {
          "indexed": false,
          "internalType": "uint256",
          "name": "uploadTime",
          "type": "uint256"
        },
        {
          "indexed": false,
          "internalType": "address payable",
          "name": "uploader",
          "type": "address"
        }
      ],
      "name": "FileUploaded",
      "type": "event"
    },
    {
      "inputs": [],
      "name": "fileCount",
      "outputs": [
        {
          "internalType": "uint256",
          "name": "",
          "type": "uint256"
        }
      ],
      "stateMutability": "view",
      "type": "function",
      "constant": true
    },
    {
      "inputs": [
        {
          "internalType": "uint256",
          "name": "",
          "type": "uint256"
        }
      ],
      "name": "files",
      "outputs": [
        {
          "internalType": "uint256",
          "name": "fileId",
          "type": "uint256"
        },
        {
          "internalType": "string",
          "name": "fileHash",
          "type": "string"
        },
        {
          "internalType": "uint256",
          "name": "fileSize",
          "type": "uint256"
        },
        {
          "internalType": "string",
          "name": "fileType",
          "type": "string"
        },
        {
          "internalType": "string",
          "name": "fileName",
          "type": "string"
        },
        {
          "internalType": "string",
          "name": "fileDescription",
          "type": "string"
        },
        {
          "internalType": "uint256",
          "name": "uploadTime",
          "type": "uint256"
        },
        {
          "internalType": "address payable",
          "name": "uploader",
          "type": "address"
        }
      ],
      "stateMutability": "view",
      "type": "function",
      "constant": true
    },
    {
      "inputs": [],
      "name": "name",
      "outputs": [
        {
          "internalType": "string",
          "name": "",
          "type": "string"
        }
      ],
      "stateMutability": "view",
      "type": "function",
      "constant": true
    },
    {
      "inputs": [],
      "name": "getFileCount",
      "outputs": [
        {
          "internalType": "uint256",
          "name": "",
          "type": "uint256"
        }
      ],
      "stateMutability": "view",
      "type": "function",
      "constant": true
    },
    {
      "inputs": [],
      "name": "listFiles",
      "outputs": [
        {
          "components": [
            {
              "internalType": "uint256",
              "name": "fileId",
              "type": "uint256"
            },
            {
              "internalType": "string",
              "name": "fileHash",
              "type": "string"
            },
            {
              "internalType": "uint256",
              "name": "fileSize",
              "type": "uint256"
            },
            {
              "internalType": "string",
              "name": "fileType",
              "type": "string"
            },
            {
              "internalType": "string",
              "name": "fileName",
              "type": "string"
            },
            {
              "internalType": "string",
              "name": "fileDescription",
              "type": "string"
            },
            {
              "internalType": "uint256",
              "name": "uploadTime",
              "type": "uint256"
            },
            {
              "internalType": "address payable",
              "name": "uploader",
              "type": "address"
            }
          ],
          "internalType": "struct DropboxV2.File[]",
          "name": "",
          "type": "tuple[]"
        }
      ],
      "stateMutability": "view",
      "type": "function",
      "constant": true
    },
    {
      "inputs": [
        {
          "internalType": "string",
          "name": "_fileHash",
          "type": "string"
        },
        {
          "internalType": "uint256",
          "name": "_fileSize",
          "type": "uint256"
        },
        {
          "internalType": "string",
          "name": "_fileType",
          "type": "string"
        },
        {
          "internalType": "string",
          "name": "_fileName",
          "type": "string"
        },
        {
          "internalType": "string",
          "name": "_fileDescription",
          "type": "string"
        },
        {
          "internalType": "uint8",
          "name": "v",
          "type": "uint8"
        },
        {
          "internalType": "bytes32",
          "name": "r",
          "type": "bytes32"
        },
        {
          "internalType": "bytes32",
          "name": "s",
          "type": "bytes32"
        }
      ],
      "name": "uploadFile",
      "outputs": [],
      "stateMutability": "nonpayable",
      "type": "function"
    }
  ],
  "bytecode": "0x60806040526040518060400160405280600981526020017f44726f70626f785632000000000000000000000000000000000000000000000081525060009080519060200190620000519291906200006b565b5060006001553480156200006457600080fd5b5062000180565b82805462000079906200011b565b90600052602060002090601f0160209004810192826200009d5760008555620000e9565b82601f10620000b857805160ff1916838001178555620000e9565b82800160010185558215620000e9579182015b82811115620000e8578251825591602001919060010190620000cb565b5b509050620000f89190620000fc565b5090565b5b8082111562000117576000816000905550600101620000fd565b5090565b600060028204905060018216806200013457607f821691505b602082108114156200014b576200014a62000151565b5b50919050565b7f4e487b7100000000000000000000000000000000000000000000000000000000600052602260045260246000fd5b6115d780620001906000396000f3fe608060405234801561001057600080fd5b50600436106100625760003560e01c806306fdde03146100675780634395351914610085578063b033d8fa146100a3578063bab50cc9146100c1578063be46386f146100df578063f4c714b4146100fb575b600080fd5b61006f610132565b60405161007c919061119b565b60405180910390f35b61008d6101c0565b60405161009a91906111dd565b60405180910390f35b6100ab6101c6565b6040516100b89190611134565b60405180910390f35b6100c96105a7565b6040516100d691906111dd565b60405180910390f35b6100f960048036038101906100f49190610d19565b6105b1565b005b61011560048036038101906101109190610e2b565b6107b3565b6040516101299897969594939291906111f8565b60405180910390f35b6000805461013f90611443565b80601f016020809104026020016040519081016040528092919081815260200182805461016b90611443565b80156101b85780601f1061018d576101008083540402835291602001916101b8565b820191906000526020600020905b81548152906001019060200180831161019b57829003601f168201915b505050505081565b60015481565b606060006101d26105a7565b905060008167ffffffffffffffff811115610216577f4e487b7100000000000000000000000000000000000000000000000000000000600052604160045260246000fd5b60405190808252806020026020018201604052801561024f57816020015b61023c610b74565b8152602001906001900390816102345790505b5090506000600190505b82811161059e5760026000828152602001908152602001600020604051806101000160405290816000820154815260200160018201805461029990611443565b80601f01602080910402602001604051908101604052809291908181526020018280546102c590611443565b80156103125780601f106102e757610100808354040283529160200191610312565b820191906000526020600020905b8154815290600101906020018083116102f557829003601f168201915b505050505081526020016002820154815260200160038201805461033590611443565b80601f016020809104026020016040519081016040528092919081815260200182805461036190611443565b80156103ae5780601f10610383576101008083540402835291602001916103ae565b820191906000526020600020905b81548152906001019060200180831161039157829003601f168201915b505050505081526020016004820180546103c790611443565b80601f01602080910402602001604051908101604052809291908181526020018280546103f390611443565b80156104405780601f1061041557610100808354040283529160200191610440565b820191906000526020600020905b81548152906001019060200180831161042357829003601f168201915b5050505050815260200160058201805461045990611443565b80601f016020809104026020016040519081016040528092919081815260200182805461048590611443565b80156104d25780601f106104a7576101008083540402835291602001916104d2565b820191906000526020600020905b8154815290600101906020018083116104b557829003601f168201915b50505050508152602001600682015481526020016007820160009054906101000a900473ffffffffffffffffffffffffffffffffffffffff1673ffffffffffffffffffffffffffffffffffffffff1673ffffffffffffffffffffffffffffffffffffffff168152505082600183610549919061137a565b81518110610580577f4e487b7100000000000000000000000000000000000000000000000000000000600052603260045260246000fd5b6020026020010181905250808061059690611475565b915050610259565b50809250505090565b6000600154905090565b60006105bf89858585610a3b565b905060008951116105cf57600080fd5b60008751116105dd57600080fd5b60008551116105eb57600080fd5b60008651116105f957600080fd5b6000881161060657600080fd5b6001600081548092919061061990611475565b919050555060405180610100016040528060015481526020018a81526020018981526020018881526020018781526020018681526020014281526020018273ffffffffffffffffffffffffffffffffffffffff168152506002600060015481526020019081526020016000206000820151816000015560208201518160010190805190602001906106ab929190610bcf565b506040820151816002015560608201518160030190805190602001906106d2929190610bcf565b5060808201518160040190805190602001906106ef929190610bcf565b5060a082015181600501908051906020019061070c929190610bcf565b5060c0820151816006015560e08201518160070160006101000a81548173ffffffffffffffffffffffffffffffffffffffff021916908373ffffffffffffffffffffffffffffffffffffffff1602179055509050507f6e95bbaa37a5fdec42a312e049dea2fe6160ebe659214d3409b4f91f164c2f526001548a8a8a8a8a42886040516107a09897969594939291906111f8565b60405180910390a1505050505050505050565b60026020528060005260406000206000915090508060000154908060010180546107dc90611443565b80601f016020809104026020016040519081016040528092919081815260200182805461080890611443565b80156108555780601f1061082a57610100808354040283529160200191610855565b820191906000526020600020905b81548152906001019060200180831161083857829003601f168201915b50505050509080600201549080600301805461087090611443565b80601f016020809104026020016040519081016040528092919081815260200182805461089c90611443565b80156108e95780601f106108be576101008083540402835291602001916108e9565b820191906000526020600020905b8154815290600101906020018083116108cc57829003601f168201915b5050505050908060040180546108fe90611443565b80601f016020809104026020016040519081016040528092919081815260200182805461092a90611443565b80156109775780601f1061094c57610100808354040283529160200191610977565b820191906000526020600020905b81548152906001019060200180831161095a57829003601f168201915b50505050509080600501805461098c90611443565b80601f01602080910402602001604051908101604052809291908181526020018280546109b890611443565b8015610a055780601f106109da57610100808354040283529160200191610a05565b820191906000526020600020905b8154815290600101906020018083116109e857829003601f168201915b5050505050908060060154908060070160009054906101000a900473ffffffffffffffffffffffffffffffffffffffff16905088565b6000806040518060400160405280601c81526020017f19457468657265756d205369676e6564204d6573736167653a0a333200000000815250905060008187604051602001610a8b929190611110565b604051602081830303815290604052805190602001209050600060018288888860405160008152602001604052604051610ac89493929190611156565b6020604051602081039080840390855afa158015610aea573d6000803e3d6000fd5b505050602060405103519050600073ffffffffffffffffffffffffffffffffffffffff168173ffffffffffffffffffffffffffffffffffffffff161415610b66576040517f08c379a0000000000000000000000000000000000000000000000000000000008152600401610b5d906111bd565b60405180910390fd5b809350505050949350505050565b60405180610100016040528060008152602001606081526020016000815260200160608152602001606081526020016060815260200160008152602001600073ffffffffffffffffffffffffffffffffffffffff1681525090565b828054610bdb90611443565b90600052602060002090601f016020900481019282610bfd5760008555610c44565b82601f10610c1657805160ff1916838001178555610c44565b82800160010185558215610c44579182015b82811115610c43578251825591602001919060010190610c28565b5b509050610c519190610c55565b5090565b5b80821115610c6e576000816000905550600101610c56565b5090565b6000610c85610c80846112c3565b611292565b905082815260208101848484011115610c9d57600080fd5b610ca8848285611401565b509392505050565b600081359050610cbf8161155c565b92915050565b600082601f830112610cd657600080fd5b8135610ce6848260208601610c72565b91505092915050565b600081359050610cfe81611573565b92915050565b600081359050610d138161158a565b92915050565b600080600080600080600080610100898b031215610d3657600080fd5b600089013567ffffffffffffffff811115610d5057600080fd5b610d5c8b828c01610cc5565b9850506020610d6d8b828c01610cef565b975050604089013567ffffffffffffffff811115610d8a57600080fd5b610d968b828c01610cc5565b965050606089013567ffffffffffffffff811115610db357600080fd5b610dbf8b828c01610cc5565b955050608089013567ffffffffffffffff811115610ddc57600080fd5b610de88b828c01610cc5565b94505060a0610df98b828c01610d04565b93505060c0610e0a8b828c01610cb0565b92505060e0610e1b8b828c01610cb0565b9150509295985092959890939650565b600060208284031215610e3d57600080fd5b6000610e4b84828501610cef565b91505092915050565b6000610e60838361101e565b905092915050565b610e71816113ae565b82525050565b610e80816113ae565b82525050565b6000610e9182611303565b610e9b8185611331565b935083602082028501610ead856112f3565b8060005b85811015610ee95784840389528151610eca8582610e54565b9450610ed583611324565b925060208a01995050600181019050610eb1565b50829750879550505050505092915050565b610f04816113c0565b82525050565b6000610f158261130e565b610f1f8185611342565b9350610f2f818560208601611410565b80840191505092915050565b6000610f4682611319565b610f50818561134d565b9350610f60818560208601611410565b610f698161154b565b840191505092915050565b6000610f7f82611319565b610f89818561135e565b9350610f99818560208601611410565b610fa28161154b565b840191505092915050565b6000610fb882611319565b610fc2818561136f565b9350610fd2818560208601611410565b80840191505092915050565b6000610feb60118361135e565b91507f496e76616c6964207369676e61747572650000000000000000000000000000006000830152602082019050919050565b60006101008301600083015161103760008601826110e3565b506020830151848203602086015261104f8282610f3b565b915050604083015161106460408601826110e3565b506060830151848203606086015261107c8282610f3b565b915050608083015184820360808601526110968282610f3b565b91505060a083015184820360a08601526110b08282610f3b565b91505060c08301516110c560c08601826110e3565b5060e08301516110d860e0860182610e68565b508091505092915050565b6110ec816113ea565b82525050565b6110fb816113ea565b82525050565b61110a816113f4565b82525050565b600061111c8285610f0a565b91506111288284610fad565b91508190509392505050565b6000602082019050818103600083015261114e8184610e86565b905092915050565b600060808201905061116b6000830187610efb565b6111786020830186611101565b6111856040830185610efb565b6111926060830184610efb565b95945050505050565b600060208201905081810360008301526111b58184610f74565b905092915050565b600060208201905081810360008301526111d681610fde565b9050919050565b60006020820190506111f260008301846110f2565b92915050565b60006101008201905061120e600083018b6110f2565b8181036020830152611220818a610f74565b905061122f60408301896110f2565b81810360608301526112418188610f74565b905081810360808301526112558187610f74565b905081810360a08301526112698186610f74565b905061127860c08301856110f2565b61128560e0830184610e77565b9998505050505050505050565b6000604051905081810181811067ffffffffffffffff821117156112b9576112b861151c565b5b8060405250919050565b600067ffffffffffffffff8211156112de576112dd61151c565b5b601f19601f8301169050602081019050919050565b6000819050602082019050919050565b600081519050919050565b600081519050919050565b600081519050919050565b6000602082019050919050565b600082825260208201905092915050565b600081905092915050565b600082825260208201905092915050565b600082825260208201905092915050565b600081905092915050565b6000611385826113ea565b9150611390836113ea565b9250828210156113a3576113a26114be565b5b828203905092915050565b60006113b9826113ca565b9050919050565b6000819050919050565b600073ffffffffffffffffffffffffffffffffffffffff82169050919050565b6000819050919050565b600060ff82169050919050565b82818337600083830152505050565b60005b8381101561142e578082015181840152602081019050611413565b8381111561143d576000848401525b50505050565b6000600282049050600182168061145b57607f821691505b6020821081141561146f5761146e6114ed565b5b50919050565b6000611480826113ea565b91507fffffffffffffffffffffffffffffffffffffffffffffffffffffffffffffffff8214156114b3576114b26114be565b5b600182019050919050565b7f4e487b7100000000000000000000000000000000000000000000000000000000600052601160045260246000fd5b7f4e487b7100000000000000000000000000000000000000000000000000000000600052602260045260246000fd5b7f4e487b7100000000000000000000000000000000000000000000000000000000600052604160045260246000fd5b6000601f19601f8301169050919050565b611565816113c0565b811461157057600080fd5b50565b61157c816113ea565b811461158757600080fd5b50565b611593816113f4565b811461159e57600080fd5b5056fea2646970667358221220ab0ca412de9aa89436cbc181c4104925648a87ed4d03436b9c87c7b0fbb9a26064736f6c63430008000033",
  "immutableReferences": {},
  "source": "// SPDX-License-Identifier: MIT\npragma solidity ^0.8.0;\n\ncontract DropboxV2 {\n    string public name = 'DropboxV2';\n    uint public fileCount = 0;\n    mapping (uint => File) public files;\n\n    constructor() {}\n\n    struct File {\n        uint fileId;\n        string fileHash;\n        uint fileSize;\n        string fileType;\n        string fileName;\n        string fileDescription;\n        uint uploadTime;\n        address payable uploader;\n    }\n\n    event FileUploaded(\n        uint fileId,\n        string fileHash,\n        uint fileSize,\n        string fileType,\n        string fileName,\n        string fileDescription,\n        uint uploadTime,\n        address payable uploader\n    );\n\n    function getFileCount() public view returns (uint) {\n        return fileCount;\n    }\n\n    function listFiles() public view returns (File[] memory) {\n        uint count = getFileCount();\n        File[] memory allFiles = new File[](count);\n\n        for (uint i = 1; i <= count; i++) {\n            allFiles[i - 1] = files[i];\n        }\n\n        return allFiles;\n    }\n\n    // function to upload file info, but in this case the uplaoder is obtained from the signature\n     function uploadFile(\n        string memory _fileHash, \n        uint _fileSize, \n        string memory _fileType, \n        string memory _fileName, \n        string memory _fileDescription,\n        uint8 v, \n        bytes32 r, \n        bytes32 s) public {\n\n        // Create the hash of the message with keccak256\n        //bytes32 messageHash = keccak256(abi.encodePacked(_fileHash));\n\n        // Verify the signature\n        address uploader = verifySignature(_fileHash, v, r, s);\n\n        // validate incomming data\n        require(bytes(_fileHash).length > 0);\n        require(bytes(_fileType).length > 0);\n        require(bytes(_fileDescription).length > 0);\n        require(bytes(_fileName).length > 0);\n        //require(msg.sender!=address(0));\n        require(_fileSize>0);\n\n        fileCount++;\n        files[fileCount] = File(fileCount, \n             _fileHash,\n             _fileSize,\n             _fileType,\n             _fileName,\n             _fileDescription,\n             block.timestamp,\n             payable(uploader)\n             //payable(msg.sender)\n        );\n\n        emit FileUploaded(fileCount, _fileHash, _fileSize, _fileType, _fileName, _fileDescription, block.timestamp, payable(uploader));\n    }\n\n    function verifySignature(string memory _fileHash, uint8 v, bytes32 r, bytes32 s) internal pure returns (address) {\n        // Prefix the hash according to the Ethereum signed message prefix\n        bytes memory prefix = \"\\x19Ethereum Signed Message:\\n32\";\n        bytes32 ethSignedMessageHash = keccak256(abi.encodePacked(prefix, _fileHash));\n        \n        // Recover the signer address\n        address signer = ecrecover(ethSignedMessageHash, v, r, s);\n        require(signer != address(0), \"Invalid signature\");\n        return signer;\n    }\n\n\n}",
  "sourcePath": "/Users/israeljosueparrarosales/blockchain/dropbox-clone-v2/contracts/DropboxV2.sol",
  "compiler": {
    "name": "solc",
    "version": "0.8.0+commit.c7dfd78e.Emscripten.clang"
  },
  "schemaVersion": "3.4.16",
  "updatedAt": "2024-06-04T16:41:53.614Z",
  "networkType": "ethereum",
  "devdoc": {
    "kind": "dev",
    "methods": {},
    "version": 1
  },
  "userdoc": {
    "kind": "user",
    "methods": {},
    "version": 1
  }
}