{
  "_format": "hh-sol-artifact-1",
  "contractName": "MarketPlace",
  "sourceName": "contracts/Marketplace.sol",
  "abi": [
    {
      "inputs": [],
      "stateMutability": "nonpayable",
      "type": "constructor"
    },
    {
      "inputs": [],
      "name": "ReentrancyGuardReentrantCall",
      "type": "error"
    },
    {
      "anonymous": false,
      "inputs": [
        {
          "indexed": false,
          "internalType": "uint256",
          "name": "itemId",
          "type": "uint256"
        },
        {
          "indexed": true,
          "internalType": "address",
          "name": "nft",
          "type": "address"
        },
        {
          "indexed": false,
          "internalType": "uint256",
          "name": "tokenId",
          "type": "uint256"
        },
        {
          "indexed": false,
          "internalType": "uint256",
          "name": "price",
          "type": "uint256"
        },
        {
          "indexed": true,
          "internalType": "address",
          "name": "seller",
          "type": "address"
        },
        {
          "indexed": true,
          "internalType": "address",
          "name": "buyer",
          "type": "address"
        }
      ],
      "name": "Bought",
      "type": "event"
    },
    {
      "anonymous": false,
      "inputs": [
        {
          "indexed": false,
          "internalType": "uint256",
          "name": "itemId",
          "type": "uint256"
        },
        {
          "indexed": true,
          "internalType": "address",
          "name": "nft",
          "type": "address"
        },
        {
          "indexed": false,
          "internalType": "uint256",
          "name": "tokenId",
          "type": "uint256"
        },
        {
          "indexed": false,
          "internalType": "uint256",
          "name": "price",
          "type": "uint256"
        },
        {
          "indexed": true,
          "internalType": "address",
          "name": "seller",
          "type": "address"
        }
      ],
      "name": "Offered",
      "type": "event"
    },
    {
      "inputs": [],
      "name": "feeAccount",
      "outputs": [
        {
          "internalType": "address payable",
          "name": "",
          "type": "address"
        }
      ],
      "stateMutability": "view",
      "type": "function"
    },
    {
      "inputs": [],
      "name": "feePercent",
      "outputs": [
        {
          "internalType": "uint256",
          "name": "",
          "type": "uint256"
        }
      ],
      "stateMutability": "view",
      "type": "function"
    },
    {
      "inputs": [
        {
          "internalType": "uint256",
          "name": "_itemId",
          "type": "uint256"
        }
      ],
      "name": "getTotalPrice",
      "outputs": [
        {
          "internalType": "uint256",
          "name": "",
          "type": "uint256"
        }
      ],
      "stateMutability": "view",
      "type": "function"
    },
    {
      "inputs": [],
      "name": "itemCount",
      "outputs": [
        {
          "internalType": "uint256",
          "name": "",
          "type": "uint256"
        }
      ],
      "stateMutability": "view",
      "type": "function"
    },
    {
      "inputs": [
        {
          "internalType": "uint256",
          "name": "",
          "type": "uint256"
        }
      ],
      "name": "items",
      "outputs": [
        {
          "internalType": "uint256",
          "name": "itemId",
          "type": "uint256"
        },
        {
          "internalType": "contract IERC721",
          "name": "nft",
          "type": "address"
        },
        {
          "internalType": "uint256",
          "name": "tokenId",
          "type": "uint256"
        },
        {
          "internalType": "uint256",
          "name": "price",
          "type": "uint256"
        },
        {
          "internalType": "address payable",
          "name": "seller",
          "type": "address"
        },
        {
          "internalType": "bool",
          "name": "sold",
          "type": "bool"
        }
      ],
      "stateMutability": "view",
      "type": "function"
    },
    {
      "inputs": [],
      "name": "listMyTokens",
      "outputs": [
        {
          "components": [
            {
              "internalType": "uint256",
              "name": "itemId",
              "type": "uint256"
            },
            {
              "internalType": "contract IERC721",
              "name": "nft",
              "type": "address"
            },
            {
              "internalType": "uint256",
              "name": "tokenId",
              "type": "uint256"
            },
            {
              "internalType": "uint256",
              "name": "price",
              "type": "uint256"
            },
            {
              "internalType": "address payable",
              "name": "seller",
              "type": "address"
            },
            {
              "internalType": "bool",
              "name": "sold",
              "type": "bool"
            }
          ],
          "internalType": "struct MarketPlace.Item[]",
          "name": "",
          "type": "tuple[]"
        }
      ],
      "stateMutability": "view",
      "type": "function"
    },
    {
      "inputs": [
        {
          "internalType": "contract IERC721",
          "name": "_nft",
          "type": "address"
        },
        {
          "internalType": "uint256",
          "name": "_tokenId",
          "type": "uint256"
        },
        {
          "internalType": "uint256",
          "name": "_price",
          "type": "uint256"
        }
      ],
      "name": "makeItem",
      "outputs": [],
      "stateMutability": "nonpayable",
      "type": "function"
    },
    {
      "inputs": [
        {
          "internalType": "uint256",
          "name": "_itemId",
          "type": "uint256"
        }
      ],
      "name": "purchaseItem",
      "outputs": [],
      "stateMutability": "payable",
      "type": "function"
    }
  ],
  "bytecode": "0x60c0604052600360a09081525034801561001857600080fd5b5060016000819055503373ffffffffffffffffffffffffffffffffffffffff1660808173ffffffffffffffffffffffffffffffffffffffff168152505060805160a051611759610088600039600081816106bd015261076e015260008181610693015261094e01526117596000f3fe60806040526004361061007b5760003560e01c8063bfb231d21161004e578063bfb231d21461012c578063ca7dd3751461016e578063d38ea5bf146101ab578063fa00afc7146101c75761007b565b80633c36c3ea1461008057806365e17c9d146100ab5780636bfb0d01146100d65780637fd6f15c14610101575b600080fd5b34801561008c57600080fd5b506100956101f0565b6040516100a29190611091565b60405180910390f35b3480156100b757600080fd5b506100c0610691565b6040516100cd91906110c2565b60405180910390f35b3480156100e257600080fd5b506100eb6106b5565b6040516100f891906110ec565b60405180910390f35b34801561010d57600080fd5b506101166106bb565b60405161012391906110ec565b60405180910390f35b34801561013857600080fd5b50610153600480360381019061014e9190611138565b6106df565b60405161016596959493929190611183565b60405180910390f35b34801561017a57600080fd5b5061019560048036038101906101909190611138565b610768565b6040516101a291906110ec565b60405180910390f35b6101c560048036038101906101c09190611138565b6107cb565b005b3480156101d357600080fd5b506101ee60048036038101906101e99190611234565b610b53565b005b606060006001549050600080600190505b82811161034f576002600082815260200190815260200160002060040160149054906101000a900460ff16801561032857503373ffffffffffffffffffffffffffffffffffffffff166002600083815260200190815260200160002060010160009054906101000a900473ffffffffffffffffffffffffffffffffffffffff1673ffffffffffffffffffffffffffffffffffffffff16636352211e60026000858152602001908152602001600020600201546040518263ffffffff1660e01b81526004016102cf91906110ec565b602060405180830381865afa1580156102ec573d6000803e3d6000fd5b505050506040513d601f19601f8201168201806040525081019061031091906112b3565b73ffffffffffffffffffffffffffffffffffffffff16145b1561033c5781806103389061130f565b9250505b80806103479061130f565b915050610201565b50600081036103b657600067ffffffffffffffff81111561037357610372611357565b5b6040519080825280602002602001820160405280156103ac57816020015b610399610e2f565b8152602001906001900390816103915790505b509250505061068e565b60008167ffffffffffffffff8111156103d2576103d1611357565b5b60405190808252806020026020018201604052801561040b57816020015b6103f8610e2f565b8152602001906001900390816103f05790505b509050600080600190505b848111610685576002600082815260200190815260200160002060040160149054906101000a900460ff16801561053d57503373ffffffffffffffffffffffffffffffffffffffff166002600083815260200190815260200160002060010160009054906101000a900473ffffffffffffffffffffffffffffffffffffffff1673ffffffffffffffffffffffffffffffffffffffff16636352211e60026000858152602001908152602001600020600201546040518263ffffffff1660e01b81526004016104e491906110ec565b602060405180830381865afa158015610501573d6000803e3d6000fd5b505050506040513d601f19601f8201168201806040525081019061052591906112b3565b73ffffffffffffffffffffffffffffffffffffffff16145b1561067257600260008281526020019081526020016000206040518060c0016040529081600082015481526020016001820160009054906101000a900473ffffffffffffffffffffffffffffffffffffffff1673ffffffffffffffffffffffffffffffffffffffff1673ffffffffffffffffffffffffffffffffffffffff16815260200160028201548152602001600382015481526020016004820160009054906101000a900473ffffffffffffffffffffffffffffffffffffffff1673ffffffffffffffffffffffffffffffffffffffff1673ffffffffffffffffffffffffffffffffffffffff1681526020016004820160149054906101000a900460ff16151515158152505083838151811061065857610657611386565b5b6020026020010181905250818061066e9061130f565b9250505b808061067d9061130f565b915050610416565b50819450505050505b90565b7f000000000000000000000000000000000000000000000000000000000000000081565b60015481565b7f000000000000000000000000000000000000000000000000000000000000000081565b60026020528060005260406000206000915090508060000154908060010160009054906101000a900473ffffffffffffffffffffffffffffffffffffffff16908060020154908060030154908060040160009054906101000a900473ffffffffffffffffffffffffffffffffffffffff16908060040160149054906101000a900460ff16905086565b600060647f0000000000000000000000000000000000000000000000000000000000000000606461079991906113b5565b60026000858152602001908152602001600020600301546107ba91906113e9565b6107c4919061145a565b9050919050565b6107d3610ddf565b60006107de82610768565b9050600060026000848152602001908152602001600020905060008311801561080957506001548311155b610848576040517f08c379a000000000000000000000000000000000000000000000000000000000815260040161083f906114e8565b60405180910390fd5b8134101561088b576040517f08c379a00000000000000000000000000000000000000000000000000000000081526004016108829061157a565b60405180910390fd5b8060040160149054906101000a900460ff16156108dd576040517f08c379a00000000000000000000000000000000000000000000000000000000081526004016108d4906115e6565b60405180910390fd5b8060040160009054906101000a900473ffffffffffffffffffffffffffffffffffffffff1673ffffffffffffffffffffffffffffffffffffffff166108fc82600301549081150290604051600060405180830381858888f1935050505015801561094b573d6000803e3d6000fd5b507f000000000000000000000000000000000000000000000000000000000000000073ffffffffffffffffffffffffffffffffffffffff166108fc8260030154846109969190611606565b9081150290604051600060405180830381858888f193505050501580156109c1573d6000803e3d6000fd5b5060018160040160146101000a81548160ff0219169083151502179055508060010160009054906101000a900473ffffffffffffffffffffffffffffffffffffffff1673ffffffffffffffffffffffffffffffffffffffff166323b872dd303384600201546040518463ffffffff1660e01b8152600401610a4493929190611649565b600060405180830381600087803b158015610a5e57600080fd5b505af1158015610a72573d6000803e3d6000fd5b505050503373ffffffffffffffffffffffffffffffffffffffff168160040160009054906101000a900473ffffffffffffffffffffffffffffffffffffffff1673ffffffffffffffffffffffffffffffffffffffff168260010160009054906101000a900473ffffffffffffffffffffffffffffffffffffffff1673ffffffffffffffffffffffffffffffffffffffff167f8b4c9c8a607d67b321582dd8461041b1dc2ceeca70c8b7f37f8e02095cf2e76d8685600201548660030154604051610b3e93929190611680565b60405180910390a45050610b50610e25565b50565b610b5b610ddf565b60008111610b9e576040517f08c379a0000000000000000000000000000000000000000000000000000000008152600401610b9590611703565b60405180910390fd5b60016000815480929190610bb19061130f565b91905055508273ffffffffffffffffffffffffffffffffffffffff166323b872dd3330856040518463ffffffff1660e01b8152600401610bf393929190611649565b600060405180830381600087803b158015610c0d57600080fd5b505af1158015610c21573d6000803e3d6000fd5b505050506040518060c0016040528060015481526020018473ffffffffffffffffffffffffffffffffffffffff1681526020018381526020018281526020013373ffffffffffffffffffffffffffffffffffffffff168152602001600015158152506002600060015481526020019081526020016000206000820151816000015560208201518160010160006101000a81548173ffffffffffffffffffffffffffffffffffffffff021916908373ffffffffffffffffffffffffffffffffffffffff160217905550604082015181600201556060820151816003015560808201518160040160006101000a81548173ffffffffffffffffffffffffffffffffffffffff021916908373ffffffffffffffffffffffffffffffffffffffff16021790555060a08201518160040160146101000a81548160ff0219169083151502179055509050503373ffffffffffffffffffffffffffffffffffffffff168373ffffffffffffffffffffffffffffffffffffffff167f655a0cf9c8db81512be9a76dc1c5ae5380b8816ce6ad659cd61b715e2999d59a6001548585604051610dca93929190611680565b60405180910390a3610dda610e25565b505050565b600260005403610e1b576040517f3ee5aeb500000000000000000000000000000000000000000000000000000000815260040160405180910390fd5b6002600081905550565b6001600081905550565b6040518060c0016040528060008152602001600073ffffffffffffffffffffffffffffffffffffffff1681526020016000815260200160008152602001600073ffffffffffffffffffffffffffffffffffffffff1681526020016000151581525090565b600081519050919050565b600082825260208201905092915050565b6000819050602082019050919050565b6000819050919050565b610ed281610ebf565b82525050565b600073ffffffffffffffffffffffffffffffffffffffff82169050919050565b6000819050919050565b6000610f1d610f18610f1384610ed8565b610ef8565b610ed8565b9050919050565b6000610f2f82610f02565b9050919050565b6000610f4182610f24565b9050919050565b610f5181610f36565b82525050565b6000610f6282610ed8565b9050919050565b610f7281610f57565b82525050565b60008115159050919050565b610f8d81610f78565b82525050565b60c082016000820151610fa96000850182610ec9565b506020820151610fbc6020850182610f48565b506040820151610fcf6040850182610ec9565b506060820151610fe26060850182610ec9565b506080820151610ff56080850182610f69565b5060a082015161100860a0850182610f84565b50505050565b600061101a8383610f93565b60c08301905092915050565b6000602082019050919050565b600061103e82610e93565b6110488185610e9e565b935061105383610eaf565b8060005b8381101561108457815161106b888261100e565b975061107683611026565b925050600181019050611057565b5085935050505092915050565b600060208201905081810360008301526110ab8184611033565b905092915050565b6110bc81610f57565b82525050565b60006020820190506110d760008301846110b3565b92915050565b6110e681610ebf565b82525050565b600060208201905061110160008301846110dd565b92915050565b600080fd5b61111581610ebf565b811461112057600080fd5b50565b6000813590506111328161110c565b92915050565b60006020828403121561114e5761114d611107565b5b600061115c84828501611123565b91505092915050565b61116e81610f36565b82525050565b61117d81610f78565b82525050565b600060c08201905061119860008301896110dd565b6111a56020830188611165565b6111b260408301876110dd565b6111bf60608301866110dd565b6111cc60808301856110b3565b6111d960a0830184611174565b979650505050505050565b60006111ef82610ed8565b9050919050565b6000611201826111e4565b9050919050565b611211816111f6565b811461121c57600080fd5b50565b60008135905061122e81611208565b92915050565b60008060006060848603121561124d5761124c611107565b5b600061125b8682870161121f565b935050602061126c86828701611123565b925050604061127d86828701611123565b9150509250925092565b611290816111e4565b811461129b57600080fd5b50565b6000815190506112ad81611287565b92915050565b6000602082840312156112c9576112c8611107565b5b60006112d78482850161129e565b91505092915050565b7f4e487b7100000000000000000000000000000000000000000000000000000000600052601160045260246000fd5b600061131a82610ebf565b91507fffffffffffffffffffffffffffffffffffffffffffffffffffffffffffffffff820361134c5761134b6112e0565b5b600182019050919050565b7f4e487b7100000000000000000000000000000000000000000000000000000000600052604160045260246000fd5b7f4e487b7100000000000000000000000000000000000000000000000000000000600052603260045260246000fd5b60006113c082610ebf565b91506113cb83610ebf565b92508282019050808211156113e3576113e26112e0565b5b92915050565b60006113f482610ebf565b91506113ff83610ebf565b925082820261140d81610ebf565b91508282048414831517611424576114236112e0565b5b5092915050565b7f4e487b7100000000000000000000000000000000000000000000000000000000600052601260045260246000fd5b600061146582610ebf565b915061147083610ebf565b9250826114805761147f61142b565b5b828204905092915050565b600082825260208201905092915050565b7f6974656d20646f65736e27742065786973740000000000000000000000000000600082015250565b60006114d260128361148b565b91506114dd8261149c565b602082019050919050565b60006020820190508181036000830152611501816114c5565b9050919050565b7f6e6f7420656e6f75676820657468657220746f20636f766572206974656d207060008201527f7269636520616e64206d61726b65742066656500000000000000000000000000602082015250565b600061156460338361148b565b915061156f82611508565b604082019050919050565b6000602082019050818103600083015261159381611557565b9050919050565b7f6974656d20616c726561647920736f6c64000000000000000000000000000000600082015250565b60006115d060118361148b565b91506115db8261159a565b602082019050919050565b600060208201905081810360008301526115ff816115c3565b9050919050565b600061161182610ebf565b915061161c83610ebf565b9250828203905081811115611634576116336112e0565b5b92915050565b611643816111e4565b82525050565b600060608201905061165e600083018661163a565b61166b602083018561163a565b61167860408301846110dd565b949350505050565b600060608201905061169560008301866110dd565b6116a260208301856110dd565b6116af60408301846110dd565b949350505050565b7f5072696365206d7573742062652067726561746572207468616e207a65726f00600082015250565b60006116ed601f8361148b565b91506116f8826116b7565b602082019050919050565b6000602082019050818103600083015261171c816116e0565b905091905056fea264697066735822122059af82c262bd210bcb869a2446e30861c4948348e4fd74362b70fb1a0f4ad10464736f6c63430008140033",
  "linkReferences": {},
  "deployedLinkReferences": {}
}