{
  "_format": "hh-sol-artifact-1",
  "contractName": "MarketPlace",
  "sourceName": "contracts/Marketplace.sol",
  "abi": [
    {
      "inputs": [],
      "stateMutability": "nonpayable",
      "type": "constructor"
    },
    {
      "inputs": [],
      "name": "ReentrancyGuardReentrantCall",
      "type": "error"
    },
    {
      "anonymous": false,
      "inputs": [
        {
          "indexed": false,
          "internalType": "uint256",
          "name": "itemId",
          "type": "uint256"
        },
        {
          "indexed": true,
          "internalType": "address",
          "name": "nft",
          "type": "address"
        },
        {
          "indexed": false,
          "internalType": "uint256",
          "name": "tokenId",
          "type": "uint256"
        },
        {
          "indexed": false,
          "internalType": "uint256",
          "name": "price",
          "type": "uint256"
        },
        {
          "indexed": true,
          "internalType": "address",
          "name": "seller",
          "type": "address"
        },
        {
          "indexed": true,
          "internalType": "address",
          "name": "buyer",
          "type": "address"
        }
      ],
      "name": "Bought",
      "type": "event"
    },
    {
      "anonymous": false,
      "inputs": [
        {
          "indexed": false,
          "internalType": "uint256",
          "name": "itemId",
          "type": "uint256"
        },
        {
          "indexed": true,
          "internalType": "address",
          "name": "nft",
          "type": "address"
        },
        {
          "indexed": false,
          "internalType": "uint256",
          "name": "tokenId",
          "type": "uint256"
        },
        {
          "indexed": false,
          "internalType": "uint256",
          "name": "price",
          "type": "uint256"
        },
        {
          "indexed": true,
          "internalType": "address",
          "name": "seller",
          "type": "address"
        }
      ],
      "name": "Offered",
      "type": "event"
    },
    {
      "inputs": [],
      "name": "feeAccount",
      "outputs": [
        {
          "internalType": "address payable",
          "name": "",
          "type": "address"
        }
      ],
      "stateMutability": "view",
      "type": "function"
    },
    {
      "inputs": [],
      "name": "feePercent",
      "outputs": [
        {
          "internalType": "uint256",
          "name": "",
          "type": "uint256"
        }
      ],
      "stateMutability": "view",
      "type": "function"
    },
    {
      "inputs": [
        {
          "internalType": "uint256",
          "name": "_itemId",
          "type": "uint256"
        }
      ],
      "name": "getTotalPrice",
      "outputs": [
        {
          "internalType": "uint256",
          "name": "",
          "type": "uint256"
        }
      ],
      "stateMutability": "view",
      "type": "function"
    },
    {
      "inputs": [],
      "name": "itemCount",
      "outputs": [
        {
          "internalType": "uint256",
          "name": "",
          "type": "uint256"
        }
      ],
      "stateMutability": "view",
      "type": "function"
    },
    {
      "inputs": [
        {
          "internalType": "uint256",
          "name": "",
          "type": "uint256"
        }
      ],
      "name": "items",
      "outputs": [
        {
          "internalType": "uint256",
          "name": "itemId",
          "type": "uint256"
        },
        {
          "internalType": "contract IERC721",
          "name": "nft",
          "type": "address"
        },
        {
          "internalType": "uint256",
          "name": "tokenId",
          "type": "uint256"
        },
        {
          "internalType": "uint256",
          "name": "price",
          "type": "uint256"
        },
        {
          "internalType": "address payable",
          "name": "seller",
          "type": "address"
        },
        {
          "internalType": "bool",
          "name": "sold",
          "type": "bool"
        }
      ],
      "stateMutability": "view",
      "type": "function"
    },
    {
      "inputs": [],
      "name": "listMyTokens",
      "outputs": [
        {
          "components": [
            {
              "internalType": "uint256",
              "name": "itemId",
              "type": "uint256"
            },
            {
              "internalType": "contract IERC721",
              "name": "nft",
              "type": "address"
            },
            {
              "internalType": "uint256",
              "name": "tokenId",
              "type": "uint256"
            },
            {
              "internalType": "uint256",
              "name": "price",
              "type": "uint256"
            },
            {
              "internalType": "address payable",
              "name": "seller",
              "type": "address"
            },
            {
              "internalType": "bool",
              "name": "sold",
              "type": "bool"
            }
          ],
          "internalType": "struct MarketPlace.Item[]",
          "name": "",
          "type": "tuple[]"
        }
      ],
      "stateMutability": "view",
      "type": "function"
    },
    {
      "inputs": [
        {
          "internalType": "contract IERC721",
          "name": "_nft",
          "type": "address"
        },
        {
          "internalType": "uint256",
          "name": "_tokenId",
          "type": "uint256"
        },
        {
          "internalType": "uint256",
          "name": "_price",
          "type": "uint256"
        }
      ],
      "name": "makeItem",
      "outputs": [],
      "stateMutability": "nonpayable",
      "type": "function"
    },
    {
      "inputs": [
        {
          "internalType": "uint256",
          "name": "_itemId",
          "type": "uint256"
        }
      ],
      "name": "purchaseItem",
      "outputs": [],
      "stateMutability": "payable",
      "type": "function"
    },
    {
      "inputs": [
        {
          "internalType": "uint256",
          "name": "_itemId",
          "type": "uint256"
        },
        {
          "internalType": "uint256",
          "name": "_price",
          "type": "uint256"
        },
        {
          "internalType": "contract IERC721",
          "name": "_nft",
          "type": "address"
        }
      ],
      "name": "soldMyToken",
      "outputs": [],
      "stateMutability": "nonpayable",
      "type": "function"
    }
  ],
  "bytecode": "0x60c0604052600360a09081525034801561001857600080fd5b5060016000819055503373ffffffffffffffffffffffffffffffffffffffff1660808173ffffffffffffffffffffffffffffffffffffffff168152505060805160a051611bd161008860003960008181610a0a0152610abb0152600081816109e00152610c9b0152611bd16000f3fe6080604052600436106100865760003560e01c80637fd6f15c116100595780637fd6f15c14610135578063bfb231d214610160578063ca7dd375146101a2578063d38ea5bf146101df578063fa00afc7146101fb57610086565b80632f53bea11461008b5780633c36c3ea146100b457806365e17c9d146100df5780636bfb0d011461010a575b600080fd5b34801561009757600080fd5b506100b260048036038101906100ad919061128b565b610224565b005b3480156100c057600080fd5b506100c961053d565b6040516100d691906114b2565b60405180910390f35b3480156100eb57600080fd5b506100f46109de565b60405161010191906114e3565b60405180910390f35b34801561011657600080fd5b5061011f610a02565b60405161012c919061150d565b60405180910390f35b34801561014157600080fd5b5061014a610a08565b604051610157919061150d565b60405180910390f35b34801561016c57600080fd5b5061018760048036038101906101829190611528565b610a2c565b60405161019996959493929190611573565b60405180910390f35b3480156101ae57600080fd5b506101c960048036038101906101c49190611528565b610ab5565b6040516101d6919061150d565b60405180910390f35b6101f960048036038101906101f49190611528565b610b18565b005b34801561020757600080fd5b50610222600480360381019061021d91906115d4565b610ea0565b005b61022c61112c565b6000821161026f576040517f08c379a000000000000000000000000000000000000000000000000000000000815260040161026690611684565b60405180910390fd5b60006002600085815260200190815260200160002060000154116102c8576040517f08c379a00000000000000000000000000000000000000000000000000000000081526004016102bf906116f0565b60405180910390fd5b60008173ffffffffffffffffffffffffffffffffffffffff16636352211e60026000878152602001908152602001600020600201546040518263ffffffff1660e01b8152600401610319919061150d565b602060405180830381865afa158015610336573d6000803e3d6000fd5b505050506040513d601f19601f8201168201806040525081019061035a919061173c565b90503373ffffffffffffffffffffffffffffffffffffffff168173ffffffffffffffffffffffffffffffffffffffff16146103ca576040517f08c379a00000000000000000000000000000000000000000000000000000000081526004016103c1906117b5565b60405180910390fd5b6000600260008681526020019081526020016000209050338160040160006101000a81548173ffffffffffffffffffffffffffffffffffffffff021916908373ffffffffffffffffffffffffffffffffffffffff16021790555060008160040160146101000a81548160ff0219169083151502179055508381600301819055508273ffffffffffffffffffffffffffffffffffffffff166323b872dd333084600201546040518463ffffffff1660e01b815260040161048b939291906117e4565b600060405180830381600087803b1580156104a557600080fd5b505af11580156104b9573d6000803e3d6000fd5b505050503373ffffffffffffffffffffffffffffffffffffffff168373ffffffffffffffffffffffffffffffffffffffff167f655a0cf9c8db81512be9a76dc1c5ae5380b8816ce6ad659cd61b715e2999d59a83600001548460020154886040516105269392919061181b565b60405180910390a35050610538611172565b505050565b606060006001549050600080600190505b82811161069c576002600082815260200190815260200160002060040160149054906101000a900460ff16801561067557503373ffffffffffffffffffffffffffffffffffffffff166002600083815260200190815260200160002060010160009054906101000a900473ffffffffffffffffffffffffffffffffffffffff1673ffffffffffffffffffffffffffffffffffffffff16636352211e60026000858152602001908152602001600020600201546040518263ffffffff1660e01b815260040161061c919061150d565b602060405180830381865afa158015610639573d6000803e3d6000fd5b505050506040513d601f19601f8201168201806040525081019061065d919061173c565b73ffffffffffffffffffffffffffffffffffffffff16145b1561068957818061068590611881565b9250505b808061069490611881565b91505061054e565b506000810361070357600067ffffffffffffffff8111156106c0576106bf6118c9565b5b6040519080825280602002602001820160405280156106f957816020015b6106e661117c565b8152602001906001900390816106de5790505b50925050506109db565b60008167ffffffffffffffff81111561071f5761071e6118c9565b5b60405190808252806020026020018201604052801561075857816020015b61074561117c565b81526020019060019003908161073d5790505b509050600080600190505b8481116109d2576002600082815260200190815260200160002060040160149054906101000a900460ff16801561088a57503373ffffffffffffffffffffffffffffffffffffffff166002600083815260200190815260200160002060010160009054906101000a900473ffffffffffffffffffffffffffffffffffffffff1673ffffffffffffffffffffffffffffffffffffffff16636352211e60026000858152602001908152602001600020600201546040518263ffffffff1660e01b8152600401610831919061150d565b602060405180830381865afa15801561084e573d6000803e3d6000fd5b505050506040513d601f19601f82011682018060405250810190610872919061173c565b73ffffffffffffffffffffffffffffffffffffffff16145b156109bf57600260008281526020019081526020016000206040518060c0016040529081600082015481526020016001820160009054906101000a900473ffffffffffffffffffffffffffffffffffffffff1673ffffffffffffffffffffffffffffffffffffffff1673ffffffffffffffffffffffffffffffffffffffff16815260200160028201548152602001600382015481526020016004820160009054906101000a900473ffffffffffffffffffffffffffffffffffffffff1673ffffffffffffffffffffffffffffffffffffffff1673ffffffffffffffffffffffffffffffffffffffff1681526020016004820160149054906101000a900460ff1615151515815250508383815181106109a5576109a46118f8565b5b602002602001018190525081806109bb90611881565b9250505b80806109ca90611881565b915050610763565b50819450505050505b90565b7f000000000000000000000000000000000000000000000000000000000000000081565b60015481565b7f000000000000000000000000000000000000000000000000000000000000000081565b60026020528060005260406000206000915090508060000154908060010160009054906101000a900473ffffffffffffffffffffffffffffffffffffffff16908060020154908060030154908060040160009054906101000a900473ffffffffffffffffffffffffffffffffffffffff16908060040160149054906101000a900460ff16905086565b600060647f00000000000000000000000000000000000000000000000000000000000000006064610ae69190611927565b6002600085815260200190815260200160002060030154610b07919061195b565b610b1191906119cc565b9050919050565b610b2061112c565b6000610b2b82610ab5565b90506000600260008481526020019081526020016000209050600083118015610b5657506001548311155b610b95576040517f08c379a0000000000000000000000000000000000000000000000000000000008152600401610b8c90611a49565b60405180910390fd5b81341015610bd8576040517f08c379a0000000000000000000000000000000000000000000000000000000008152600401610bcf90611adb565b60405180910390fd5b8060040160149054906101000a900460ff1615610c2a576040517f08c379a0000000000000000000000000000000000000000000000000000000008152600401610c2190611b47565b60405180910390fd5b8060040160009054906101000a900473ffffffffffffffffffffffffffffffffffffffff1673ffffffffffffffffffffffffffffffffffffffff166108fc82600301549081150290604051600060405180830381858888f19350505050158015610c98573d6000803e3d6000fd5b507f000000000000000000000000000000000000000000000000000000000000000073ffffffffffffffffffffffffffffffffffffffff166108fc826003015484610ce39190611b67565b9081150290604051600060405180830381858888f19350505050158015610d0e573d6000803e3d6000fd5b5060018160040160146101000a81548160ff0219169083151502179055508060010160009054906101000a900473ffffffffffffffffffffffffffffffffffffffff1673ffffffffffffffffffffffffffffffffffffffff166323b872dd303384600201546040518463ffffffff1660e01b8152600401610d91939291906117e4565b600060405180830381600087803b158015610dab57600080fd5b505af1158015610dbf573d6000803e3d6000fd5b505050503373ffffffffffffffffffffffffffffffffffffffff168160040160009054906101000a900473ffffffffffffffffffffffffffffffffffffffff1673ffffffffffffffffffffffffffffffffffffffff168260010160009054906101000a900473ffffffffffffffffffffffffffffffffffffffff1673ffffffffffffffffffffffffffffffffffffffff167f8b4c9c8a607d67b321582dd8461041b1dc2ceeca70c8b7f37f8e02095cf2e76d8685600201548660030154604051610e8b9392919061181b565b60405180910390a45050610e9d611172565b50565b610ea861112c565b60008111610eeb576040517f08c379a0000000000000000000000000000000000000000000000000000000008152600401610ee290611684565b60405180910390fd5b60016000815480929190610efe90611881565b91905055508273ffffffffffffffffffffffffffffffffffffffff166323b872dd3330856040518463ffffffff1660e01b8152600401610f40939291906117e4565b600060405180830381600087803b158015610f5a57600080fd5b505af1158015610f6e573d6000803e3d6000fd5b505050506040518060c0016040528060015481526020018473ffffffffffffffffffffffffffffffffffffffff1681526020018381526020018281526020013373ffffffffffffffffffffffffffffffffffffffff168152602001600015158152506002600060015481526020019081526020016000206000820151816000015560208201518160010160006101000a81548173ffffffffffffffffffffffffffffffffffffffff021916908373ffffffffffffffffffffffffffffffffffffffff160217905550604082015181600201556060820151816003015560808201518160040160006101000a81548173ffffffffffffffffffffffffffffffffffffffff021916908373ffffffffffffffffffffffffffffffffffffffff16021790555060a08201518160040160146101000a81548160ff0219169083151502179055509050503373ffffffffffffffffffffffffffffffffffffffff168373ffffffffffffffffffffffffffffffffffffffff167f655a0cf9c8db81512be9a76dc1c5ae5380b8816ce6ad659cd61b715e2999d59a60015485856040516111179392919061181b565b60405180910390a3611127611172565b505050565b600260005403611168576040517f3ee5aeb500000000000000000000000000000000000000000000000000000000815260040160405180910390fd5b6002600081905550565b6001600081905550565b6040518060c0016040528060008152602001600073ffffffffffffffffffffffffffffffffffffffff1681526020016000815260200160008152602001600073ffffffffffffffffffffffffffffffffffffffff1681526020016000151581525090565b600080fd5b6000819050919050565b6111f8816111e5565b811461120357600080fd5b50565b600081359050611215816111ef565b92915050565b600073ffffffffffffffffffffffffffffffffffffffff82169050919050565b60006112468261121b565b9050919050565b60006112588261123b565b9050919050565b6112688161124d565b811461127357600080fd5b50565b6000813590506112858161125f565b92915050565b6000806000606084860312156112a4576112a36111e0565b5b60006112b286828701611206565b93505060206112c386828701611206565b92505060406112d486828701611276565b9150509250925092565b600081519050919050565b600082825260208201905092915050565b6000819050602082019050919050565b611313816111e5565b82525050565b6000819050919050565b600061133e6113396113348461121b565b611319565b61121b565b9050919050565b600061135082611323565b9050919050565b600061136282611345565b9050919050565b61137281611357565b82525050565b60006113838261121b565b9050919050565b61139381611378565b82525050565b60008115159050919050565b6113ae81611399565b82525050565b60c0820160008201516113ca600085018261130a565b5060208201516113dd6020850182611369565b5060408201516113f0604085018261130a565b506060820151611403606085018261130a565b506080820151611416608085018261138a565b5060a082015161142960a08501826113a5565b50505050565b600061143b83836113b4565b60c08301905092915050565b6000602082019050919050565b600061145f826112de565b61146981856112e9565b9350611474836112fa565b8060005b838110156114a557815161148c888261142f565b975061149783611447565b925050600181019050611478565b5085935050505092915050565b600060208201905081810360008301526114cc8184611454565b905092915050565b6114dd81611378565b82525050565b60006020820190506114f860008301846114d4565b92915050565b611507816111e5565b82525050565b600060208201905061152260008301846114fe565b92915050565b60006020828403121561153e5761153d6111e0565b5b600061154c84828501611206565b91505092915050565b61155e81611357565b82525050565b61156d81611399565b82525050565b600060c08201905061158860008301896114fe565b6115956020830188611555565b6115a260408301876114fe565b6115af60608301866114fe565b6115bc60808301856114d4565b6115c960a0830184611564565b979650505050505050565b6000806000606084860312156115ed576115ec6111e0565b5b60006115fb86828701611276565b935050602061160c86828701611206565b925050604061161d86828701611206565b9150509250925092565b600082825260208201905092915050565b7f5072696365206d7573742062652067726561746572207468616e207a65726f00600082015250565b600061166e601f83611627565b915061167982611638565b602082019050919050565b6000602082019050818103600083015261169d81611661565b9050919050565b7f4974656d2073686f756c64206578697374000000000000000000000000000000600082015250565b60006116da601183611627565b91506116e5826116a4565b602082019050919050565b60006020820190508181036000830152611709816116cd565b9050919050565b6117198161123b565b811461172457600080fd5b50565b60008151905061173681611710565b92915050565b600060208284031215611752576117516111e0565b5b600061176084828501611727565b91505092915050565b7f596f7520617265206e6f7420746865206f776e65720000000000000000000000600082015250565b600061179f601583611627565b91506117aa82611769565b602082019050919050565b600060208201905081810360008301526117ce81611792565b9050919050565b6117de8161123b565b82525050565b60006060820190506117f960008301866117d5565b61180660208301856117d5565b61181360408301846114fe565b949350505050565b600060608201905061183060008301866114fe565b61183d60208301856114fe565b61184a60408301846114fe565b949350505050565b7f4e487b7100000000000000000000000000000000000000000000000000000000600052601160045260246000fd5b600061188c826111e5565b91507fffffffffffffffffffffffffffffffffffffffffffffffffffffffffffffffff82036118be576118bd611852565b5b600182019050919050565b7f4e487b7100000000000000000000000000000000000000000000000000000000600052604160045260246000fd5b7f4e487b7100000000000000000000000000000000000000000000000000000000600052603260045260246000fd5b6000611932826111e5565b915061193d836111e5565b925082820190508082111561195557611954611852565b5b92915050565b6000611966826111e5565b9150611971836111e5565b925082820261197f816111e5565b9150828204841483151761199657611995611852565b5b5092915050565b7f4e487b7100000000000000000000000000000000000000000000000000000000600052601260045260246000fd5b60006119d7826111e5565b91506119e2836111e5565b9250826119f2576119f161199d565b5b828204905092915050565b7f6974656d20646f65736e27742065786973740000000000000000000000000000600082015250565b6000611a33601283611627565b9150611a3e826119fd565b602082019050919050565b60006020820190508181036000830152611a6281611a26565b9050919050565b7f6e6f7420656e6f75676820657468657220746f20636f766572206974656d207060008201527f7269636520616e64206d61726b65742066656500000000000000000000000000602082015250565b6000611ac5603383611627565b9150611ad082611a69565b604082019050919050565b60006020820190508181036000830152611af481611ab8565b9050919050565b7f6974656d20616c726561647920736f6c64000000000000000000000000000000600082015250565b6000611b31601183611627565b9150611b3c82611afb565b602082019050919050565b60006020820190508181036000830152611b6081611b24565b9050919050565b6000611b72826111e5565b9150611b7d836111e5565b9250828203905081811115611b9557611b94611852565b5b9291505056fea264697066735822122060fcac359cbbd1c8deeda145aa1b70b7e3a539cfd09e9ee614915a20d3c7854b64736f6c63430008140033",
  "linkReferences": {},
  "deployedLinkReferences": {}
}