{
  "contractName": "SimpleDropbox",
  "abi": [
    {
      "inputs": [],
      "stateMutability": "nonpayable",
      "type": "constructor"
    },
    {
      "anonymous": false,
      "inputs": [
        {
          "indexed": false,
          "internalType": "uint256",
          "name": "fileId",
          "type": "uint256"
        },
        {
          "indexed": false,
          "internalType": "string",
          "name": "fileHash",
          "type": "string"
        },
        {
          "indexed": false,
          "internalType": "uint256",
          "name": "fileSize",
          "type": "uint256"
        },
        {
          "indexed": false,
          "internalType": "string",
          "name": "fileType",
          "type": "string"
        },
        {
          "indexed": false,
          "internalType": "string",
          "name": "fileName",
          "type": "string"
        },
        {
          "indexed": false,
          "internalType": "string",
          "name": "fileDescription",
          "type": "string"
        },
        {
          "indexed": false,
          "internalType": "uint256",
          "name": "uploadTime",
          "type": "uint256"
        },
        {
          "indexed": false,
          "internalType": "address payable",
          "name": "uploader",
          "type": "address"
        }
      ],
      "name": "FileUploaded",
      "type": "event"
    },
    {
      "inputs": [],
      "name": "fileCount",
      "outputs": [
        {
          "internalType": "uint256",
          "name": "",
          "type": "uint256"
        }
      ],
      "stateMutability": "view",
      "type": "function",
      "constant": true
    },
    {
      "inputs": [
        {
          "internalType": "uint256",
          "name": "",
          "type": "uint256"
        }
      ],
      "name": "files",
      "outputs": [
        {
          "internalType": "uint256",
          "name": "fileId",
          "type": "uint256"
        },
        {
          "internalType": "string",
          "name": "fileHash",
          "type": "string"
        },
        {
          "internalType": "uint256",
          "name": "fileSize",
          "type": "uint256"
        },
        {
          "internalType": "string",
          "name": "fileType",
          "type": "string"
        },
        {
          "internalType": "string",
          "name": "fileName",
          "type": "string"
        },
        {
          "internalType": "string",
          "name": "fileDescription",
          "type": "string"
        },
        {
          "internalType": "uint256",
          "name": "uploadTime",
          "type": "uint256"
        },
        {
          "internalType": "address payable",
          "name": "uploader",
          "type": "address"
        }
      ],
      "stateMutability": "view",
      "type": "function",
      "constant": true
    },
    {
      "inputs": [],
      "name": "name",
      "outputs": [
        {
          "internalType": "string",
          "name": "",
          "type": "string"
        }
      ],
      "stateMutability": "view",
      "type": "function",
      "constant": true
    },
    {
      "inputs": [],
      "name": "getFileCount",
      "outputs": [
        {
          "internalType": "uint256",
          "name": "",
          "type": "uint256"
        }
      ],
      "stateMutability": "view",
      "type": "function",
      "constant": true
    },
    {
      "inputs": [
        {
          "internalType": "string",
          "name": "_fileHash",
          "type": "string"
        },
        {
          "internalType": "uint256",
          "name": "_fileSize",
          "type": "uint256"
        },
        {
          "internalType": "string",
          "name": "_fileType",
          "type": "string"
        },
        {
          "internalType": "string",
          "name": "_fileName",
          "type": "string"
        },
        {
          "internalType": "string",
          "name": "_fileDescription",
          "type": "string"
        }
      ],
      "name": "uploadFile",
      "outputs": [],
      "stateMutability": "nonpayable",
      "type": "function"
    }
  ],
  "bytecode": "0x60806040526040518060400160405280600d81526020017f53696d706c6544726f70626f780000000000000000000000000000000000000081525060009080519060200190620000519291906200006b565b5060006001553480156200006457600080fd5b5062000180565b82805462000079906200011b565b90600052602060002090601f0160209004810192826200009d5760008555620000e9565b82601f10620000b857805160ff1916838001178555620000e9565b82800160010185558215620000e9579182015b82811115620000e8578251825591602001919060010190620000cb565b5b509050620000f89190620000fc565b5090565b5b8082111562000117576000816000905550600101620000fd565b5090565b600060028204905060018216806200013457607f821691505b602082108114156200014b576200014a62000151565b5b50919050565b7f4e487b7100000000000000000000000000000000000000000000000000000000600052602260045260246000fd5b610c0680620001906000396000f3fe608060405234801561001057600080fd5b50600436106100575760003560e01c806306fdde031461005c578063439535191461007a578063bab50cc914610098578063e82d9d33146100b6578063f4c714b4146100d2575b600080fd5b610064610109565b60405161007191906108ce565b60405180910390f35b610082610197565b60405161008f91906108f0565b60405180910390f35b6100a061019d565b6040516100ad91906108f0565b60405180910390f35b6100d060048036038101906100cb9190610777565b6101a7565b005b6100ec60048036038101906100e7919061084e565b6103cf565b60405161010098979695949392919061090b565b60405180910390f35b6000805461011690610aa0565b80601f016020809104026020016040519081016040528092919081815260200182805461014290610aa0565b801561018f5780601f106101645761010080835404028352916020019161018f565b820191906000526020600020905b81548152906001019060200180831161017257829003601f168201915b505050505081565b60015481565b6000600154905090565b60008551116101b557600080fd5b60008351116101c357600080fd5b60008151116101d157600080fd5b60008251116101df57600080fd5b600073ffffffffffffffffffffffffffffffffffffffff163373ffffffffffffffffffffffffffffffffffffffff16141561021957600080fd5b6000841161022657600080fd5b6001600081548092919061023990610ad2565b919050555060405180610100016040528060015481526020018681526020018581526020018481526020018381526020018281526020014281526020013373ffffffffffffffffffffffffffffffffffffffff168152506002600060015481526020019081526020016000206000820151816000015560208201518160010190805190602001906102cb929190610657565b506040820151816002015560608201518160030190805190602001906102f2929190610657565b50608082015181600401908051906020019061030f929190610657565b5060a082015181600501908051906020019061032c929190610657565b5060c0820151816006015560e08201518160070160006101000a81548173ffffffffffffffffffffffffffffffffffffffff021916908373ffffffffffffffffffffffffffffffffffffffff1602179055509050507f6e95bbaa37a5fdec42a312e049dea2fe6160ebe659214d3409b4f91f164c2f52600154868686868642336040516103c098979695949392919061090b565b60405180910390a15050505050565b60026020528060005260406000206000915090508060000154908060010180546103f890610aa0565b80601f016020809104026020016040519081016040528092919081815260200182805461042490610aa0565b80156104715780601f1061044657610100808354040283529160200191610471565b820191906000526020600020905b81548152906001019060200180831161045457829003601f168201915b50505050509080600201549080600301805461048c90610aa0565b80601f01602080910402602001604051908101604052809291908181526020018280546104b890610aa0565b80156105055780601f106104da57610100808354040283529160200191610505565b820191906000526020600020905b8154815290600101906020018083116104e857829003601f168201915b50505050509080600401805461051a90610aa0565b80601f016020809104026020016040519081016040528092919081815260200182805461054690610aa0565b80156105935780601f1061056857610100808354040283529160200191610593565b820191906000526020600020905b81548152906001019060200180831161057657829003601f168201915b5050505050908060050180546105a890610aa0565b80601f01602080910402602001604051908101604052809291908181526020018280546105d490610aa0565b80156106215780601f106105f657610100808354040283529160200191610621565b820191906000526020600020905b81548152906001019060200180831161060457829003601f168201915b5050505050908060060154908060070160009054906101000a900473ffffffffffffffffffffffffffffffffffffffff16905088565b82805461066390610aa0565b90600052602060002090601f01602090048101928261068557600085556106cc565b82601f1061069e57805160ff19168380011785556106cc565b828001600101855582156106cc579182015b828111156106cb5782518255916020019190600101906106b0565b5b5090506106d991906106dd565b5090565b5b808211156106f65760008160009055506001016106de565b5090565b600061070d610708846109d6565b6109a5565b90508281526020810184848401111561072557600080fd5b610730848285610a5e565b509392505050565b600082601f83011261074957600080fd5b81356107598482602086016106fa565b91505092915050565b60008135905061077181610bb9565b92915050565b600080600080600060a0868803121561078f57600080fd5b600086013567ffffffffffffffff8111156107a957600080fd5b6107b588828901610738565b95505060206107c688828901610762565b945050604086013567ffffffffffffffff8111156107e357600080fd5b6107ef88828901610738565b935050606086013567ffffffffffffffff81111561080c57600080fd5b61081888828901610738565b925050608086013567ffffffffffffffff81111561083557600080fd5b61084188828901610738565b9150509295509295909350565b60006020828403121561086057600080fd5b600061086e84828501610762565b91505092915050565b61088081610a22565b82525050565b600061089182610a06565b61089b8185610a11565b93506108ab818560208601610a6d565b6108b481610ba8565b840191505092915050565b6108c881610a54565b82525050565b600060208201905081810360008301526108e88184610886565b905092915050565b600060208201905061090560008301846108bf565b92915050565b600061010082019050610921600083018b6108bf565b8181036020830152610933818a610886565b905061094260408301896108bf565b81810360608301526109548188610886565b905081810360808301526109688187610886565b905081810360a083015261097c8186610886565b905061098b60c08301856108bf565b61099860e0830184610877565b9998505050505050505050565b6000604051905081810181811067ffffffffffffffff821117156109cc576109cb610b79565b5b8060405250919050565b600067ffffffffffffffff8211156109f1576109f0610b79565b5b601f19601f8301169050602081019050919050565b600081519050919050565b600082825260208201905092915050565b6000610a2d82610a34565b9050919050565b600073ffffffffffffffffffffffffffffffffffffffff82169050919050565b6000819050919050565b82818337600083830152505050565b60005b83811015610a8b578082015181840152602081019050610a70565b83811115610a9a576000848401525b50505050565b60006002820490506001821680610ab857607f821691505b60208210811415610acc57610acb610b4a565b5b50919050565b6000610add82610a54565b91507fffffffffffffffffffffffffffffffffffffffffffffffffffffffffffffffff821415610b1057610b0f610b1b565b5b600182019050919050565b7f4e487b7100000000000000000000000000000000000000000000000000000000600052601160045260246000fd5b7f4e487b7100000000000000000000000000000000000000000000000000000000600052602260045260246000fd5b7f4e487b7100000000000000000000000000000000000000000000000000000000600052604160045260246000fd5b6000601f19601f8301169050919050565b610bc281610a54565b8114610bcd57600080fd5b5056fea2646970667358221220e243d3f66fcbb01845a2485f350fbd716f9071ee677e642d2d14e3e553d4f14364736f6c63430008000033",
  "immutableReferences": {},
  "source": "// SPDX-License-Identifier: MIT\npragma solidity ^0.8.0;\n\ncontract SimpleDropbox {\n    string public name = 'SimpleDropbox';\n    uint public fileCount = 0;\n    mapping (uint => File) public files;\n\n    constructor() {}\n\n    struct File {\n        uint fileId;\n        string fileHash;\n        uint fileSize;\n        string fileType;\n        string fileName;\n        string fileDescription;\n        uint uploadTime;\n        address payable uploader;\n    }\n\n    event FileUploaded(\n        uint fileId,\n        string fileHash,\n        uint fileSize,\n        string fileType,\n        string fileName, \n        string fileDescription,\n        uint uploadTime,\n        address payable uploader\n    );\n\n    function getFileCount() public view returns (uint) {\n        return fileCount;\n    }\n\n    function uploadFile(\n        string memory _fileHash, \n        uint _fileSize, \n        string memory _fileType, \n        string memory _fileName, \n        string memory _fileDescription) public {\n\n        // validate incomming data\n        require(bytes(_fileHash).length > 0);\n        require(bytes(_fileType).length > 0);\n        require(bytes(_fileDescription).length > 0);\n        require(bytes(_fileName).length > 0);\n        require(msg.sender!=address(0));\n        require(_fileSize>0);\n\n        fileCount++;\n        files[fileCount] = File(fileCount, \n             _fileHash,\n             _fileSize,\n             _fileType,\n             _fileName,\n             _fileDescription,\n             block.timestamp,\n             payable(msg.sender)\n        );\n\n        emit FileUploaded(fileCount, _fileHash, _fileSize, _fileType, _fileName, _fileDescription, block.timestamp, payable(msg.sender));\n    }\n    \n}\n",
  "sourcePath": "/Users/israeljosueparrarosales/blockchain/dropbox-clone/contracts/SimpleDropbox.sol",
  "compiler": {
    "name": "solc",
    "version": "0.8.0+commit.c7dfd78e.Emscripten.clang"
  },
  "schemaVersion": "3.4.16",
  "updatedAt": "2024-05-31T19:29:31.789Z",
  "networkType": "ethereum",
  "devdoc": {
    "kind": "dev",
    "methods": {},
    "version": 1
  },
  "userdoc": {
    "kind": "user",
    "methods": {},
    "version": 1
  }
}