{
  "contractName": "SimpleDropbox",
  "abi": [
    {
      "inputs": [],
      "stateMutability": "nonpayable",
      "type": "constructor"
    },
    {
      "anonymous": false,
      "inputs": [
        {
          "indexed": false,
          "internalType": "uint256",
          "name": "fileId",
          "type": "uint256"
        },
        {
          "indexed": false,
          "internalType": "string",
          "name": "fileHash",
          "type": "string"
        },
        {
          "indexed": false,
          "internalType": "uint256",
          "name": "fileSize",
          "type": "uint256"
        },
        {
          "indexed": false,
          "internalType": "string",
          "name": "fileType",
          "type": "string"
        },
        {
          "indexed": false,
          "internalType": "string",
          "name": "fileName",
          "type": "string"
        },
        {
          "indexed": false,
          "internalType": "string",
          "name": "fileDescription",
          "type": "string"
        },
        {
          "indexed": false,
          "internalType": "uint256",
          "name": "uploadTime",
          "type": "uint256"
        },
        {
          "indexed": false,
          "internalType": "address payable",
          "name": "uploader",
          "type": "address"
        }
      ],
      "name": "FileUploaded",
      "type": "event"
    },
    {
      "inputs": [],
      "name": "fileCount",
      "outputs": [
        {
          "internalType": "uint256",
          "name": "",
          "type": "uint256"
        }
      ],
      "stateMutability": "view",
      "type": "function",
      "constant": true
    },
    {
      "inputs": [
        {
          "internalType": "uint256",
          "name": "",
          "type": "uint256"
        }
      ],
      "name": "files",
      "outputs": [
        {
          "internalType": "uint256",
          "name": "fileId",
          "type": "uint256"
        },
        {
          "internalType": "string",
          "name": "fileHash",
          "type": "string"
        },
        {
          "internalType": "uint256",
          "name": "fileSize",
          "type": "uint256"
        },
        {
          "internalType": "string",
          "name": "fileType",
          "type": "string"
        },
        {
          "internalType": "string",
          "name": "fileName",
          "type": "string"
        },
        {
          "internalType": "string",
          "name": "fileDescription",
          "type": "string"
        },
        {
          "internalType": "uint256",
          "name": "uploadTime",
          "type": "uint256"
        },
        {
          "internalType": "address payable",
          "name": "uploader",
          "type": "address"
        }
      ],
      "stateMutability": "view",
      "type": "function",
      "constant": true
    },
    {
      "inputs": [],
      "name": "name",
      "outputs": [
        {
          "internalType": "string",
          "name": "",
          "type": "string"
        }
      ],
      "stateMutability": "view",
      "type": "function",
      "constant": true
    },
    {
      "inputs": [],
      "name": "getFileCount",
      "outputs": [
        {
          "internalType": "uint256",
          "name": "",
          "type": "uint256"
        }
      ],
      "stateMutability": "view",
      "type": "function",
      "constant": true
    },
    {
      "inputs": [
        {
          "internalType": "string",
          "name": "_fileHash",
          "type": "string"
        },
        {
          "internalType": "uint256",
          "name": "_fileSize",
          "type": "uint256"
        },
        {
          "internalType": "string",
          "name": "_fileType",
          "type": "string"
        },
        {
          "internalType": "string",
          "name": "_fileName",
          "type": "string"
        },
        {
          "internalType": "string",
          "name": "_fileDescription",
          "type": "string"
        }
      ],
      "name": "uploadFile",
      "outputs": [],
      "stateMutability": "nonpayable",
      "type": "function"
    }
  ],
  "bytecode": "0x60806040526040518060400160405280600d81526020017f53696d706c6544726f70626f78000000000000000000000000000000000000008152506000908051906020019061004f929190610067565b50600060015534801561006157600080fd5b5061016b565b8280546100739061010a565b90600052602060002090601f01602090048101928261009557600085556100dc565b82601f106100ae57805160ff19168380011785556100dc565b828001600101855582156100dc579182015b828111156100db5782518255916020019190600101906100c0565b5b5090506100e991906100ed565b5090565b5b808211156101065760008160009055506001016100ee565b5090565b6000600282049050600182168061012257607f821691505b602082108114156101365761013561013c565b5b50919050565b7f4e487b7100000000000000000000000000000000000000000000000000000000600052602260045260246000fd5b6108ca8061017a6000396000f3fe608060405234801561001057600080fd5b50600436106100575760003560e01c806306fdde031461005c578063439535191461007a578063bab50cc914610098578063e82d9d33146100b6578063f4c714b4146100d2575b600080fd5b610064610109565b604051610071919061060a565b60405180910390f35b610082610197565b60405161008f919061062c565b60405180910390f35b6100a061019d565b6040516100ad919061062c565b60405180910390f35b6100d060048036038101906100cb91906104b3565b6101a7565b005b6100ec60048036038101906100e7919061058a565b6101ae565b604051610100989796959493929190610647565b60405180910390f35b60008054610116906107dc565b80601f0160208091040260200160405190810160405280929190818152602001828054610142906107dc565b801561018f5780601f106101645761010080835404028352916020019161018f565b820191906000526020600020905b81548152906001019060200180831161017257829003601f168201915b505050505081565b60015481565b6000600154905090565b5050505050565b60026020528060005260406000206000915090508060000154908060010180546101d7906107dc565b80601f0160208091040260200160405190810160405280929190818152602001828054610203906107dc565b80156102505780601f1061022557610100808354040283529160200191610250565b820191906000526020600020905b81548152906001019060200180831161023357829003601f168201915b50505050509080600201549080600301805461026b906107dc565b80601f0160208091040260200160405190810160405280929190818152602001828054610297906107dc565b80156102e45780601f106102b9576101008083540402835291602001916102e4565b820191906000526020600020905b8154815290600101906020018083116102c757829003601f168201915b5050505050908060040180546102f9906107dc565b80601f0160208091040260200160405190810160405280929190818152602001828054610325906107dc565b80156103725780601f1061034757610100808354040283529160200191610372565b820191906000526020600020905b81548152906001019060200180831161035557829003601f168201915b505050505090806005018054610387906107dc565b80601f01602080910402602001604051908101604052809291908181526020018280546103b3906107dc565b80156104005780601f106103d557610100808354040283529160200191610400565b820191906000526020600020905b8154815290600101906020018083116103e357829003601f168201915b5050505050908060060154908060070160009054906101000a900473ffffffffffffffffffffffffffffffffffffffff16905088565b600061044961044484610712565b6106e1565b90508281526020810184848401111561046157600080fd5b61046c84828561079a565b509392505050565b600082601f83011261048557600080fd5b8135610495848260208601610436565b91505092915050565b6000813590506104ad8161087d565b92915050565b600080600080600060a086880312156104cb57600080fd5b600086013567ffffffffffffffff8111156104e557600080fd5b6104f188828901610474565b95505060206105028882890161049e565b945050604086013567ffffffffffffffff81111561051f57600080fd5b61052b88828901610474565b935050606086013567ffffffffffffffff81111561054857600080fd5b61055488828901610474565b925050608086013567ffffffffffffffff81111561057157600080fd5b61057d88828901610474565b9150509295509295909350565b60006020828403121561059c57600080fd5b60006105aa8482850161049e565b91505092915050565b6105bc8161075e565b82525050565b60006105cd82610742565b6105d7818561074d565b93506105e78185602086016107a9565b6105f08161086c565b840191505092915050565b61060481610790565b82525050565b6000602082019050818103600083015261062481846105c2565b905092915050565b600060208201905061064160008301846105fb565b92915050565b60006101008201905061065d600083018b6105fb565b818103602083015261066f818a6105c2565b905061067e60408301896105fb565b818103606083015261069081886105c2565b905081810360808301526106a481876105c2565b905081810360a08301526106b881866105c2565b90506106c760c08301856105fb565b6106d460e08301846105b3565b9998505050505050505050565b6000604051905081810181811067ffffffffffffffff821117156107085761070761083d565b5b8060405250919050565b600067ffffffffffffffff82111561072d5761072c61083d565b5b601f19601f8301169050602081019050919050565b600081519050919050565b600082825260208201905092915050565b600061076982610770565b9050919050565b600073ffffffffffffffffffffffffffffffffffffffff82169050919050565b6000819050919050565b82818337600083830152505050565b60005b838110156107c75780820151818401526020810190506107ac565b838111156107d6576000848401525b50505050565b600060028204905060018216806107f457607f821691505b602082108114156108085761080761080e565b5b50919050565b7f4e487b7100000000000000000000000000000000000000000000000000000000600052602260045260246000fd5b7f4e487b7100000000000000000000000000000000000000000000000000000000600052604160045260246000fd5b6000601f19601f8301169050919050565b61088681610790565b811461089157600080fd5b5056fea2646970667358221220f022379c0400605f53158f427419a2e62f4e7eb05bc50bc341edad70ec92bd0b64736f6c63430008000033",
  "immutableReferences": {},
  "source": "// SPDX-License-Identifier: MIT\npragma solidity ^0.8.0;\n\ncontract SimpleDropbox {\n    string public name = 'SimpleDropbox';\n    uint public fileCount = 0;\n    mapping (uint => File) public files;\n\n    constructor() public {}\n\n    struct File {\n        uint fileId;\n        string fileHash;\n        uint fileSize;\n        string fileType;\n        string fileName;\n        string fileDescription;\n        uint uploadTime;\n        address payable uploader;\n    }\n\n    event FileUploaded(\n        uint fileId,\n        string fileHash,\n        uint fileSize,\n        string fileType,\n        string fileName, \n        string fileDescription,\n        uint uploadTime,\n        address payable uploader\n    );\n\n    function getFileCount() public view returns (uint) {\n        return fileCount;\n    }\n\n    function uploadFile(\n        string memory _fileHash, \n        uint _fileSize, \n        string memory _fileType, \n        string memory _fileName, \n        string memory _fileDescription) public {\n\n        // validate incomming data\n    }\n    \n}\n",
  "sourcePath": "/Users/israeljosueparrarosales/blockchain/dropbox-clone/contracts/SimpleDropbox.sol",
  "compiler": {
    "name": "solc",
    "version": "0.8.0+commit.c7dfd78e.Emscripten.clang"
  },
  "schemaVersion": "3.4.16",
  "updatedAt": "2024-05-31T19:02:40.417Z",
  "networkType": "ethereum",
  "devdoc": {
    "kind": "dev",
    "methods": {},
    "version": 1
  },
  "userdoc": {
    "kind": "user",
    "methods": {},
    "version": 1
  }
}