{
  "_format": "hh-sol-artifact-1",
  "contractName": "Dappazon",
  "sourceName": "contracts/dappazon.sol",
  "abi": [
    {
      "inputs": [],
      "stateMutability": "nonpayable",
      "type": "constructor"
    },
    {
      "anonymous": false,
      "inputs": [
        {
          "indexed": false,
          "internalType": "address",
          "name": "buyer",
          "type": "address"
        },
        {
          "indexed": false,
          "internalType": "uint256",
          "name": "orderId",
          "type": "uint256"
        },
        {
          "indexed": false,
          "internalType": "uint256",
          "name": "itemId",
          "type": "uint256"
        }
      ],
      "name": "Buy",
      "type": "event"
    },
    {
      "anonymous": false,
      "inputs": [
        {
          "indexed": false,
          "internalType": "string",
          "name": "name",
          "type": "string"
        },
        {
          "indexed": false,
          "internalType": "uint256",
          "name": "cost",
          "type": "uint256"
        },
        {
          "indexed": false,
          "internalType": "uint256",
          "name": "quantity",
          "type": "uint256"
        }
      ],
      "name": "List",
      "type": "event"
    },
    {
      "inputs": [
        {
          "internalType": "uint256",
          "name": "_itemId",
          "type": "uint256"
        }
      ],
      "name": "buy",
      "outputs": [],
      "stateMutability": "payable",
      "type": "function"
    },
    {
      "inputs": [
        {
          "internalType": "uint256",
          "name": "",
          "type": "uint256"
        }
      ],
      "name": "electronicGrouping",
      "outputs": [
        {
          "internalType": "uint256",
          "name": "",
          "type": "uint256"
        }
      ],
      "stateMutability": "view",
      "type": "function"
    },
    {
      "inputs": [
        {
          "internalType": "string",
          "name": "_category",
          "type": "string"
        }
      ],
      "name": "getByCategory",
      "outputs": [
        {
          "components": [
            {
              "internalType": "uint256",
              "name": "id",
              "type": "uint256"
            },
            {
              "internalType": "string",
              "name": "name",
              "type": "string"
            },
            {
              "internalType": "enum Dappazon.CategoryEnum",
              "name": "category",
              "type": "uint8"
            },
            {
              "internalType": "string",
              "name": "image",
              "type": "string"
            },
            {
              "internalType": "uint256",
              "name": "cost",
              "type": "uint256"
            },
            {
              "internalType": "uint256",
              "name": "rating",
              "type": "uint256"
            },
            {
              "internalType": "uint256",
              "name": "stock",
              "type": "uint256"
            }
          ],
          "internalType": "struct Dappazon.Item[]",
          "name": "",
          "type": "tuple[]"
        }
      ],
      "stateMutability": "view",
      "type": "function"
    },
    {
      "inputs": [],
      "name": "getElectronicGroupingLength",
      "outputs": [
        {
          "internalType": "uint256",
          "name": "",
          "type": "uint256"
        }
      ],
      "stateMutability": "view",
      "type": "function"
    },
    {
      "inputs": [],
      "name": "getHomeGroupingLength",
      "outputs": [
        {
          "internalType": "uint256",
          "name": "",
          "type": "uint256"
        }
      ],
      "stateMutability": "view",
      "type": "function"
    },
    {
      "inputs": [
        {
          "internalType": "uint256",
          "name": "",
          "type": "uint256"
        }
      ],
      "name": "homeGrouping",
      "outputs": [
        {
          "internalType": "uint256",
          "name": "",
          "type": "uint256"
        }
      ],
      "stateMutability": "view",
      "type": "function"
    },
    {
      "inputs": [
        {
          "internalType": "uint256",
          "name": "",
          "type": "uint256"
        }
      ],
      "name": "items",
      "outputs": [
        {
          "internalType": "uint256",
          "name": "id",
          "type": "uint256"
        },
        {
          "internalType": "string",
          "name": "name",
          "type": "string"
        },
        {
          "internalType": "enum Dappazon.CategoryEnum",
          "name": "category",
          "type": "uint8"
        },
        {
          "internalType": "string",
          "name": "image",
          "type": "string"
        },
        {
          "internalType": "uint256",
          "name": "cost",
          "type": "uint256"
        },
        {
          "internalType": "uint256",
          "name": "rating",
          "type": "uint256"
        },
        {
          "internalType": "uint256",
          "name": "stock",
          "type": "uint256"
        }
      ],
      "stateMutability": "view",
      "type": "function"
    },
    {
      "inputs": [
        {
          "internalType": "uint256",
          "name": "_id",
          "type": "uint256"
        },
        {
          "internalType": "string",
          "name": "_name",
          "type": "string"
        },
        {
          "internalType": "string",
          "name": "_category",
          "type": "string"
        },
        {
          "internalType": "string",
          "name": "_image",
          "type": "string"
        },
        {
          "internalType": "uint256",
          "name": "_cost",
          "type": "uint256"
        },
        {
          "internalType": "uint256",
          "name": "_rating",
          "type": "uint256"
        },
        {
          "internalType": "uint256",
          "name": "_stock",
          "type": "uint256"
        }
      ],
      "name": "list",
      "outputs": [],
      "stateMutability": "nonpayable",
      "type": "function"
    },
    {
      "inputs": [
        {
          "internalType": "address",
          "name": "",
          "type": "address"
        }
      ],
      "name": "orderCount",
      "outputs": [
        {
          "internalType": "uint256",
          "name": "",
          "type": "uint256"
        }
      ],
      "stateMutability": "view",
      "type": "function"
    },
    {
      "inputs": [
        {
          "internalType": "address",
          "name": "",
          "type": "address"
        },
        {
          "internalType": "uint256",
          "name": "",
          "type": "uint256"
        }
      ],
      "name": "orders",
      "outputs": [
        {
          "internalType": "uint256",
          "name": "time",
          "type": "uint256"
        },
        {
          "components": [
            {
              "internalType": "uint256",
              "name": "id",
              "type": "uint256"
            },
            {
              "internalType": "string",
              "name": "name",
              "type": "string"
            },
            {
              "internalType": "enum Dappazon.CategoryEnum",
              "name": "category",
              "type": "uint8"
            },
            {
              "internalType": "string",
              "name": "image",
              "type": "string"
            },
            {
              "internalType": "uint256",
              "name": "cost",
              "type": "uint256"
            },
            {
              "internalType": "uint256",
              "name": "rating",
              "type": "uint256"
            },
            {
              "internalType": "uint256",
              "name": "stock",
              "type": "uint256"
            }
          ],
          "internalType": "struct Dappazon.Item",
          "name": "item",
          "type": "tuple"
        }
      ],
      "stateMutability": "view",
      "type": "function"
    },
    {
      "inputs": [],
      "name": "owner",
      "outputs": [
        {
          "internalType": "address",
          "name": "",
          "type": "address"
        }
      ],
      "stateMutability": "view",
      "type": "function"
    },
    {
      "inputs": [
        {
          "internalType": "uint256",
          "name": "_id",
          "type": "uint256"
        },
        {
          "internalType": "uint256",
          "name": "newStock",
          "type": "uint256"
        }
      ],
      "name": "updateStock",
      "outputs": [],
      "stateMutability": "nonpayable",
      "type": "function"
    },
    {
      "inputs": [],
      "name": "withdraw",
      "outputs": [],
      "stateMutability": "payable",
      "type": "function"
    }
  ],
  "bytecode": "0x608060405234801561001057600080fd5b50336000806101000a81548173ffffffffffffffffffffffffffffffffffffffff021916908373ffffffffffffffffffffffffffffffffffffffff1602179055506123e6806100606000396000f3fe6080604052600436106100c25760003560e01c80638da5cb5b1161007f578063aa3c2d0711610059578063aa3c2d0714610270578063bfb231d2146102ad578063d96a094a146102f0578063eea8a7e81461030c576100c2565b80638da5cb5b146101df5780638ea6b9c81461020a5780639dfc3dd114610247576100c2565b8063269190ae146100c75780633ccfd60b1461010457806356425b621461010e578063713d856b14610139578063793b8c6d146101765780637a4ee956146101b4575b600080fd5b3480156100d357600080fd5b506100ee60048036038101906100e99190611547565b610335565b6040516100fb9190611583565b60405180910390f35b61010c610359565b005b34801561011a57600080fd5b5061012361044b565b6040516101309190611583565b60405180910390f35b34801561014557600080fd5b50610160600480360381019061015b91906115fc565b610458565b60405161016d9190611583565b60405180910390f35b34801561018257600080fd5b5061019d60048036038101906101989190611629565b610470565b6040516101ab929190611822565b60405180910390f35b3480156101c057600080fd5b506101c9610632565b6040516101d69190611583565b60405180910390f35b3480156101eb57600080fd5b506101f461063f565b6040516102019190611861565b60405180910390f35b34801561021657600080fd5b50610231600480360381019061022c91906119b1565b610663565b60405161023e9190611b5f565b60405180910390f35b34801561025357600080fd5b5061026e60048036038101906102699190611b81565b610a01565b005b34801561027c57600080fd5b5061029760048036038101906102929190611547565b610ac1565b6040516102a49190611583565b60405180910390f35b3480156102b957600080fd5b506102d460048036038101906102cf9190611547565b610ae5565b6040516102e79796959493929190611c1a565b60405180910390f35b61030a60048036038101906103059190611547565b610c44565b005b34801561031857600080fd5b50610333600480360381019061032e9190611c97565b6110f7565b005b6005818154811061034557600080fd5b906000526020600020016000915090505481565b60008054906101000a900473ffffffffffffffffffffffffffffffffffffffff1673ffffffffffffffffffffffffffffffffffffffff163373ffffffffffffffffffffffffffffffffffffffff16146103b157600080fd5b60008060009054906101000a900473ffffffffffffffffffffffffffffffffffffffff1673ffffffffffffffffffffffffffffffffffffffff16476040516103f890611dbe565b60006040518083038185875af1925050503d8060008114610435576040519150601f19603f3d011682016040523d82523d6000602084013e61043a565b606091505b505090508061044857600080fd5b50565b6000600580549050905090565b60036020528060005260406000206000915090505481565b600260205281600052604060002060205280600052604060002060009150915050806000015490806001016040518060e0016040529081600082015481526020016001820180546104c090611e02565b80601f01602080910402602001604051908101604052809291908181526020018280546104ec90611e02565b80156105395780601f1061050e57610100808354040283529160200191610539565b820191906000526020600020905b81548152906001019060200180831161051c57829003601f168201915b505050505081526020016002820160009054906101000a900460ff16600181111561056757610566611708565b5b600181111561057957610578611708565b5b815260200160038201805461058d90611e02565b80601f01602080910402602001604051908101604052809291908181526020018280546105b990611e02565b80156106065780601f106105db57610100808354040283529160200191610606565b820191906000526020600020905b8154815290600101906020018083116105e957829003601f168201915b505050505081526020016004820154815260200160058201548152602001600682015481525050905082565b6000600480549050905090565b60008054906101000a900473ffffffffffffffffffffffffffffffffffffffff1681565b60608060606040518060400160405280600a81526020017f656c656374726f6e6963000000000000000000000000000000000000000000008152508051906020012084805190602001200361070a5760048054806020026020016040519081016040528092919081815260200182805480156106fe57602002820191906000526020600020905b8154815260200190600101908083116106ea575b505050505091506107a9565b6040518060400160405280600481526020017f686f6d6500000000000000000000000000000000000000000000000000000000815250805190602001208480519060200120036107a85760058054806020026020016040519081016040528092919081815260200182805480156107a057602002820191906000526020600020905b81548152602001906001019080831161078c575b505050505091505b5b815167ffffffffffffffff8111156107c4576107c3611886565b5b6040519080825280602002602001820160405280156107fd57816020015b6107ea6114ae565b8152602001906001900390816107e25790505b50905060005b82518110156109f6576001600084838151811061082357610822611e33565b5b602002602001015181526020019081526020016000206040518060e00160405290816000820154815260200160018201805461085e90611e02565b80601f016020809104026020016040519081016040528092919081815260200182805461088a90611e02565b80156108d75780601f106108ac576101008083540402835291602001916108d7565b820191906000526020600020905b8154815290600101906020018083116108ba57829003601f168201915b505050505081526020016002820160009054906101000a900460ff16600181111561090557610904611708565b5b600181111561091757610916611708565b5b815260200160038201805461092b90611e02565b80601f016020809104026020016040519081016040528092919081815260200182805461095790611e02565b80156109a45780601f10610979576101008083540402835291602001916109a4565b820191906000526020600020905b81548152906001019060200180831161098757829003601f168201915b5050505050815260200160048201548152602001600582015481526020016006820154815250508282815181106109de576109dd611e33565b5b60200260200101819052508080600101915050610803565b508092505050919050565b60008054906101000a900473ffffffffffffffffffffffffffffffffffffffff1673ffffffffffffffffffffffffffffffffffffffff163373ffffffffffffffffffffffffffffffffffffffff1614610a5957600080fd5b60008211610a9c576040517f08c379a0000000000000000000000000000000000000000000000000000000008152600401610a9390611eae565b60405180910390fd5b6000600160008481526020019081526020016000209050818160060181905550505050565b60048181548110610ad157600080fd5b906000526020600020016000915090505481565b6001602052806000526040600020600091509050806000015490806001018054610b0e90611e02565b80601f0160208091040260200160405190810160405280929190818152602001828054610b3a90611e02565b8015610b875780601f10610b5c57610100808354040283529160200191610b87565b820191906000526020600020905b815481529060010190602001808311610b6a57829003601f168201915b5050505050908060020160009054906101000a900460ff1690806003018054610baf90611e02565b80601f0160208091040260200160405190810160405280929190818152602001828054610bdb90611e02565b8015610c285780601f10610bfd57610100808354040283529160200191610c28565b820191906000526020600020905b815481529060010190602001808311610c0b57829003601f168201915b5050505050908060040154908060050154908060060154905087565b6000600160008381526020019081526020016000206040518060e001604052908160008201548152602001600182018054610c7e90611e02565b80601f0160208091040260200160405190810160405280929190818152602001828054610caa90611e02565b8015610cf75780601f10610ccc57610100808354040283529160200191610cf7565b820191906000526020600020905b815481529060010190602001808311610cda57829003601f168201915b505050505081526020016002820160009054906101000a900460ff166001811115610d2557610d24611708565b5b6001811115610d3757610d36611708565b5b8152602001600382018054610d4b90611e02565b80601f0160208091040260200160405190810160405280929190818152602001828054610d7790611e02565b8015610dc45780601f10610d9957610100808354040283529160200191610dc4565b820191906000526020600020905b815481529060010190602001808311610da757829003601f168201915b505050505081526020016004820154815260200160058201548152602001600682015481525050905060008160c0015111610dfe57600080fd5b80608001513373ffffffffffffffffffffffffffffffffffffffff16311015610e5c576040517f08c379a0000000000000000000000000000000000000000000000000000000008152600401610e5390611f1a565b60405180910390fd5b60003411610e9f576040517f08c379a0000000000000000000000000000000000000000000000000000000008152600401610e9690611f86565b60405180910390fd5b80608001513414610eaf57600080fd5b60006040518060400160405280428152602001838152509050600360003373ffffffffffffffffffffffffffffffffffffffff1673ffffffffffffffffffffffffffffffffffffffff1681526020019081526020016000206000815480929190610f1890611fd5565b919050555080600260003373ffffffffffffffffffffffffffffffffffffffff1673ffffffffffffffffffffffffffffffffffffffff1681526020019081526020016000206000600360003373ffffffffffffffffffffffffffffffffffffffff1673ffffffffffffffffffffffffffffffffffffffff16815260200190815260200160002054815260200190815260200160002060008201518160000155602082015181600101600082015181600001556020820151816001019081610fdf91906121c9565b5060408201518160020160006101000a81548160ff0219169083600181111561100b5761100a611708565b5b0217905550606082015181600301908161102591906121c9565b506080820151816004015560a0820151816005015560c08201518160060155505090505060018260c0015161105a919061229b565b60016000858152602001908152602001600020600601819055507f1cbc5ab135991bd2b6a4b034a04aa2aa086dac1371cb9b16b8b5e2ed6b036bed33600360003373ffffffffffffffffffffffffffffffffffffffff1673ffffffffffffffffffffffffffffffffffffffff1681526020019081526020016000205484600001516040516110ea939291906122cf565b60405180910390a1505050565b60008054906101000a900473ffffffffffffffffffffffffffffffffffffffff1673ffffffffffffffffffffffffffffffffffffffff163373ffffffffffffffffffffffffffffffffffffffff161461114f57600080fd5b6040518060400160405280600a81526020017f656c656374726f6e69630000000000000000000000000000000000000000000081525080519060200120858051906020012014806111e257506040518060400160405280600481526020017f686f6d6500000000000000000000000000000000000000000000000000000000815250805190602001208580519060200120145b611221576040517f08c379a000000000000000000000000000000000000000000000000000000000815260040161121890612352565b60405180910390fd5b60006040518060400160405280600a81526020017f656c656374726f6e6963000000000000000000000000000000000000000000008152508051906020012086805190602001200361127657600090506112c6565b6040518060400160405280600481526020017f686f6d6500000000000000000000000000000000000000000000000000000000815250805190602001208680519060200120036112c557600190505b5b60006040518060e001604052808a81526020018981526020018360018111156112f2576112f1611708565b5b815260200187815260200186815260200185815260200184815250905080600160008b815260200190815260200160002060008201518160000155602082015181600101908161134291906121c9565b5060408201518160020160006101000a81548160ff0219169083600181111561136e5761136d611708565b5b0217905550606082015181600301908161138891906121c9565b506080820151816004015560a0820151816005015560c082015181600601559050506113b489836113fa565b7ffdbe2a012c10ec01592653978eaa09b5ca60b143a0e617505b2ebcbd911ec5b88886856040516113e793929190612372565b60405180910390a1505050505050505050565b6000600181111561140e5761140d611708565b5b81600181111561142157611420611708565b5b036114545760048290806001815401808255809150506001900390600052602060002001600090919091909150556114aa565b60018081111561146757611466611708565b5b81600181111561147a57611479611708565b5b036114a95760058290806001815401808255809150506001900390600052602060002001600090919091909150555b5b5050565b6040518060e001604052806000815260200160608152602001600060018111156114db576114da611708565b5b8152602001606081526020016000815260200160008152602001600081525090565b6000604051905090565b600080fd5b600080fd5b6000819050919050565b61152481611511565b811461152f57600080fd5b50565b6000813590506115418161151b565b92915050565b60006020828403121561155d5761155c611507565b5b600061156b84828501611532565b91505092915050565b61157d81611511565b82525050565b60006020820190506115986000830184611574565b92915050565b600073ffffffffffffffffffffffffffffffffffffffff82169050919050565b60006115c98261159e565b9050919050565b6115d9816115be565b81146115e457600080fd5b50565b6000813590506115f6816115d0565b92915050565b60006020828403121561161257611611611507565b5b6000611620848285016115e7565b91505092915050565b600080604083850312156116405761163f611507565b5b600061164e858286016115e7565b925050602061165f85828601611532565b9150509250929050565b61167281611511565b82525050565b600081519050919050565b600082825260208201905092915050565b60005b838110156116b2578082015181840152602081019050611697565b60008484015250505050565b6000601f19601f8301169050919050565b60006116da82611678565b6116e48185611683565b93506116f4818560208601611694565b6116fd816116be565b840191505092915050565b7f4e487b7100000000000000000000000000000000000000000000000000000000600052602160045260246000fd5b6002811061174857611747611708565b5b50565b600081905061175982611737565b919050565b60006117698261174b565b9050919050565b6117798161175e565b82525050565b600060e0830160008301516117976000860182611669565b50602083015184820360208601526117af82826116cf565b91505060408301516117c46040860182611770565b50606083015184820360608601526117dc82826116cf565b91505060808301516117f16080860182611669565b5060a083015161180460a0860182611669565b5060c083015161181760c0860182611669565b508091505092915050565b60006040820190506118376000830185611574565b8181036020830152611849818461177f565b90509392505050565b61185b816115be565b82525050565b60006020820190506118766000830184611852565b92915050565b600080fd5b600080fd5b7f4e487b7100000000000000000000000000000000000000000000000000000000600052604160045260246000fd5b6118be826116be565b810181811067ffffffffffffffff821117156118dd576118dc611886565b5b80604052505050565b60006118f06114fd565b90506118fc82826118b5565b919050565b600067ffffffffffffffff82111561191c5761191b611886565b5b611925826116be565b9050602081019050919050565b82818337600083830152505050565b600061195461194f84611901565b6118e6565b9050828152602081018484840111156119705761196f611881565b5b61197b848285611932565b509392505050565b600082601f8301126119985761199761187c565b5b81356119a8848260208601611941565b91505092915050565b6000602082840312156119c7576119c6611507565b5b600082013567ffffffffffffffff8111156119e5576119e461150c565b5b6119f184828501611983565b91505092915050565b600081519050919050565b600082825260208201905092915050565b6000819050602082019050919050565b600060e083016000830151611a3e6000860182611669565b5060208301518482036020860152611a5682826116cf565b9150506040830151611a6b6040860182611770565b5060608301518482036060860152611a8382826116cf565b9150506080830151611a986080860182611669565b5060a0830151611aab60a0860182611669565b5060c0830151611abe60c0860182611669565b508091505092915050565b6000611ad58383611a26565b905092915050565b6000602082019050919050565b6000611af5826119fa565b611aff8185611a05565b935083602082028501611b1185611a16565b8060005b85811015611b4d5784840389528151611b2e8582611ac9565b9450611b3983611add565b925060208a01995050600181019050611b15565b50829750879550505050505092915050565b60006020820190508181036000830152611b798184611aea565b905092915050565b60008060408385031215611b9857611b97611507565b5b6000611ba685828601611532565b9250506020611bb785828601611532565b9150509250929050565b600082825260208201905092915050565b6000611bdd82611678565b611be78185611bc1565b9350611bf7818560208601611694565b611c00816116be565b840191505092915050565b611c148161175e565b82525050565b600060e082019050611c2f600083018a611574565b8181036020830152611c418189611bd2565b9050611c506040830188611c0b565b8181036060830152611c628187611bd2565b9050611c716080830186611574565b611c7e60a0830185611574565b611c8b60c0830184611574565b98975050505050505050565b600080600080600080600060e0888a031215611cb657611cb5611507565b5b6000611cc48a828b01611532565b975050602088013567ffffffffffffffff811115611ce557611ce461150c565b5b611cf18a828b01611983565b965050604088013567ffffffffffffffff811115611d1257611d1161150c565b5b611d1e8a828b01611983565b955050606088013567ffffffffffffffff811115611d3f57611d3e61150c565b5b611d4b8a828b01611983565b9450506080611d5c8a828b01611532565b93505060a0611d6d8a828b01611532565b92505060c0611d7e8a828b01611532565b91505092959891949750929550565b600081905092915050565b50565b6000611da8600083611d8d565b9150611db382611d98565b600082019050919050565b6000611dc982611d9b565b9150819050919050565b7f4e487b7100000000000000000000000000000000000000000000000000000000600052602260045260246000fd5b60006002820490506001821680611e1a57607f821691505b602082108103611e2d57611e2c611dd3565b5b50919050565b7f4e487b7100000000000000000000000000000000000000000000000000000000600052603260045260246000fd5b7f696e76616c696420494400000000000000000000000000000000000000000000600082015250565b6000611e98600a83611bc1565b9150611ea382611e62565b602082019050919050565b60006020820190508181036000830152611ec781611e8b565b9050919050565b7f496e73756666696369656e742062616c616e636520746f20627579206974656d600082015250565b6000611f04602083611bc1565b9150611f0f82611ece565b602082019050919050565b60006020820190508181036000830152611f3381611ef7565b9050919050565b7f696e76616c69642076616c756500000000000000000000000000000000000000600082015250565b6000611f70600d83611bc1565b9150611f7b82611f3a565b602082019050919050565b60006020820190508181036000830152611f9f81611f63565b9050919050565b7f4e487b7100000000000000000000000000000000000000000000000000000000600052601160045260246000fd5b6000611fe082611511565b91507fffffffffffffffffffffffffffffffffffffffffffffffffffffffffffffffff820361201257612011611fa6565b5b600182019050919050565b60008190508160005260206000209050919050565b60006020601f8301049050919050565b600082821b905092915050565b60006008830261207f7fffffffffffffffffffffffffffffffffffffffffffffffffffffffffffffffff82612042565b6120898683612042565b95508019841693508086168417925050509392505050565b6000819050919050565b60006120c66120c16120bc84611511565b6120a1565b611511565b9050919050565b6000819050919050565b6120e0836120ab565b6120f46120ec826120cd565b84845461204f565b825550505050565b600090565b6121096120fc565b6121148184846120d7565b505050565b5b818110156121385761212d600082612101565b60018101905061211a565b5050565b601f82111561217d5761214e8161201d565b61215784612032565b81016020851015612166578190505b61217a61217285612032565b830182612119565b50505b505050565b600082821c905092915050565b60006121a060001984600802612182565b1980831691505092915050565b60006121b9838361218f565b9150826002028217905092915050565b6121d282611678565b67ffffffffffffffff8111156121eb576121ea611886565b5b6121f58254611e02565b61220082828561213c565b600060209050601f8311600181146122335760008415612221578287015190505b61222b85826121ad565b865550612293565b601f1984166122418661201d565b60005b8281101561226957848901518255600182019150602085019450602081019050612244565b868310156122865784890151612282601f89168261218f565b8355505b6001600288020188555050505b505050505050565b60006122a682611511565b91506122b183611511565b92508282039050818111156122c9576122c8611fa6565b5b92915050565b60006060820190506122e46000830186611852565b6122f16020830185611574565b6122fe6040830184611574565b949350505050565b7f496e76616c69642063617465676f727900000000000000000000000000000000600082015250565b600061233c601083611bc1565b915061234782612306565b602082019050919050565b6000602082019050818103600083015261236b8161232f565b9050919050565b6000606082019050818103600083015261238c8186611bd2565b905061239b6020830185611574565b6123a86040830184611574565b94935050505056fea26469706673582212204beda86b78a9ed0580da462f392a7d16f808a0425f79045f28a838f5df2da6ec64736f6c63430008180033",
  "linkReferences": {},
  "deployedLinkReferences": {}
}