{
  "_format": "hh-sol-artifact-1",
  "contractName": "Crowdfunding",
  "sourceName": "contracts/crowdfunding.sol",
  "abi": [
    {
      "inputs": [
        {
          "internalType": "address",
          "name": "_certificateNFTs",
          "type": "address"
        }
      ],
      "stateMutability": "nonpayable",
      "type": "constructor"
    },
    {
      "anonymous": false,
      "inputs": [],
      "name": "CampaignCreatedEvent",
      "type": "event"
    },
    {
      "anonymous": false,
      "inputs": [],
      "name": "CampaignReviewEvent",
      "type": "event"
    },
    {
      "anonymous": false,
      "inputs": [],
      "name": "CampaignUpdatedEvent",
      "type": "event"
    },
    {
      "anonymous": false,
      "inputs": [],
      "name": "DonativeAddedEvent",
      "type": "event"
    },
    {
      "inputs": [
        {
          "internalType": "bytes32",
          "name": "campaignId",
          "type": "bytes32"
        }
      ],
      "name": "addDonative",
      "outputs": [],
      "stateMutability": "payable",
      "type": "function"
    },
    {
      "inputs": [
        {
          "internalType": "string",
          "name": "_title",
          "type": "string"
        },
        {
          "internalType": "string",
          "name": "_description",
          "type": "string"
        },
        {
          "internalType": "uint256",
          "name": "_expectedAmount",
          "type": "uint256"
        }
      ],
      "name": "createCampaign",
      "outputs": [],
      "stateMutability": "nonpayable",
      "type": "function"
    },
    {
      "inputs": [],
      "name": "getAllCampaigns",
      "outputs": [
        {
          "components": [
            {
              "internalType": "bytes32",
              "name": "Id",
              "type": "bytes32"
            },
            {
              "internalType": "string",
              "name": "title",
              "type": "string"
            },
            {
              "internalType": "string",
              "name": "description",
              "type": "string"
            },
            {
              "internalType": "uint256",
              "name": "expectedAmount",
              "type": "uint256"
            },
            {
              "internalType": "uint256",
              "name": "amount",
              "type": "uint256"
            },
            {
              "internalType": "address",
              "name": "owner",
              "type": "address"
            },
            {
              "internalType": "uint256",
              "name": "startDate",
              "type": "uint256"
            },
            {
              "internalType": "uint256",
              "name": "endDate",
              "type": "uint256"
            },
            {
              "internalType": "bool",
              "name": "isActive",
              "type": "bool"
            },
            {
              "internalType": "bool",
              "name": "completed",
              "type": "bool"
            }
          ],
          "internalType": "struct Crowdfunding.Campaign[]",
          "name": "",
          "type": "tuple[]"
        }
      ],
      "stateMutability": "view",
      "type": "function"
    },
    {
      "inputs": [
        {
          "internalType": "bytes32",
          "name": "campaignId",
          "type": "bytes32"
        }
      ],
      "name": "getCampaignInfo",
      "outputs": [
        {
          "components": [
            {
              "internalType": "bytes32",
              "name": "Id",
              "type": "bytes32"
            },
            {
              "internalType": "string",
              "name": "title",
              "type": "string"
            },
            {
              "internalType": "string",
              "name": "description",
              "type": "string"
            },
            {
              "internalType": "uint256",
              "name": "expectedAmount",
              "type": "uint256"
            },
            {
              "internalType": "uint256",
              "name": "amount",
              "type": "uint256"
            },
            {
              "internalType": "address",
              "name": "owner",
              "type": "address"
            },
            {
              "internalType": "uint256",
              "name": "startDate",
              "type": "uint256"
            },
            {
              "internalType": "uint256",
              "name": "endDate",
              "type": "uint256"
            },
            {
              "internalType": "bool",
              "name": "isActive",
              "type": "bool"
            },
            {
              "internalType": "bool",
              "name": "completed",
              "type": "bool"
            }
          ],
          "internalType": "struct Crowdfunding.Campaign",
          "name": "",
          "type": "tuple"
        }
      ],
      "stateMutability": "view",
      "type": "function"
    },
    {
      "inputs": [
        {
          "internalType": "bytes32",
          "name": "campaignId",
          "type": "bytes32"
        }
      ],
      "name": "getDonatives",
      "outputs": [
        {
          "components": [
            {
              "internalType": "address",
              "name": "donner",
              "type": "address"
            },
            {
              "internalType": "uint256",
              "name": "quantity",
              "type": "uint256"
            },
            {
              "internalType": "uint256",
              "name": "endDate",
              "type": "uint256"
            }
          ],
          "internalType": "struct Crowdfunding.Donative[]",
          "name": "",
          "type": "tuple[]"
        }
      ],
      "stateMutability": "view",
      "type": "function"
    },
    {
      "inputs": [],
      "name": "platformOwner",
      "outputs": [
        {
          "internalType": "address",
          "name": "",
          "type": "address"
        }
      ],
      "stateMutability": "view",
      "type": "function"
    },
    {
      "inputs": [],
      "name": "reviewCampaignsJob",
      "outputs": [],
      "stateMutability": "nonpayable",
      "type": "function"
    },
    {
      "inputs": [
        {
          "internalType": "bytes32",
          "name": "campaignId",
          "type": "bytes32"
        },
        {
          "internalType": "string",
          "name": "_title",
          "type": "string"
        },
        {
          "internalType": "string",
          "name": "_description",
          "type": "string"
        },
        {
          "internalType": "uint256",
          "name": "_expectedAmount",
          "type": "uint256"
        }
      ],
      "name": "updateCampaign",
      "outputs": [],
      "stateMutability": "nonpayable",
      "type": "function"
    }
  ],
  "bytecode": "0x60806040523480156200001157600080fd5b5060405162002fa838038062002fa8833981810160405281019062000037919062000131565b600360028190555033600160006101000a81548173ffffffffffffffffffffffffffffffffffffffff021916908373ffffffffffffffffffffffffffffffffffffffff160217905550806000806101000a81548173ffffffffffffffffffffffffffffffffffffffff021916908373ffffffffffffffffffffffffffffffffffffffff1602179055505062000163565b600080fd5b600073ffffffffffffffffffffffffffffffffffffffff82169050919050565b6000620000f982620000cc565b9050919050565b6200010b81620000ec565b81146200011757600080fd5b50565b6000815190506200012b8162000100565b92915050565b6000602082840312156200014a5762000149620000c7565b5b60006200015a848285016200011a565b91505092915050565b612e3580620001736000396000f3fe60806040526004361061007b5760003560e01c806386cdf6041161004e57806386cdf6041461012d578063b0f987d114610158578063b999be1b1461016f578063ffa56a57146101ac5761007b565b80634df8ccb1146100805780635a027880146100ab57806361988c55146100c75780637427ee59146100f0575b600080fd5b34801561008c57600080fd5b506100956101d5565b6040516100a29190611a3b565b60405180910390f35b6100c560048036038101906100c09190611aa0565b6101fb565b005b3480156100d357600080fd5b506100ee60048036038101906100e99190611c49565b6104cf565b005b3480156100fc57600080fd5b5061011760048036038101906101129190611aa0565b61075c565b6040516101249190611df7565b60405180910390f35b34801561013957600080fd5b50610142610a87565b60405161014f9190612065565b60405180910390f35b34801561016457600080fd5b5061016d610d48565b005b34801561017b57600080fd5b5061019660048036038101906101919190611aa0565b61140d565b6040516101a39190612168565b60405180910390f35b3480156101b857600080fd5b506101d360048036038101906101ce919061218a565b61166c565b005b600160009054906101000a900473ffffffffffffffffffffffffffffffffffffffff1681565b6000341161023e576040517f08c379a000000000000000000000000000000000000000000000000000000000815260040161023590612272565b60405180910390fd5b3373ffffffffffffffffffffffffffffffffffffffff1631341115610298576040517f08c379a000000000000000000000000000000000000000000000000000000000815260040161028f90612304565b60405180910390fd5b6000801b81036102dd576040517f08c379a00000000000000000000000000000000000000000000000000000000081526004016102d490612370565b60405180910390fd5b6003600082815260200190815260200160002060080160019054906101000a900460ff1615610341576040517f08c379a000000000000000000000000000000000000000000000000000000000815260040161033890612402565b60405180910390fd5b6000801b60036000838152602001908152602001600020600001540361039c576040517f08c379a00000000000000000000000000000000000000000000000000000000081526004016103939061246e565b60405180910390fd5b600060405180606001604052803373ffffffffffffffffffffffffffffffffffffffff1681526020013481526020014281525090506006600083815260200190815260200160002081908060018154018082558091505060019003906000526020600020906003020160009091909190915060008201518160000160006101000a81548173ffffffffffffffffffffffffffffffffffffffff021916908373ffffffffffffffffffffffffffffffffffffffff1602179055506020820151816001015560408201518160020155505060006003600084815260200190815260200160002090503481600401600082825461049691906124bd565b9250508190555080600301548160040154106104ca5760018160080160016101000a81548160ff0219169083151502179055505b505050565b6000801b8403610514576040517f08c379a000000000000000000000000000000000000000000000000000000000815260040161050b90612370565b60405180910390fd5b60006003600086815260200190815260200160002090506000801b816000015403610574576040517f08c379a000000000000000000000000000000000000000000000000000000000815260040161056b9061246e565b60405180910390fd5b8060080160019054906101000a900460ff16156105c6576040517f08c379a00000000000000000000000000000000000000000000000000000000081526004016105bd90612402565b60405180910390fd5b8060080160009054906101000a900460ff16610617576040517f08c379a000000000000000000000000000000000000000000000000000000000815260040161060e9061253d565b60405180910390fd5b600084510361065b576040517f08c379a0000000000000000000000000000000000000000000000000000000008152600401610652906125a9565b60405180910390fd5b600083510361069f576040517f08c379a000000000000000000000000000000000000000000000000000000000815260040161069690612615565b60405180910390fd5b600082116106e2576040517f08c379a00000000000000000000000000000000000000000000000000000000081526004016106d990612681565b60405180910390fd5b80600401548211610728576040517f08c379a000000000000000000000000000000000000000000000000000000000815260040161071f90612713565b60405180910390fd5b83816001019081610739919061293f565b508281600201908161074b919061293f565b508181600301819055505050505050565b6060600060036000848152602001908152602001600020604051806101400160405290816000820154815260200160018201805461079990612762565b80601f01602080910402602001604051908101604052809291908181526020018280546107c590612762565b80156108125780601f106107e757610100808354040283529160200191610812565b820191906000526020600020905b8154815290600101906020018083116107f557829003601f168201915b5050505050815260200160028201805461082b90612762565b80601f016020809104026020016040519081016040528092919081815260200182805461085790612762565b80156108a45780601f10610879576101008083540402835291602001916108a4565b820191906000526020600020905b81548152906001019060200180831161088757829003601f168201915b5050505050815260200160038201548152602001600482015481526020016005820160009054906101000a900473ffffffffffffffffffffffffffffffffffffffff1673ffffffffffffffffffffffffffffffffffffffff1673ffffffffffffffffffffffffffffffffffffffff16815260200160068201548152602001600782015481526020016008820160009054906101000a900460ff161515151581526020016008820160019054906101000a900460ff16151515158152505090506000801b8160000151036109ac576040517f08c379a00000000000000000000000000000000000000000000000000000000081526004016109a39061246e565b60405180910390fd5b60066000848152602001908152602001600020805480602002602001604051908101604052809291908181526020016000905b82821015610a7b57838290600052602060002090600302016040518060600160405290816000820160009054906101000a900473ffffffffffffffffffffffffffffffffffffffff1673ffffffffffffffffffffffffffffffffffffffff1673ffffffffffffffffffffffffffffffffffffffff16815260200160018201548152602001600282015481525050815260200190600101906109df565b50505050915050919050565b6060600060048054905067ffffffffffffffff811115610aaa57610aa9611ae8565b5b604051908082528060200260200182016040528015610ae357816020015b610ad061198a565b815260200190600190039081610ac85790505b50905060005b600480549050811015610d40576003600060048381548110610b0e57610b0d612a11565b5b906000526020600020015481526020019081526020016000206040518061014001604052908160008201548152602001600182018054610b4d90612762565b80601f0160208091040260200160405190810160405280929190818152602001828054610b7990612762565b8015610bc65780601f10610b9b57610100808354040283529160200191610bc6565b820191906000526020600020905b815481529060010190602001808311610ba957829003601f168201915b50505050508152602001600282018054610bdf90612762565b80601f0160208091040260200160405190810160405280929190818152602001828054610c0b90612762565b8015610c585780601f10610c2d57610100808354040283529160200191610c58565b820191906000526020600020905b815481529060010190602001808311610c3b57829003601f168201915b5050505050815260200160038201548152602001600482015481526020016005820160009054906101000a900473ffffffffffffffffffffffffffffffffffffffff1673ffffffffffffffffffffffffffffffffffffffff1673ffffffffffffffffffffffffffffffffffffffff16815260200160068201548152602001600782015481526020016008820160009054906101000a900460ff161515151581526020016008820160019054906101000a900460ff161515151581525050828281518110610d2857610d27612a11565b5b60200260200101819052508080600101915050610ae9565b508091505090565b600160009054906101000a900473ffffffffffffffffffffffffffffffffffffffff1673ffffffffffffffffffffffffffffffffffffffff163373ffffffffffffffffffffffffffffffffffffffff1614610da257600080fd5b600042905060005b6004805490508110156114095760006003600060048481548110610dd157610dd0612a11565b5b906000526020600020015481526020019081526020016000209050806007015483101580610e0757508060030154816004015410155b156111d85760008160080160006101000a81548160ff021916908315150217905550600060646002548360040154610e3f9190612a40565b610e499190612ab1565b90506000818360040154610e5d9190612ae2565b905060008360050160009054906101000a900473ffffffffffffffffffffffffffffffffffffffff1673ffffffffffffffffffffffffffffffffffffffff1682604051610ea990612b47565b60006040518083038185875af1925050503d8060008114610ee6576040519150601f19603f3d011682016040523d82523d6000602084013e610eeb565b606091505b5050905080610f2f576040517f08c379a0000000000000000000000000000000000000000000000000000000008152600401610f2690612ba8565b60405180910390fd5b60006006600086600001548152602001908152602001600020805480602002602001604051908101604052809291908181526020016000905b8282101561100457838290600052602060002090600302016040518060600160405290816000820160009054906101000a900473ffffffffffffffffffffffffffffffffffffffff1673ffffffffffffffffffffffffffffffffffffffff1673ffffffffffffffffffffffffffffffffffffffff1681526020016001820154815260200160028201548152505081526020019060010190610f68565b50505050905060005b81518110156111d25760006040518060400160405280600f81526020017f736f6d652d76616c75652d686572650000000000000000000000000000000000815250905060008060009054906101000a900473ffffffffffffffffffffffffffffffffffffffff1673ffffffffffffffffffffffffffffffffffffffff1663d0def5218585815181106110a2576110a1612a11565b5b602002602001015160000151846040518363ffffffff1660e01b81526004016110cc929190612c01565b6020604051808303816000875af11580156110eb573d6000803e3d6000fd5b505050506040513d601f19601f8201168201806040525081019061110f9190612c46565b905060008054906101000a900473ffffffffffffffffffffffffffffffffffffffff1673ffffffffffffffffffffffffffffffffffffffff1663dab08d5c8585815181106111605761115f612a11565b5b60200260200101516000015183858c6001016040518563ffffffff1660e01b81526004016111919493929190612d06565b600060405180830381600087803b1580156111ab57600080fd5b505af11580156111bf573d6000803e3d6000fd5b505050505050808060010191505061100d565b50505050505b806007015483101580156111f3575080600301548160040154105b156113fb5760008160080160006101000a81548160ff02191690831515021790555060006006600083600001548152602001908152602001600020805480602002602001604051908101604052809291908181526020016000905b828210156112ea57838290600052602060002090600302016040518060600160405290816000820160009054906101000a900473ffffffffffffffffffffffffffffffffffffffff1673ffffffffffffffffffffffffffffffffffffffff1673ffffffffffffffffffffffffffffffffffffffff168152602001600182015481526020016002820154815250508152602001906001019061124e565b50505050905060005b81518110156113f857600082828151811061131157611310612a11565b5b602002602001015160000151905060008173ffffffffffffffffffffffffffffffffffffffff1684848151811061134b5761134a612a11565b5b60200260200101516020015160405161136390612b47565b60006040518083038185875af1925050503d80600081146113a0576040519150601f19603f3d011682016040523d82523d6000602084013e6113a5565b606091505b50509050806113e9576040517f08c379a00000000000000000000000000000000000000000000000000000000081526004016113e090612ba8565b60405180910390fd5b505080806001019150506112f3565b50505b508080600101915050610daa565b5050565b61141561198a565b600060036000848152602001908152602001600020604051806101400160405290816000820154815260200160018201805461145090612762565b80601f016020809104026020016040519081016040528092919081815260200182805461147c90612762565b80156114c95780601f1061149e576101008083540402835291602001916114c9565b820191906000526020600020905b8154815290600101906020018083116114ac57829003601f168201915b505050505081526020016002820180546114e290612762565b80601f016020809104026020016040519081016040528092919081815260200182805461150e90612762565b801561155b5780601f106115305761010080835404028352916020019161155b565b820191906000526020600020905b81548152906001019060200180831161153e57829003601f168201915b5050505050815260200160038201548152602001600482015481526020016005820160009054906101000a900473ffffffffffffffffffffffffffffffffffffffff1673ffffffffffffffffffffffffffffffffffffffff1673ffffffffffffffffffffffffffffffffffffffff16815260200160068201548152602001600782015481526020016008820160009054906101000a900460ff161515151581526020016008820160019054906101000a900460ff16151515158152505090506000801b816000015103611663576040517f08c379a000000000000000000000000000000000000000000000000000000000815260040161165a9061246e565b60405180910390fd5b80915050919050565b60008351036116b0576040517f08c379a00000000000000000000000000000000000000000000000000000000081526004016116a7906125a9565b60405180910390fd5b60008251036116f4576040517f08c379a00000000000000000000000000000000000000000000000000000000081526004016116eb90612615565b60405180910390fd5b60008111611737576040517f08c379a000000000000000000000000000000000000000000000000000000000815260040161172e90612681565b60405180910390fd5b6000611741611958565b90506000429050600062278d008261175991906124bd565b90506000604051806101400160405280858152602001888152602001878152602001868152602001600081526020013373ffffffffffffffffffffffffffffffffffffffff16815260200184815260200183815260200160011515815260200160001515815250905080600360008681526020019081526020016000206000820151816000015560208201518160010190816117f5919061293f565b50604082015181600201908161180b919061293f565b50606082015181600301556080820151816004015560a08201518160050160006101000a81548173ffffffffffffffffffffffffffffffffffffffff021916908373ffffffffffffffffffffffffffffffffffffffff16021790555060c0820151816006015560e082015181600701556101008201518160080160006101000a81548160ff0219169083151502179055506101208201518160080160016101000a81548160ff021916908315150217905550905050600560003373ffffffffffffffffffffffffffffffffffffffff1673ffffffffffffffffffffffffffffffffffffffff168152602001908152602001600020849080600181540180825580915050600190039060005260206000200160009091909190915055600484908060018154018082558091505060019003906000526020600020016000909190919091505550505050505050565b600042334460405160200161196f93929190612dc2565b60405160208183030381529060405280519060200120905090565b6040518061014001604052806000801916815260200160608152602001606081526020016000815260200160008152602001600073ffffffffffffffffffffffffffffffffffffffff16815260200160008152602001600081526020016000151581526020016000151581525090565b600073ffffffffffffffffffffffffffffffffffffffff82169050919050565b6000611a25826119fa565b9050919050565b611a3581611a1a565b82525050565b6000602082019050611a506000830184611a2c565b92915050565b6000604051905090565b600080fd5b600080fd5b6000819050919050565b611a7d81611a6a565b8114611a8857600080fd5b50565b600081359050611a9a81611a74565b92915050565b600060208284031215611ab657611ab5611a60565b5b6000611ac484828501611a8b565b91505092915050565b600080fd5b600080fd5b6000601f19601f8301169050919050565b7f4e487b7100000000000000000000000000000000000000000000000000000000600052604160045260246000fd5b611b2082611ad7565b810181811067ffffffffffffffff82111715611b3f57611b3e611ae8565b5b80604052505050565b6000611b52611a56565b9050611b5e8282611b17565b919050565b600067ffffffffffffffff821115611b7e57611b7d611ae8565b5b611b8782611ad7565b9050602081019050919050565b82818337600083830152505050565b6000611bb6611bb184611b63565b611b48565b905082815260208101848484011115611bd257611bd1611ad2565b5b611bdd848285611b94565b509392505050565b600082601f830112611bfa57611bf9611acd565b5b8135611c0a848260208601611ba3565b91505092915050565b6000819050919050565b611c2681611c13565b8114611c3157600080fd5b50565b600081359050611c4381611c1d565b92915050565b60008060008060808587031215611c6357611c62611a60565b5b6000611c7187828801611a8b565b945050602085013567ffffffffffffffff811115611c9257611c91611a65565b5b611c9e87828801611be5565b935050604085013567ffffffffffffffff811115611cbf57611cbe611a65565b5b611ccb87828801611be5565b9250506060611cdc87828801611c34565b91505092959194509250565b600081519050919050565b600082825260208201905092915050565b6000819050602082019050919050565b611d1d81611a1a565b82525050565b611d2c81611c13565b82525050565b606082016000820151611d486000850182611d14565b506020820151611d5b6020850182611d23565b506040820151611d6e6040850182611d23565b50505050565b6000611d808383611d32565b60608301905092915050565b6000602082019050919050565b6000611da482611ce8565b611dae8185611cf3565b9350611db983611d04565b8060005b83811015611dea578151611dd18882611d74565b9750611ddc83611d8c565b925050600181019050611dbd565b5085935050505092915050565b60006020820190508181036000830152611e118184611d99565b905092915050565b600081519050919050565b600082825260208201905092915050565b6000819050602082019050919050565b611e4e81611a6a565b82525050565b600081519050919050565b600082825260208201905092915050565b60005b83811015611e8e578082015181840152602081019050611e73565b60008484015250505050565b6000611ea582611e54565b611eaf8185611e5f565b9350611ebf818560208601611e70565b611ec881611ad7565b840191505092915050565b60008115159050919050565b611ee881611ed3565b82525050565b600061014083016000830151611f076000860182611e45565b5060208301518482036020860152611f1f8282611e9a565b91505060408301518482036040860152611f398282611e9a565b9150506060830151611f4e6060860182611d23565b506080830151611f616080860182611d23565b5060a0830151611f7460a0860182611d14565b5060c0830151611f8760c0860182611d23565b5060e0830151611f9a60e0860182611d23565b50610100830151611faf610100860182611edf565b50610120830151611fc4610120860182611edf565b508091505092915050565b6000611fdb8383611eee565b905092915050565b6000602082019050919050565b6000611ffb82611e19565b6120058185611e24565b93508360208202850161201785611e35565b8060005b8581101561205357848403895281516120348582611fcf565b945061203f83611fe3565b925060208a0199505060018101905061201b565b50829750879550505050505092915050565b6000602082019050818103600083015261207f8184611ff0565b905092915050565b6000610140830160008301516120a06000860182611e45565b50602083015184820360208601526120b88282611e9a565b915050604083015184820360408601526120d28282611e9a565b91505060608301516120e76060860182611d23565b5060808301516120fa6080860182611d23565b5060a083015161210d60a0860182611d14565b5060c083015161212060c0860182611d23565b5060e083015161213360e0860182611d23565b50610100830151612148610100860182611edf565b5061012083015161215d610120860182611edf565b508091505092915050565b600060208201905081810360008301526121828184612087565b905092915050565b6000806000606084860312156121a3576121a2611a60565b5b600084013567ffffffffffffffff8111156121c1576121c0611a65565b5b6121cd86828701611be5565b935050602084013567ffffffffffffffff8111156121ee576121ed611a65565b5b6121fa86828701611be5565b925050604061220b86828701611c34565b9150509250925092565b600082825260208201905092915050565b7f496e636f727265637420646f6e61746976650000000000000000000000000000600082015250565b600061225c601283612215565b915061226782612226565b602082019050919050565b6000602082019050818103600083015261228b8161224f565b9050919050565b7f496e73756666696369656e742062616c616e636520666f7220646f6e6174696f60008201527f6e00000000000000000000000000000000000000000000000000000000000000602082015250565b60006122ee602183612215565b91506122f982612292565b604082019050919050565b6000602082019050818103600083015261231d816122e1565b9050919050565b7f43616d706169676e2049442063616e6e6f74206265207a65726f000000000000600082015250565b600061235a601a83612215565b915061236582612324565b602082019050919050565b600060208201905081810360008301526123898161234d565b9050919050565b7f43616d706169676e20616c72656164792072656163682074686520657870656360008201527f74656420616d6f756e7400000000000000000000000000000000000000000000602082015250565b60006123ec602a83612215565b91506123f782612390565b604082019050919050565b6000602082019050818103600083015261241b816123df565b9050919050565b7f496e76616c696420494400000000000000000000000000000000000000000000600082015250565b6000612458600a83612215565b915061246382612422565b602082019050919050565b600060208201905081810360008301526124878161244b565b9050919050565b7f4e487b7100000000000000000000000000000000000000000000000000000000600052601160045260246000fd5b60006124c882611c13565b91506124d383611c13565b92508282019050808211156124eb576124ea61248e565b5b92915050565b7f43616d706169676e20697320696e616374697665000000000000000000000000600082015250565b6000612527601483612215565b9150612532826124f1565b602082019050919050565b600060208201905081810360008301526125568161251a565b9050919050565b7f7469746c652063616e206e6f7420626520656d70747900000000000000000000600082015250565b6000612593601683612215565b915061259e8261255d565b602082019050919050565b600060208201905081810360008301526125c281612586565b9050919050565b7f6465736372697074696f6e2063616e206e6f7420626520656d70747900000000600082015250565b60006125ff601c83612215565b915061260a826125c9565b602082019050919050565b6000602082019050818103600083015261262e816125f2565b9050919050565b7f616d6f756e742063616e206e6f74206265206e65676174697665000000000000600082015250565b600061266b601a83612215565b915061267682612635565b602082019050919050565b6000602082019050818103600083015261269a8161265e565b9050919050565b7f457870656374656420616d6f756e742063616e206e6f74206265206c6573732060008201527f7468616e207468652063757272656e7420616d6d6f756e740000000000000000602082015250565b60006126fd603883612215565b9150612708826126a1565b604082019050919050565b6000602082019050818103600083015261272c816126f0565b9050919050565b7f4e487b7100000000000000000000000000000000000000000000000000000000600052602260045260246000fd5b6000600282049050600182168061277a57607f821691505b60208210810361278d5761278c612733565b5b50919050565b60008190508160005260206000209050919050565b60006020601f8301049050919050565b600082821b905092915050565b6000600883026127f57fffffffffffffffffffffffffffffffffffffffffffffffffffffffffffffffff826127b8565b6127ff86836127b8565b95508019841693508086168417925050509392505050565b6000819050919050565b600061283c61283761283284611c13565b612817565b611c13565b9050919050565b6000819050919050565b61285683612821565b61286a61286282612843565b8484546127c5565b825550505050565b600090565b61287f612872565b61288a81848461284d565b505050565b5b818110156128ae576128a3600082612877565b600181019050612890565b5050565b601f8211156128f3576128c481612793565b6128cd846127a8565b810160208510156128dc578190505b6128f06128e8856127a8565b83018261288f565b50505b505050565b600082821c905092915050565b6000612916600019846008026128f8565b1980831691505092915050565b600061292f8383612905565b9150826002028217905092915050565b61294882611e54565b67ffffffffffffffff81111561296157612960611ae8565b5b61296b8254612762565b6129768282856128b2565b600060209050601f8311600181146129a95760008415612997578287015190505b6129a18582612923565b865550612a09565b601f1984166129b786612793565b60005b828110156129df578489015182556001820191506020850194506020810190506129ba565b868310156129fc57848901516129f8601f891682612905565b8355505b6001600288020188555050505b505050505050565b7f4e487b7100000000000000000000000000000000000000000000000000000000600052603260045260246000fd5b6000612a4b82611c13565b9150612a5683611c13565b9250828202612a6481611c13565b91508282048414831517612a7b57612a7a61248e565b5b5092915050565b7f4e487b7100000000000000000000000000000000000000000000000000000000600052601260045260246000fd5b6000612abc82611c13565b9150612ac783611c13565b925082612ad757612ad6612a82565b5b828204905092915050565b6000612aed82611c13565b9150612af883611c13565b9250828203905081811115612b1057612b0f61248e565b5b92915050565b600081905092915050565b50565b6000612b31600083612b16565b9150612b3c82612b21565b600082019050919050565b6000612b5282612b24565b9150819050919050565b7f5472616e73666572206661696c65640000000000000000000000000000000000600082015250565b6000612b92600f83612215565b9150612b9d82612b5c565b602082019050919050565b60006020820190508181036000830152612bc181612b85565b9050919050565b6000612bd382611e54565b612bdd8185612215565b9350612bed818560208601611e70565b612bf681611ad7565b840191505092915050565b6000604082019050612c166000830185611a2c565b8181036020830152612c288184612bc8565b90509392505050565b600081519050612c4081611c1d565b92915050565b600060208284031215612c5c57612c5b611a60565b5b6000612c6a84828501612c31565b91505092915050565b612c7c81611c13565b82525050565b60008154612c8f81612762565b612c998186612215565b94506001821660008114612cb45760018114612cca57612cfd565b60ff198316865281151560200286019350612cfd565b612cd385612793565b60005b83811015612cf557815481890152600182019150602081019050612cd6565b808801955050505b50505092915050565b6000608082019050612d1b6000830187611a2c565b612d286020830186612c73565b8181036040830152612d3a8185612bc8565b90508181036060830152612d4e8184612c82565b905095945050505050565b6000819050919050565b612d74612d6f82611c13565b612d59565b82525050565b60008160601b9050919050565b6000612d9282612d7a565b9050919050565b6000612da482612d87565b9050919050565b612dbc612db782611a1a565b612d99565b82525050565b6000612dce8286612d63565b602082019150612dde8285612dab565b601482019150612dee8284612d63565b60208201915081905094935050505056fea26469706673582212209f4d7d5c08b0ca48dd41adf4baeef7a00462f8f7c510576c19478613cfed9d2c64736f6c63430008180033",
  "linkReferences": {},
  "deployedLinkReferences": {}
}