{
  "_format": "hh-sol-artifact-1",
  "contractName": "CertificateNFT",
  "sourceName": "contracts/nft_generator.sol",
  "abi": [
    {
      "inputs": [],
      "stateMutability": "nonpayable",
      "type": "constructor"
    },
    {
      "inputs": [
        {
          "internalType": "address",
          "name": "sender",
          "type": "address"
        },
        {
          "internalType": "uint256",
          "name": "tokenId",
          "type": "uint256"
        },
        {
          "internalType": "address",
          "name": "owner",
          "type": "address"
        }
      ],
      "name": "ERC721IncorrectOwner",
      "type": "error"
    },
    {
      "inputs": [
        {
          "internalType": "address",
          "name": "operator",
          "type": "address"
        },
        {
          "internalType": "uint256",
          "name": "tokenId",
          "type": "uint256"
        }
      ],
      "name": "ERC721InsufficientApproval",
      "type": "error"
    },
    {
      "inputs": [
        {
          "internalType": "address",
          "name": "approver",
          "type": "address"
        }
      ],
      "name": "ERC721InvalidApprover",
      "type": "error"
    },
    {
      "inputs": [
        {
          "internalType": "address",
          "name": "operator",
          "type": "address"
        }
      ],
      "name": "ERC721InvalidOperator",
      "type": "error"
    },
    {
      "inputs": [
        {
          "internalType": "address",
          "name": "owner",
          "type": "address"
        }
      ],
      "name": "ERC721InvalidOwner",
      "type": "error"
    },
    {
      "inputs": [
        {
          "internalType": "address",
          "name": "receiver",
          "type": "address"
        }
      ],
      "name": "ERC721InvalidReceiver",
      "type": "error"
    },
    {
      "inputs": [
        {
          "internalType": "address",
          "name": "sender",
          "type": "address"
        }
      ],
      "name": "ERC721InvalidSender",
      "type": "error"
    },
    {
      "inputs": [
        {
          "internalType": "uint256",
          "name": "tokenId",
          "type": "uint256"
        }
      ],
      "name": "ERC721NonexistentToken",
      "type": "error"
    },
    {
      "anonymous": false,
      "inputs": [
        {
          "indexed": true,
          "internalType": "address",
          "name": "owner",
          "type": "address"
        },
        {
          "indexed": true,
          "internalType": "address",
          "name": "approved",
          "type": "address"
        },
        {
          "indexed": true,
          "internalType": "uint256",
          "name": "tokenId",
          "type": "uint256"
        }
      ],
      "name": "Approval",
      "type": "event"
    },
    {
      "anonymous": false,
      "inputs": [
        {
          "indexed": true,
          "internalType": "address",
          "name": "owner",
          "type": "address"
        },
        {
          "indexed": true,
          "internalType": "address",
          "name": "operator",
          "type": "address"
        },
        {
          "indexed": false,
          "internalType": "bool",
          "name": "approved",
          "type": "bool"
        }
      ],
      "name": "ApprovalForAll",
      "type": "event"
    },
    {
      "anonymous": false,
      "inputs": [
        {
          "indexed": false,
          "internalType": "uint256",
          "name": "_fromTokenId",
          "type": "uint256"
        },
        {
          "indexed": false,
          "internalType": "uint256",
          "name": "_toTokenId",
          "type": "uint256"
        }
      ],
      "name": "BatchMetadataUpdate",
      "type": "event"
    },
    {
      "anonymous": false,
      "inputs": [],
      "name": "CertificateInfoSetEvent",
      "type": "event"
    },
    {
      "anonymous": false,
      "inputs": [],
      "name": "CertificateMintedEvent",
      "type": "event"
    },
    {
      "anonymous": false,
      "inputs": [
        {
          "indexed": false,
          "internalType": "uint256",
          "name": "_tokenId",
          "type": "uint256"
        }
      ],
      "name": "MetadataUpdate",
      "type": "event"
    },
    {
      "anonymous": false,
      "inputs": [
        {
          "indexed": true,
          "internalType": "address",
          "name": "from",
          "type": "address"
        },
        {
          "indexed": true,
          "internalType": "address",
          "name": "to",
          "type": "address"
        },
        {
          "indexed": true,
          "internalType": "uint256",
          "name": "tokenId",
          "type": "uint256"
        }
      ],
      "name": "Transfer",
      "type": "event"
    },
    {
      "inputs": [
        {
          "internalType": "address",
          "name": "to",
          "type": "address"
        },
        {
          "internalType": "uint256",
          "name": "tokenId",
          "type": "uint256"
        }
      ],
      "name": "approve",
      "outputs": [],
      "stateMutability": "nonpayable",
      "type": "function"
    },
    {
      "inputs": [
        {
          "internalType": "address",
          "name": "owner",
          "type": "address"
        }
      ],
      "name": "balanceOf",
      "outputs": [
        {
          "internalType": "uint256",
          "name": "",
          "type": "uint256"
        }
      ],
      "stateMutability": "view",
      "type": "function"
    },
    {
      "inputs": [],
      "name": "cerificateContract",
      "outputs": [
        {
          "internalType": "string",
          "name": "",
          "type": "string"
        }
      ],
      "stateMutability": "view",
      "type": "function"
    },
    {
      "inputs": [
        {
          "internalType": "uint256",
          "name": "tokenId",
          "type": "uint256"
        }
      ],
      "name": "getApproved",
      "outputs": [
        {
          "internalType": "address",
          "name": "",
          "type": "address"
        }
      ],
      "stateMutability": "view",
      "type": "function"
    },
    {
      "inputs": [
        {
          "internalType": "address",
          "name": "certificateOwner",
          "type": "address"
        }
      ],
      "name": "getMyNFTCertificates",
      "outputs": [
        {
          "components": [
            {
              "internalType": "uint256",
              "name": "tokenID",
              "type": "uint256"
            },
            {
              "internalType": "string",
              "name": "tokenURI",
              "type": "string"
            },
            {
              "internalType": "string",
              "name": "description",
              "type": "string"
            }
          ],
          "internalType": "struct CertificateNFT.Certificates[]",
          "name": "",
          "type": "tuple[]"
        }
      ],
      "stateMutability": "view",
      "type": "function"
    },
    {
      "inputs": [],
      "name": "getTokensCount",
      "outputs": [
        {
          "internalType": "uint256",
          "name": "",
          "type": "uint256"
        }
      ],
      "stateMutability": "view",
      "type": "function"
    },
    {
      "inputs": [
        {
          "internalType": "address",
          "name": "owner",
          "type": "address"
        },
        {
          "internalType": "address",
          "name": "operator",
          "type": "address"
        }
      ],
      "name": "isApprovedForAll",
      "outputs": [
        {
          "internalType": "bool",
          "name": "",
          "type": "bool"
        }
      ],
      "stateMutability": "view",
      "type": "function"
    },
    {
      "inputs": [
        {
          "internalType": "address",
          "name": "donner",
          "type": "address"
        },
        {
          "internalType": "string",
          "name": "tokenURI",
          "type": "string"
        }
      ],
      "name": "mint",
      "outputs": [
        {
          "internalType": "uint256",
          "name": "",
          "type": "uint256"
        }
      ],
      "stateMutability": "nonpayable",
      "type": "function"
    },
    {
      "inputs": [],
      "name": "name",
      "outputs": [
        {
          "internalType": "string",
          "name": "",
          "type": "string"
        }
      ],
      "stateMutability": "view",
      "type": "function"
    },
    {
      "inputs": [
        {
          "internalType": "uint256",
          "name": "tokenId",
          "type": "uint256"
        }
      ],
      "name": "ownerOf",
      "outputs": [
        {
          "internalType": "address",
          "name": "",
          "type": "address"
        }
      ],
      "stateMutability": "view",
      "type": "function"
    },
    {
      "inputs": [],
      "name": "platformOwner",
      "outputs": [
        {
          "internalType": "address",
          "name": "",
          "type": "address"
        }
      ],
      "stateMutability": "view",
      "type": "function"
    },
    {
      "inputs": [
        {
          "internalType": "address",
          "name": "from",
          "type": "address"
        },
        {
          "internalType": "address",
          "name": "to",
          "type": "address"
        },
        {
          "internalType": "uint256",
          "name": "tokenId",
          "type": "uint256"
        }
      ],
      "name": "safeTransferFrom",
      "outputs": [],
      "stateMutability": "nonpayable",
      "type": "function"
    },
    {
      "inputs": [
        {
          "internalType": "address",
          "name": "from",
          "type": "address"
        },
        {
          "internalType": "address",
          "name": "to",
          "type": "address"
        },
        {
          "internalType": "uint256",
          "name": "tokenId",
          "type": "uint256"
        },
        {
          "internalType": "bytes",
          "name": "data",
          "type": "bytes"
        }
      ],
      "name": "safeTransferFrom",
      "outputs": [],
      "stateMutability": "nonpayable",
      "type": "function"
    },
    {
      "inputs": [
        {
          "internalType": "address",
          "name": "operator",
          "type": "address"
        },
        {
          "internalType": "bool",
          "name": "approved",
          "type": "bool"
        }
      ],
      "name": "setApprovalForAll",
      "outputs": [],
      "stateMutability": "nonpayable",
      "type": "function"
    },
    {
      "inputs": [
        {
          "internalType": "address",
          "name": "donner",
          "type": "address"
        },
        {
          "internalType": "uint256",
          "name": "_tokenID",
          "type": "uint256"
        },
        {
          "internalType": "string",
          "name": "_tokenURI",
          "type": "string"
        },
        {
          "internalType": "string",
          "name": "_description",
          "type": "string"
        }
      ],
      "name": "setCertificates",
      "outputs": [],
      "stateMutability": "nonpayable",
      "type": "function"
    },
    {
      "inputs": [
        {
          "internalType": "bytes4",
          "name": "interfaceId",
          "type": "bytes4"
        }
      ],
      "name": "supportsInterface",
      "outputs": [
        {
          "internalType": "bool",
          "name": "",
          "type": "bool"
        }
      ],
      "stateMutability": "view",
      "type": "function"
    },
    {
      "inputs": [],
      "name": "symbol",
      "outputs": [
        {
          "internalType": "string",
          "name": "",
          "type": "string"
        }
      ],
      "stateMutability": "view",
      "type": "function"
    },
    {
      "inputs": [
        {
          "internalType": "uint256",
          "name": "tokenId",
          "type": "uint256"
        }
      ],
      "name": "tokenURI",
      "outputs": [
        {
          "internalType": "string",
          "name": "",
          "type": "string"
        }
      ],
      "stateMutability": "view",
      "type": "function"
    },
    {
      "inputs": [
        {
          "internalType": "address",
          "name": "from",
          "type": "address"
        },
        {
          "internalType": "address",
          "name": "to",
          "type": "address"
        },
        {
          "internalType": "uint256",
          "name": "tokenId",
          "type": "uint256"
        }
      ],
      "name": "transferFrom",
      "outputs": [],
      "stateMutability": "nonpayable",
      "type": "function"
    }
  ],
  "bytecode": "0x60806040526040518060400160405280601281526020017f63657269666963617465436f6e74726163740000000000000000000000000000815250600890816200004a9190620003b1565b5060006009553480156200005d57600080fd5b506040518060400160405280601481526020017f446f6e61746976652063657274696669636174650000000000000000000000008152506040518060400160405280600481526020017f44415050000000000000000000000000000000000000000000000000000000008152508160009081620000db9190620003b1565b508060019081620000ed9190620003b1565b50505033600760006101000a81548173ffffffffffffffffffffffffffffffffffffffff021916908373ffffffffffffffffffffffffffffffffffffffff16021790555062000498565b600081519050919050565b7f4e487b7100000000000000000000000000000000000000000000000000000000600052604160045260246000fd5b7f4e487b7100000000000000000000000000000000000000000000000000000000600052602260045260246000fd5b60006002820490506001821680620001b957607f821691505b602082108103620001cf57620001ce62000171565b5b50919050565b60008190508160005260206000209050919050565b60006020601f8301049050919050565b600082821b905092915050565b600060088302620002397fffffffffffffffffffffffffffffffffffffffffffffffffffffffffffffffff82620001fa565b620002458683620001fa565b95508019841693508086168417925050509392505050565b6000819050919050565b6000819050919050565b6000620002926200028c62000286846200025d565b62000267565b6200025d565b9050919050565b6000819050919050565b620002ae8362000271565b620002c6620002bd8262000299565b84845462000207565b825550505050565b600090565b620002dd620002ce565b620002ea818484620002a3565b505050565b5b81811015620003125762000306600082620002d3565b600181019050620002f0565b5050565b601f82111562000361576200032b81620001d5565b6200033684620001ea565b8101602085101562000346578190505b6200035e6200035585620001ea565b830182620002ef565b50505b505050565b600082821c905092915050565b6000620003866000198460080262000366565b1980831691505092915050565b6000620003a1838362000373565b9150826002028217905092915050565b620003bc8262000137565b67ffffffffffffffff811115620003d857620003d762000142565b5b620003e48254620001a0565b620003f182828562000316565b600060209050601f83116001811462000429576000841562000414578287015190505b62000420858262000393565b86555062000490565b601f1984166200043986620001d5565b60005b8281101562000463578489015182556001820191506020850194506020810190506200043c565b868310156200048357848901516200047f601f89168262000373565b8355505b6001600288020188555050505b505050505050565b612a5c80620004a86000396000f3fe608060405234801561001057600080fd5b50600436106101215760003560e01c80636352211e116100ad578063b88d4fde11610071578063b88d4fde1461031c578063c87b56dd14610338578063d0def52114610368578063dab08d5c14610398578063e985e9c5146103b457610121565b80636352211e1461026457806370a08231146102945780638facdffc146102c457806395d89b41146102e2578063a22cb4651461030057610121565b806323b872dd116100f457806323b872dd146101c05780633962f82d146101dc57806342842e0e146101fa5780634df8ccb1146102165780634e9974cc1461023457610121565b806301ffc9a71461012657806306fdde0314610156578063081812fc14610174578063095ea7b3146101a4575b600080fd5b610140600480360381019061013b9190611c81565b6103e4565b60405161014d9190611cc9565b60405180910390f35b61015e610445565b60405161016b9190611d74565b60405180910390f35b61018e60048036038101906101899190611dcc565b6104d7565b60405161019b9190611e3a565b60405180910390f35b6101be60048036038101906101b99190611e81565b6104f3565b005b6101da60048036038101906101d59190611ec1565b610509565b005b6101e461060b565b6040516101f19190611f23565b60405180910390f35b610214600480360381019061020f9190611ec1565b610615565b005b61021e610635565b60405161022b9190611e3a565b60405180910390f35b61024e60048036038101906102499190611f3e565b61065b565b60405161025b91906120dd565b60405180910390f35b61027e60048036038101906102799190611dcc565b610827565b60405161028b9190611e3a565b60405180910390f35b6102ae60048036038101906102a99190611f3e565b610839565b6040516102bb9190611f23565b60405180910390f35b6102cc6108f3565b6040516102d99190611d74565b60405180910390f35b6102ea610981565b6040516102f79190611d74565b60405180910390f35b61031a6004803603810190610315919061212b565b610a13565b005b610336600480360381019061033191906122a0565b610a29565b005b610352600480360381019061034d9190611dcc565b610a46565b60405161035f9190611d74565b60405180910390f35b610382600480360381019061037d91906123c4565b610b59565b60405161038f9190611f23565b60405180910390f35b6103b260048036038101906103ad9190612420565b610b98565b005b6103ce60048036038101906103c991906124bf565b610c5f565b6040516103db9190611cc9565b60405180910390f35b6000634906490660e01b7bffffffffffffffffffffffffffffffffffffffffffffffffffffffff1916827bffffffffffffffffffffffffffffffffffffffffffffffffffffffff1916148061043e575061043d82610cf3565b5b9050919050565b6060600080546104549061252e565b80601f01602080910402602001604051908101604052809291908181526020018280546104809061252e565b80156104cd5780601f106104a2576101008083540402835291602001916104cd565b820191906000526020600020905b8154815290600101906020018083116104b057829003601f168201915b5050505050905090565b60006104e282610dd5565b506104ec82610e5d565b9050919050565b6105058282610500610e9a565b610ea2565b5050565b600073ffffffffffffffffffffffffffffffffffffffff168273ffffffffffffffffffffffffffffffffffffffff160361057b5760006040517f64a0ae920000000000000000000000000000000000000000000000000000000081526004016105729190611e3a565b60405180910390fd5b600061058f838361058a610e9a565b610eb4565b90508373ffffffffffffffffffffffffffffffffffffffff168173ffffffffffffffffffffffffffffffffffffffff1614610605578382826040517f64283d7b0000000000000000000000000000000000000000000000000000000081526004016105fc9392919061255f565b60405180910390fd5b50505050565b6000600954905090565b61063083838360405180602001604052806000815250610a29565b505050565b600760009054906101000a900473ffffffffffffffffffffffffffffffffffffffff1681565b6060600a60008373ffffffffffffffffffffffffffffffffffffffff1673ffffffffffffffffffffffffffffffffffffffff168152602001908152602001600020805480602002602001604051908101604052809291908181526020016000905b8282101561081c5783829060005260206000209060030201604051806060016040529081600082015481526020016001820180546106f99061252e565b80601f01602080910402602001604051908101604052809291908181526020018280546107259061252e565b80156107725780601f1061074757610100808354040283529160200191610772565b820191906000526020600020905b81548152906001019060200180831161075557829003601f168201915b5050505050815260200160028201805461078b9061252e565b80601f01602080910402602001604051908101604052809291908181526020018280546107b79061252e565b80156108045780601f106107d957610100808354040283529160200191610804565b820191906000526020600020905b8154815290600101906020018083116107e757829003601f168201915b505050505081525050815260200190600101906106bc565b505050509050919050565b600061083282610dd5565b9050919050565b60008073ffffffffffffffffffffffffffffffffffffffff168273ffffffffffffffffffffffffffffffffffffffff16036108ac5760006040517f89c62b640000000000000000000000000000000000000000000000000000000081526004016108a39190611e3a565b60405180910390fd5b600360008373ffffffffffffffffffffffffffffffffffffffff1673ffffffffffffffffffffffffffffffffffffffff168152602001908152602001600020549050919050565b600880546109009061252e565b80601f016020809104026020016040519081016040528092919081815260200182805461092c9061252e565b80156109795780601f1061094e57610100808354040283529160200191610979565b820191906000526020600020905b81548152906001019060200180831161095c57829003601f168201915b505050505081565b6060600180546109909061252e565b80601f01602080910402602001604051908101604052809291908181526020018280546109bc9061252e565b8015610a095780601f106109de57610100808354040283529160200191610a09565b820191906000526020600020905b8154815290600101906020018083116109ec57829003601f168201915b5050505050905090565b610a25610a1e610e9a565b83836110ce565b5050565b610a34848484610509565b610a408484848461123d565b50505050565b6060610a5182610dd5565b506000600660008481526020019081526020016000208054610a729061252e565b80601f0160208091040260200160405190810160405280929190818152602001828054610a9e9061252e565b8015610aeb5780601f10610ac057610100808354040283529160200191610aeb565b820191906000526020600020905b815481529060010190602001808311610ace57829003601f168201915b505050505090506000610afc6113f4565b90506000815103610b11578192505050610b54565b600082511115610b46578082604051602001610b2e9291906125d2565b60405160208183030381529060405292505050610b54565b610b4f8461140b565b925050505b919050565b600060096000815480929190610b6e90612625565b919050555060006009549050610b848482611474565b610b8e8184611492565b8091505092915050565b60006040518060600160405280858152602001848152602001838152509050600a60008673ffffffffffffffffffffffffffffffffffffffff1673ffffffffffffffffffffffffffffffffffffffff168152602001908152602001600020819080600181540180825580915050600190039060005260206000209060030201600090919091909150600082015181600001556020820151816001019081610c3f9190612819565b506040820151816002019081610c559190612819565b5050505050505050565b6000600560008473ffffffffffffffffffffffffffffffffffffffff1673ffffffffffffffffffffffffffffffffffffffff16815260200190815260200160002060008373ffffffffffffffffffffffffffffffffffffffff1673ffffffffffffffffffffffffffffffffffffffff16815260200190815260200160002060009054906101000a900460ff16905092915050565b60007f80ac58cd000000000000000000000000000000000000000000000000000000007bffffffffffffffffffffffffffffffffffffffffffffffffffffffff1916827bffffffffffffffffffffffffffffffffffffffffffffffffffffffff19161480610dbe57507f5b5e139f000000000000000000000000000000000000000000000000000000007bffffffffffffffffffffffffffffffffffffffffffffffffffffffff1916827bffffffffffffffffffffffffffffffffffffffffffffffffffffffff1916145b80610dce5750610dcd826114ee565b5b9050919050565b600080610de183611558565b9050600073ffffffffffffffffffffffffffffffffffffffff168173ffffffffffffffffffffffffffffffffffffffff1603610e5457826040517f7e273289000000000000000000000000000000000000000000000000000000008152600401610e4b9190611f23565b60405180910390fd5b80915050919050565b60006004600083815260200190815260200160002060009054906101000a900473ffffffffffffffffffffffffffffffffffffffff169050919050565b600033905090565b610eaf8383836001611595565b505050565b600080610ec084611558565b9050600073ffffffffffffffffffffffffffffffffffffffff168373ffffffffffffffffffffffffffffffffffffffff1614610f0257610f0181848661175a565b5b600073ffffffffffffffffffffffffffffffffffffffff168173ffffffffffffffffffffffffffffffffffffffff1614610f9357610f44600085600080611595565b6001600360008373ffffffffffffffffffffffffffffffffffffffff1673ffffffffffffffffffffffffffffffffffffffff168152602001908152602001600020600082825403925050819055505b600073ffffffffffffffffffffffffffffffffffffffff168573ffffffffffffffffffffffffffffffffffffffff1614611016576001600360008773ffffffffffffffffffffffffffffffffffffffff1673ffffffffffffffffffffffffffffffffffffffff168152602001908152602001600020600082825401925050819055505b846002600086815260200190815260200160002060006101000a81548173ffffffffffffffffffffffffffffffffffffffff021916908373ffffffffffffffffffffffffffffffffffffffff160217905550838573ffffffffffffffffffffffffffffffffffffffff168273ffffffffffffffffffffffffffffffffffffffff167fddf252ad1be2c89b69c2b068fc378daa952ba7f163c4a11628f55a4df523b3ef60405160405180910390a4809150509392505050565b600073ffffffffffffffffffffffffffffffffffffffff168273ffffffffffffffffffffffffffffffffffffffff160361113f57816040517f5b08ba180000000000000000000000000000000000000000000000000000000081526004016111369190611e3a565b60405180910390fd5b80600560008573ffffffffffffffffffffffffffffffffffffffff1673ffffffffffffffffffffffffffffffffffffffff16815260200190815260200160002060008473ffffffffffffffffffffffffffffffffffffffff1673ffffffffffffffffffffffffffffffffffffffff16815260200190815260200160002060006101000a81548160ff0219169083151502179055508173ffffffffffffffffffffffffffffffffffffffff168373ffffffffffffffffffffffffffffffffffffffff167f17307eab39ab6107e8899845ad3d59bd9653f200f220920489ca2b5937696c31836040516112309190611cc9565b60405180910390a3505050565b60008373ffffffffffffffffffffffffffffffffffffffff163b11156113ee578273ffffffffffffffffffffffffffffffffffffffff1663150b7a02611281610e9a565b8685856040518563ffffffff1660e01b81526004016112a39493929190612940565b6020604051808303816000875af19250505080156112df57506040513d601f19601f820116820180604052508101906112dc91906129a1565b60015b611363573d806000811461130f576040519150601f19603f3d011682016040523d82523d6000602084013e611314565b606091505b50600081510361135b57836040517f64a0ae920000000000000000000000000000000000000000000000000000000081526004016113529190611e3a565b60405180910390fd5b805181602001fd5b63150b7a0260e01b7bffffffffffffffffffffffffffffffffffffffffffffffffffffffff1916817bffffffffffffffffffffffffffffffffffffffffffffffffffffffff1916146113ec57836040517f64a0ae920000000000000000000000000000000000000000000000000000000081526004016113e39190611e3a565b60405180910390fd5b505b50505050565b606060405180602001604052806000815250905090565b606061141682610dd5565b5060006114216113f4565b90506000815111611441576040518060200160405280600081525061146c565b8061144b8461181e565b60405160200161145c9291906125d2565b6040516020818303038152906040525b915050919050565b61148e8282604051806020016040528060008152506118ec565b5050565b806006600084815260200190815260200160002090816114b29190612819565b507ff8e1a15aba9398e019f0b49df1a4fde98ee17ae345cb5f6b5e2c27f5033e8ce7826040516114e29190611f23565b60405180910390a15050565b60007f01ffc9a7000000000000000000000000000000000000000000000000000000007bffffffffffffffffffffffffffffffffffffffffffffffffffffffff1916827bffffffffffffffffffffffffffffffffffffffffffffffffffffffff1916149050919050565b60006002600083815260200190815260200160002060009054906101000a900473ffffffffffffffffffffffffffffffffffffffff169050919050565b80806115ce5750600073ffffffffffffffffffffffffffffffffffffffff168273ffffffffffffffffffffffffffffffffffffffff1614155b156117025760006115de84610dd5565b9050600073ffffffffffffffffffffffffffffffffffffffff168373ffffffffffffffffffffffffffffffffffffffff161415801561164957508273ffffffffffffffffffffffffffffffffffffffff168173ffffffffffffffffffffffffffffffffffffffff1614155b801561165c575061165a8184610c5f565b155b1561169e57826040517fa9fbf51f0000000000000000000000000000000000000000000000000000000081526004016116959190611e3a565b60405180910390fd5b811561170057838573ffffffffffffffffffffffffffffffffffffffff168273ffffffffffffffffffffffffffffffffffffffff167f8c5be1e5ebec7d5bd14f71427d1e84f3dd0314c0f7b2291e5b200ac8c7c3b92560405160405180910390a45b505b836004600085815260200190815260200160002060006101000a81548173ffffffffffffffffffffffffffffffffffffffff021916908373ffffffffffffffffffffffffffffffffffffffff16021790555050505050565b611765838383611908565b61181957600073ffffffffffffffffffffffffffffffffffffffff168373ffffffffffffffffffffffffffffffffffffffff16036117da57806040517f7e2732890000000000000000000000000000000000000000000000000000000081526004016117d19190611f23565b60405180910390fd5b81816040517f177e802f0000000000000000000000000000000000000000000000000000000081526004016118109291906129ce565b60405180910390fd5b505050565b60606000600161182d846119c9565b01905060008167ffffffffffffffff81111561184c5761184b612175565b5b6040519080825280601f01601f19166020018201604052801561187e5781602001600182028036833780820191505090505b509050600082602001820190505b6001156118e1578080600190039150507f3031323334353637383961626364656600000000000000000000000000000000600a86061a8153600a85816118d5576118d46129f7565b5b0494506000850361188c575b819350505050919050565b6118f68383611b1c565b611903600084848461123d565b505050565b60008073ffffffffffffffffffffffffffffffffffffffff168373ffffffffffffffffffffffffffffffffffffffff16141580156119c057508273ffffffffffffffffffffffffffffffffffffffff168473ffffffffffffffffffffffffffffffffffffffff16148061198157506119808484610c5f565b5b806119bf57508273ffffffffffffffffffffffffffffffffffffffff166119a783610e5d565b73ffffffffffffffffffffffffffffffffffffffff16145b5b90509392505050565b600080600090507a184f03e93ff9f4daa797ed6e38ed64bf6a1f0100000000000000008310611a27577a184f03e93ff9f4daa797ed6e38ed64bf6a1f0100000000000000008381611a1d57611a1c6129f7565b5b0492506040810190505b6d04ee2d6d415b85acef81000000008310611a64576d04ee2d6d415b85acef81000000008381611a5a57611a596129f7565b5b0492506020810190505b662386f26fc100008310611a9357662386f26fc100008381611a8957611a886129f7565b5b0492506010810190505b6305f5e1008310611abc576305f5e1008381611ab257611ab16129f7565b5b0492506008810190505b6127108310611ae1576127108381611ad757611ad66129f7565b5b0492506004810190505b60648310611b045760648381611afa57611af96129f7565b5b0492506002810190505b600a8310611b13576001810190505b80915050919050565b600073ffffffffffffffffffffffffffffffffffffffff168273ffffffffffffffffffffffffffffffffffffffff1603611b8e5760006040517f64a0ae92000000000000000000000000000000000000000000000000000000008152600401611b859190611e3a565b60405180910390fd5b6000611b9c83836000610eb4565b9050600073ffffffffffffffffffffffffffffffffffffffff168173ffffffffffffffffffffffffffffffffffffffff1614611c105760006040517f73c6ac6e000000000000000000000000000000000000000000000000000000008152600401611c079190611e3a565b60405180910390fd5b505050565b6000604051905090565b600080fd5b600080fd5b60007fffffffff0000000000000000000000000000000000000000000000000000000082169050919050565b611c5e81611c29565b8114611c6957600080fd5b50565b600081359050611c7b81611c55565b92915050565b600060208284031215611c9757611c96611c1f565b5b6000611ca584828501611c6c565b91505092915050565b60008115159050919050565b611cc381611cae565b82525050565b6000602082019050611cde6000830184611cba565b92915050565b600081519050919050565b600082825260208201905092915050565b60005b83811015611d1e578082015181840152602081019050611d03565b60008484015250505050565b6000601f19601f8301169050919050565b6000611d4682611ce4565b611d508185611cef565b9350611d60818560208601611d00565b611d6981611d2a565b840191505092915050565b60006020820190508181036000830152611d8e8184611d3b565b905092915050565b6000819050919050565b611da981611d96565b8114611db457600080fd5b50565b600081359050611dc681611da0565b92915050565b600060208284031215611de257611de1611c1f565b5b6000611df084828501611db7565b91505092915050565b600073ffffffffffffffffffffffffffffffffffffffff82169050919050565b6000611e2482611df9565b9050919050565b611e3481611e19565b82525050565b6000602082019050611e4f6000830184611e2b565b92915050565b611e5e81611e19565b8114611e6957600080fd5b50565b600081359050611e7b81611e55565b92915050565b60008060408385031215611e9857611e97611c1f565b5b6000611ea685828601611e6c565b9250506020611eb785828601611db7565b9150509250929050565b600080600060608486031215611eda57611ed9611c1f565b5b6000611ee886828701611e6c565b9350506020611ef986828701611e6c565b9250506040611f0a86828701611db7565b9150509250925092565b611f1d81611d96565b82525050565b6000602082019050611f386000830184611f14565b92915050565b600060208284031215611f5457611f53611c1f565b5b6000611f6284828501611e6c565b91505092915050565b600081519050919050565b600082825260208201905092915050565b6000819050602082019050919050565b611fa081611d96565b82525050565b600082825260208201905092915050565b6000611fc282611ce4565b611fcc8185611fa6565b9350611fdc818560208601611d00565b611fe581611d2a565b840191505092915050565b60006060830160008301516120086000860182611f97565b50602083015184820360208601526120208282611fb7565b9150506040830151848203604086015261203a8282611fb7565b9150508091505092915050565b60006120538383611ff0565b905092915050565b6000602082019050919050565b600061207382611f6b565b61207d8185611f76565b93508360208202850161208f85611f87565b8060005b858110156120cb57848403895281516120ac8582612047565b94506120b78361205b565b925060208a01995050600181019050612093565b50829750879550505050505092915050565b600060208201905081810360008301526120f78184612068565b905092915050565b61210881611cae565b811461211357600080fd5b50565b600081359050612125816120ff565b92915050565b6000806040838503121561214257612141611c1f565b5b600061215085828601611e6c565b925050602061216185828601612116565b9150509250929050565b600080fd5b600080fd5b7f4e487b7100000000000000000000000000000000000000000000000000000000600052604160045260246000fd5b6121ad82611d2a565b810181811067ffffffffffffffff821117156121cc576121cb612175565b5b80604052505050565b60006121df611c15565b90506121eb82826121a4565b919050565b600067ffffffffffffffff82111561220b5761220a612175565b5b61221482611d2a565b9050602081019050919050565b82818337600083830152505050565b600061224361223e846121f0565b6121d5565b90508281526020810184848401111561225f5761225e612170565b5b61226a848285612221565b509392505050565b600082601f8301126122875761228661216b565b5b8135612297848260208601612230565b91505092915050565b600080600080608085870312156122ba576122b9611c1f565b5b60006122c887828801611e6c565b94505060206122d987828801611e6c565b93505060406122ea87828801611db7565b925050606085013567ffffffffffffffff81111561230b5761230a611c24565b5b61231787828801612272565b91505092959194509250565b600067ffffffffffffffff82111561233e5761233d612175565b5b61234782611d2a565b9050602081019050919050565b600061236761236284612323565b6121d5565b90508281526020810184848401111561238357612382612170565b5b61238e848285612221565b509392505050565b600082601f8301126123ab576123aa61216b565b5b81356123bb848260208601612354565b91505092915050565b600080604083850312156123db576123da611c1f565b5b60006123e985828601611e6c565b925050602083013567ffffffffffffffff81111561240a57612409611c24565b5b61241685828601612396565b9150509250929050565b6000806000806080858703121561243a57612439611c1f565b5b600061244887828801611e6c565b945050602061245987828801611db7565b935050604085013567ffffffffffffffff81111561247a57612479611c24565b5b61248687828801612396565b925050606085013567ffffffffffffffff8111156124a7576124a6611c24565b5b6124b387828801612396565b91505092959194509250565b600080604083850312156124d6576124d5611c1f565b5b60006124e485828601611e6c565b92505060206124f585828601611e6c565b9150509250929050565b7f4e487b7100000000000000000000000000000000000000000000000000000000600052602260045260246000fd5b6000600282049050600182168061254657607f821691505b602082108103612559576125586124ff565b5b50919050565b60006060820190506125746000830186611e2b565b6125816020830185611f14565b61258e6040830184611e2b565b949350505050565b600081905092915050565b60006125ac82611ce4565b6125b68185612596565b93506125c6818560208601611d00565b80840191505092915050565b60006125de82856125a1565b91506125ea82846125a1565b91508190509392505050565b7f4e487b7100000000000000000000000000000000000000000000000000000000600052601160045260246000fd5b600061263082611d96565b91507fffffffffffffffffffffffffffffffffffffffffffffffffffffffffffffffff8203612662576126616125f6565b5b600182019050919050565b60008190508160005260206000209050919050565b60006020601f8301049050919050565b600082821b905092915050565b6000600883026126cf7fffffffffffffffffffffffffffffffffffffffffffffffffffffffffffffffff82612692565b6126d98683612692565b95508019841693508086168417925050509392505050565b6000819050919050565b600061271661271161270c84611d96565b6126f1565b611d96565b9050919050565b6000819050919050565b612730836126fb565b61274461273c8261271d565b84845461269f565b825550505050565b600090565b61275961274c565b612764818484612727565b505050565b5b818110156127885761277d600082612751565b60018101905061276a565b5050565b601f8211156127cd5761279e8161266d565b6127a784612682565b810160208510156127b6578190505b6127ca6127c285612682565b830182612769565b50505b505050565b600082821c905092915050565b60006127f0600019846008026127d2565b1980831691505092915050565b600061280983836127df565b9150826002028217905092915050565b61282282611ce4565b67ffffffffffffffff81111561283b5761283a612175565b5b612845825461252e565b61285082828561278c565b600060209050601f8311600181146128835760008415612871578287015190505b61287b85826127fd565b8655506128e3565b601f1984166128918661266d565b60005b828110156128b957848901518255600182019150602085019450602081019050612894565b868310156128d657848901516128d2601f8916826127df565b8355505b6001600288020188555050505b505050505050565b600081519050919050565b600082825260208201905092915050565b6000612912826128eb565b61291c81856128f6565b935061292c818560208601611d00565b61293581611d2a565b840191505092915050565b60006080820190506129556000830187611e2b565b6129626020830186611e2b565b61296f6040830185611f14565b81810360608301526129818184612907565b905095945050505050565b60008151905061299b81611c55565b92915050565b6000602082840312156129b7576129b6611c1f565b5b60006129c58482850161298c565b91505092915050565b60006040820190506129e36000830185611e2b565b6129f06020830184611f14565b9392505050565b7f4e487b7100000000000000000000000000000000000000000000000000000000600052601260045260246000fdfea2646970667358221220592a44611f0088ce21a112cf2856265ac6b6c4a60f5ed741ec46409fb7a3272164736f6c63430008180033",
  "linkReferences": {},
  "deployedLinkReferences": {}
}