{
  "_format": "hh-sol-artifact-1",
  "contractName": "TokenMaster",
  "sourceName": "contracts/TokenMaster.sol",
  "abi": [
    {
      "inputs": [],
      "stateMutability": "nonpayable",
      "type": "constructor"
    },
    {
      "inputs": [
        {
          "internalType": "address",
          "name": "sender",
          "type": "address"
        },
        {
          "internalType": "uint256",
          "name": "tokenId",
          "type": "uint256"
        },
        {
          "internalType": "address",
          "name": "owner",
          "type": "address"
        }
      ],
      "name": "ERC721IncorrectOwner",
      "type": "error"
    },
    {
      "inputs": [
        {
          "internalType": "address",
          "name": "operator",
          "type": "address"
        },
        {
          "internalType": "uint256",
          "name": "tokenId",
          "type": "uint256"
        }
      ],
      "name": "ERC721InsufficientApproval",
      "type": "error"
    },
    {
      "inputs": [
        {
          "internalType": "address",
          "name": "approver",
          "type": "address"
        }
      ],
      "name": "ERC721InvalidApprover",
      "type": "error"
    },
    {
      "inputs": [
        {
          "internalType": "address",
          "name": "operator",
          "type": "address"
        }
      ],
      "name": "ERC721InvalidOperator",
      "type": "error"
    },
    {
      "inputs": [
        {
          "internalType": "address",
          "name": "owner",
          "type": "address"
        }
      ],
      "name": "ERC721InvalidOwner",
      "type": "error"
    },
    {
      "inputs": [
        {
          "internalType": "address",
          "name": "receiver",
          "type": "address"
        }
      ],
      "name": "ERC721InvalidReceiver",
      "type": "error"
    },
    {
      "inputs": [
        {
          "internalType": "address",
          "name": "sender",
          "type": "address"
        }
      ],
      "name": "ERC721InvalidSender",
      "type": "error"
    },
    {
      "inputs": [
        {
          "internalType": "uint256",
          "name": "tokenId",
          "type": "uint256"
        }
      ],
      "name": "ERC721NonexistentToken",
      "type": "error"
    },
    {
      "anonymous": false,
      "inputs": [
        {
          "indexed": true,
          "internalType": "address",
          "name": "owner",
          "type": "address"
        },
        {
          "indexed": true,
          "internalType": "address",
          "name": "approved",
          "type": "address"
        },
        {
          "indexed": true,
          "internalType": "uint256",
          "name": "tokenId",
          "type": "uint256"
        }
      ],
      "name": "Approval",
      "type": "event"
    },
    {
      "anonymous": false,
      "inputs": [
        {
          "indexed": true,
          "internalType": "address",
          "name": "owner",
          "type": "address"
        },
        {
          "indexed": true,
          "internalType": "address",
          "name": "operator",
          "type": "address"
        },
        {
          "indexed": false,
          "internalType": "bool",
          "name": "approved",
          "type": "bool"
        }
      ],
      "name": "ApprovalForAll",
      "type": "event"
    },
    {
      "anonymous": false,
      "inputs": [
        {
          "indexed": false,
          "internalType": "bytes32",
          "name": "id",
          "type": "bytes32"
        },
        {
          "indexed": false,
          "internalType": "string",
          "name": "name",
          "type": "string"
        },
        {
          "indexed": false,
          "internalType": "uint256",
          "name": "cost",
          "type": "uint256"
        },
        {
          "indexed": false,
          "internalType": "uint256",
          "name": "maxTickets",
          "type": "uint256"
        }
      ],
      "name": "OccasionAdded",
      "type": "event"
    },
    {
      "anonymous": false,
      "inputs": [
        {
          "indexed": false,
          "internalType": "bytes32",
          "name": "occasionId",
          "type": "bytes32"
        },
        {
          "indexed": false,
          "internalType": "uint256",
          "name": "cost",
          "type": "uint256"
        },
        {
          "indexed": false,
          "internalType": "uint256",
          "name": "tickets",
          "type": "uint256"
        }
      ],
      "name": "TicketBought",
      "type": "event"
    },
    {
      "anonymous": false,
      "inputs": [
        {
          "indexed": true,
          "internalType": "address",
          "name": "from",
          "type": "address"
        },
        {
          "indexed": true,
          "internalType": "address",
          "name": "to",
          "type": "address"
        },
        {
          "indexed": true,
          "internalType": "uint256",
          "name": "tokenId",
          "type": "uint256"
        }
      ],
      "name": "Transfer",
      "type": "event"
    },
    {
      "inputs": [
        {
          "internalType": "address",
          "name": "to",
          "type": "address"
        },
        {
          "internalType": "uint256",
          "name": "tokenId",
          "type": "uint256"
        }
      ],
      "name": "approve",
      "outputs": [],
      "stateMutability": "nonpayable",
      "type": "function"
    },
    {
      "inputs": [
        {
          "internalType": "address",
          "name": "owner",
          "type": "address"
        }
      ],
      "name": "balanceOf",
      "outputs": [
        {
          "internalType": "uint256",
          "name": "",
          "type": "uint256"
        }
      ],
      "stateMutability": "view",
      "type": "function"
    },
    {
      "inputs": [],
      "name": "getAllOccasions",
      "outputs": [
        {
          "components": [
            {
              "internalType": "bytes32",
              "name": "id",
              "type": "bytes32"
            },
            {
              "internalType": "string",
              "name": "name",
              "type": "string"
            },
            {
              "internalType": "uint256",
              "name": "cost",
              "type": "uint256"
            },
            {
              "internalType": "uint256",
              "name": "tickets",
              "type": "uint256"
            },
            {
              "internalType": "uint256",
              "name": "maxTickets",
              "type": "uint256"
            },
            {
              "internalType": "string",
              "name": "date",
              "type": "string"
            },
            {
              "internalType": "string",
              "name": "time",
              "type": "string"
            },
            {
              "internalType": "string",
              "name": "location",
              "type": "string"
            }
          ],
          "internalType": "struct TokenMaster.Occasion[]",
          "name": "",
          "type": "tuple[]"
        }
      ],
      "stateMutability": "view",
      "type": "function"
    },
    {
      "inputs": [
        {
          "internalType": "uint256",
          "name": "tokenId",
          "type": "uint256"
        }
      ],
      "name": "getApproved",
      "outputs": [
        {
          "internalType": "address",
          "name": "",
          "type": "address"
        }
      ],
      "stateMutability": "view",
      "type": "function"
    },
    {
      "inputs": [
        {
          "internalType": "bytes32",
          "name": "_id",
          "type": "bytes32"
        }
      ],
      "name": "getOccasion",
      "outputs": [
        {
          "components": [
            {
              "internalType": "bytes32",
              "name": "id",
              "type": "bytes32"
            },
            {
              "internalType": "string",
              "name": "name",
              "type": "string"
            },
            {
              "internalType": "uint256",
              "name": "cost",
              "type": "uint256"
            },
            {
              "internalType": "uint256",
              "name": "tickets",
              "type": "uint256"
            },
            {
              "internalType": "uint256",
              "name": "maxTickets",
              "type": "uint256"
            },
            {
              "internalType": "string",
              "name": "date",
              "type": "string"
            },
            {
              "internalType": "string",
              "name": "time",
              "type": "string"
            },
            {
              "internalType": "string",
              "name": "location",
              "type": "string"
            }
          ],
          "internalType": "struct TokenMaster.Occasion",
          "name": "",
          "type": "tuple"
        }
      ],
      "stateMutability": "view",
      "type": "function"
    },
    {
      "inputs": [
        {
          "internalType": "uint256",
          "name": "",
          "type": "uint256"
        },
        {
          "internalType": "address",
          "name": "",
          "type": "address"
        }
      ],
      "name": "hasBought",
      "outputs": [
        {
          "internalType": "bool",
          "name": "",
          "type": "bool"
        }
      ],
      "stateMutability": "view",
      "type": "function"
    },
    {
      "inputs": [
        {
          "internalType": "address",
          "name": "owner",
          "type": "address"
        },
        {
          "internalType": "address",
          "name": "operator",
          "type": "address"
        }
      ],
      "name": "isApprovedForAll",
      "outputs": [
        {
          "internalType": "bool",
          "name": "",
          "type": "bool"
        }
      ],
      "stateMutability": "view",
      "type": "function"
    },
    {
      "inputs": [
        {
          "internalType": "string",
          "name": "_name",
          "type": "string"
        },
        {
          "internalType": "uint256",
          "name": "_cost",
          "type": "uint256"
        },
        {
          "internalType": "uint256",
          "name": "_maxTickets",
          "type": "uint256"
        },
        {
          "internalType": "string",
          "name": "_date",
          "type": "string"
        },
        {
          "internalType": "string",
          "name": "_time",
          "type": "string"
        },
        {
          "internalType": "string",
          "name": "_location",
          "type": "string"
        }
      ],
      "name": "list",
      "outputs": [],
      "stateMutability": "nonpayable",
      "type": "function"
    },
    {
      "inputs": [],
      "name": "name",
      "outputs": [
        {
          "internalType": "string",
          "name": "",
          "type": "string"
        }
      ],
      "stateMutability": "view",
      "type": "function"
    },
    {
      "inputs": [],
      "name": "owner",
      "outputs": [
        {
          "internalType": "address",
          "name": "",
          "type": "address"
        }
      ],
      "stateMutability": "view",
      "type": "function"
    },
    {
      "inputs": [
        {
          "internalType": "uint256",
          "name": "tokenId",
          "type": "uint256"
        }
      ],
      "name": "ownerOf",
      "outputs": [
        {
          "internalType": "address",
          "name": "",
          "type": "address"
        }
      ],
      "stateMutability": "view",
      "type": "function"
    },
    {
      "inputs": [
        {
          "internalType": "address",
          "name": "from",
          "type": "address"
        },
        {
          "internalType": "address",
          "name": "to",
          "type": "address"
        },
        {
          "internalType": "uint256",
          "name": "tokenId",
          "type": "uint256"
        }
      ],
      "name": "safeTransferFrom",
      "outputs": [],
      "stateMutability": "nonpayable",
      "type": "function"
    },
    {
      "inputs": [
        {
          "internalType": "address",
          "name": "from",
          "type": "address"
        },
        {
          "internalType": "address",
          "name": "to",
          "type": "address"
        },
        {
          "internalType": "uint256",
          "name": "tokenId",
          "type": "uint256"
        },
        {
          "internalType": "bytes",
          "name": "data",
          "type": "bytes"
        }
      ],
      "name": "safeTransferFrom",
      "outputs": [],
      "stateMutability": "nonpayable",
      "type": "function"
    },
    {
      "inputs": [
        {
          "internalType": "uint256",
          "name": "",
          "type": "uint256"
        },
        {
          "internalType": "uint256",
          "name": "",
          "type": "uint256"
        }
      ],
      "name": "seatTaken",
      "outputs": [
        {
          "internalType": "address",
          "name": "",
          "type": "address"
        }
      ],
      "stateMutability": "view",
      "type": "function"
    },
    {
      "inputs": [
        {
          "internalType": "address",
          "name": "operator",
          "type": "address"
        },
        {
          "internalType": "bool",
          "name": "approved",
          "type": "bool"
        }
      ],
      "name": "setApprovalForAll",
      "outputs": [],
      "stateMutability": "nonpayable",
      "type": "function"
    },
    {
      "inputs": [
        {
          "internalType": "bytes4",
          "name": "interfaceId",
          "type": "bytes4"
        }
      ],
      "name": "supportsInterface",
      "outputs": [
        {
          "internalType": "bool",
          "name": "",
          "type": "bool"
        }
      ],
      "stateMutability": "view",
      "type": "function"
    },
    {
      "inputs": [],
      "name": "symbol",
      "outputs": [
        {
          "internalType": "string",
          "name": "",
          "type": "string"
        }
      ],
      "stateMutability": "view",
      "type": "function"
    },
    {
      "inputs": [
        {
          "internalType": "uint256",
          "name": "tokenId",
          "type": "uint256"
        }
      ],
      "name": "tokenURI",
      "outputs": [
        {
          "internalType": "string",
          "name": "",
          "type": "string"
        }
      ],
      "stateMutability": "view",
      "type": "function"
    },
    {
      "inputs": [],
      "name": "totalSupply",
      "outputs": [
        {
          "internalType": "uint256",
          "name": "",
          "type": "uint256"
        }
      ],
      "stateMutability": "view",
      "type": "function"
    },
    {
      "inputs": [
        {
          "internalType": "address",
          "name": "from",
          "type": "address"
        },
        {
          "internalType": "address",
          "name": "to",
          "type": "address"
        },
        {
          "internalType": "uint256",
          "name": "tokenId",
          "type": "uint256"
        }
      ],
      "name": "transferFrom",
      "outputs": [],
      "stateMutability": "nonpayable",
      "type": "function"
    }
  ],
  "bytecode": "0x60806040523480156200001157600080fd5b506040518060400160405280600b81526020017f546f6b656e4d61737465720000000000000000000000000000000000000000008152506040518060400160405280600281526020017f544d00000000000000000000000000000000000000000000000000000000000081525081600090816200008f919062000365565b508060019081620000a1919062000365565b50505033600660006101000a81548173ffffffffffffffffffffffffffffffffffffffff021916908373ffffffffffffffffffffffffffffffffffffffff1602179055506200044c565b600081519050919050565b7f4e487b7100000000000000000000000000000000000000000000000000000000600052604160045260246000fd5b7f4e487b7100000000000000000000000000000000000000000000000000000000600052602260045260246000fd5b600060028204905060018216806200016d57607f821691505b60208210810362000183576200018262000125565b5b50919050565b60008190508160005260206000209050919050565b60006020601f8301049050919050565b600082821b905092915050565b600060088302620001ed7fffffffffffffffffffffffffffffffffffffffffffffffffffffffffffffffff82620001ae565b620001f98683620001ae565b95508019841693508086168417925050509392505050565b6000819050919050565b6000819050919050565b600062000246620002406200023a8462000211565b6200021b565b62000211565b9050919050565b6000819050919050565b620002628362000225565b6200027a62000271826200024d565b848454620001bb565b825550505050565b600090565b6200029162000282565b6200029e81848462000257565b505050565b5b81811015620002c657620002ba60008262000287565b600181019050620002a4565b5050565b601f8211156200031557620002df8162000189565b620002ea846200019e565b81016020851015620002fa578190505b6200031262000309856200019e565b830182620002a3565b50505b505050565b600082821c905092915050565b60006200033a600019846008026200031a565b1980831691505092915050565b600062000355838362000327565b9150826002028217905092915050565b6200037082620000eb565b67ffffffffffffffff8111156200038c576200038b620000f6565b5b62000398825462000154565b620003a5828285620002ca565b600060209050601f831160018114620003dd5760008415620003c8578287015190505b620003d4858262000347565b86555062000444565b601f198416620003ed8662000189565b60005b828110156200041757848901518255600182019150602085019450602081019050620003f0565b8683101562000437578489015162000433601f89168262000327565b8355505b6001600288020188555050505b505050505050565b612fb4806200045c6000396000f3fe608060405234801561001057600080fd5b506004361061012c5760003560e01c806370a08231116100ad578063a22cb46511610071578063a22cb46514610357578063af296da114610373578063b88d4fde146103a3578063c87b56dd146103bf578063e985e9c5146103ef5761012c565b806370a082311461029f5780638da5cb5b146102cf57806395d89b41146102ed5780639a382f0f1461030b5780639cb04aef146103275761012c565b80631886f532116100f45780631886f532146101e957806323b872dd1461021957806342842e0e14610235578063484cc81f146102515780636352211e1461026f5761012c565b806301ffc9a71461013157806306fdde0314610161578063081812fc1461017f578063095ea7b3146101af57806318160ddd146101cb575b600080fd5b61014b60048036038101906101469190611ed7565b61041f565b6040516101589190611f1f565b60405180910390f35b610169610501565b6040516101769190611fca565b60405180910390f35b61019960048036038101906101949190612022565b610593565b6040516101a69190612090565b60405180910390f35b6101c960048036038101906101c491906120d7565b6105af565b005b6101d36105c5565b6040516101e09190612126565b60405180910390f35b61020360048036038101906101fe9190612177565b6105cb565b60405161021091906122d1565b60405180910390f35b610233600480360381019061022e91906122f3565b610869565b005b61024f600480360381019061024a91906122f3565b61096b565b005b61025961098b565b60405161026691906124cd565b60405180910390f35b61028960048036038101906102849190612022565b610cd9565b6040516102969190612090565b60405180910390f35b6102b960048036038101906102b491906124ef565b610ceb565b6040516102c69190612126565b60405180910390f35b6102d7610da5565b6040516102e49190612090565b60405180910390f35b6102f5610dcb565b6040516103029190611fca565b60405180910390f35b61032560048036038101906103209190612651565b610e5d565b005b610341600480360381019061033c919061274e565b611008565b60405161034e9190611f1f565b60405180910390f35b610371600480360381019061036c91906127ba565b611037565b005b61038d600480360381019061038891906127fa565b61104d565b60405161039a9190612090565b60405180910390f35b6103bd60048036038101906103b891906128db565b61108f565b005b6103d960048036038101906103d49190612022565b6110ac565b6040516103e69190611fca565b60405180910390f35b6104096004803603810190610404919061295e565b611115565b6040516104169190611f1f565b60405180910390f35b60007f80ac58cd000000000000000000000000000000000000000000000000000000007bffffffffffffffffffffffffffffffffffffffffffffffffffffffff1916827bffffffffffffffffffffffffffffffffffffffffffffffffffffffff191614806104ea57507f5b5e139f000000000000000000000000000000000000000000000000000000007bffffffffffffffffffffffffffffffffffffffffffffffffffffffff1916827bffffffffffffffffffffffffffffffffffffffffffffffffffffffff1916145b806104fa57506104f9826111a9565b5b9050919050565b606060008054610510906129cd565b80601f016020809104026020016040519081016040528092919081815260200182805461053c906129cd565b80156105895780601f1061055e57610100808354040283529160200191610589565b820191906000526020600020905b81548152906001019060200180831161056c57829003601f168201915b5050505050905090565b600061059e82611213565b506105a88261129b565b9050919050565b6105c182826105bc6112d8565b6112e0565b5050565b60075481565b6105d3611e23565b60086000838152602001908152602001600020604051806101000160405290816000820154815260200160018201805461060c906129cd565b80601f0160208091040260200160405190810160405280929190818152602001828054610638906129cd565b80156106855780601f1061065a57610100808354040283529160200191610685565b820191906000526020600020905b81548152906001019060200180831161066857829003601f168201915b505050505081526020016002820154815260200160038201548152602001600482015481526020016005820180546106bc906129cd565b80601f01602080910402602001604051908101604052809291908181526020018280546106e8906129cd565b80156107355780601f1061070a57610100808354040283529160200191610735565b820191906000526020600020905b81548152906001019060200180831161071857829003601f168201915b5050505050815260200160068201805461074e906129cd565b80601f016020809104026020016040519081016040528092919081815260200182805461077a906129cd565b80156107c75780601f1061079c576101008083540402835291602001916107c7565b820191906000526020600020905b8154815290600101906020018083116107aa57829003601f168201915b505050505081526020016007820180546107e0906129cd565b80601f016020809104026020016040519081016040528092919081815260200182805461080c906129cd565b80156108595780601f1061082e57610100808354040283529160200191610859565b820191906000526020600020905b81548152906001019060200180831161083c57829003601f168201915b5050505050815250509050919050565b600073ffffffffffffffffffffffffffffffffffffffff168273ffffffffffffffffffffffffffffffffffffffff16036108db5760006040517f64a0ae920000000000000000000000000000000000000000000000000000000081526004016108d29190612090565b60405180910390fd5b60006108ef83836108ea6112d8565b6112f2565b90508373ffffffffffffffffffffffffffffffffffffffff168173ffffffffffffffffffffffffffffffffffffffff1614610965578382826040517f64283d7b00000000000000000000000000000000000000000000000000000000815260040161095c939291906129fe565b60405180910390fd5b50505050565b6109868383836040518060200160405280600081525061108f565b505050565b60608060098054905067ffffffffffffffff8111156109ad576109ac612526565b5b6040519080825280602002602001820160405280156109e657816020015b6109d3611e23565b8152602001906001900390816109cb5790505b50905060005b600980549050811015610cd1576008600060098381548110610a1157610a10612a35565b5b906000526020600020015481526020019081526020016000206040518061010001604052908160008201548152602001600182018054610a50906129cd565b80601f0160208091040260200160405190810160405280929190818152602001828054610a7c906129cd565b8015610ac95780601f10610a9e57610100808354040283529160200191610ac9565b820191906000526020600020905b815481529060010190602001808311610aac57829003601f168201915b50505050508152602001600282015481526020016003820154815260200160048201548152602001600582018054610b00906129cd565b80601f0160208091040260200160405190810160405280929190818152602001828054610b2c906129cd565b8015610b795780601f10610b4e57610100808354040283529160200191610b79565b820191906000526020600020905b815481529060010190602001808311610b5c57829003601f168201915b50505050508152602001600682018054610b92906129cd565b80601f0160208091040260200160405190810160405280929190818152602001828054610bbe906129cd565b8015610c0b5780601f10610be057610100808354040283529160200191610c0b565b820191906000526020600020905b815481529060010190602001808311610bee57829003601f168201915b50505050508152602001600782018054610c24906129cd565b80601f0160208091040260200160405190810160405280929190818152602001828054610c50906129cd565b8015610c9d5780601f10610c7257610100808354040283529160200191610c9d565b820191906000526020600020905b815481529060010190602001808311610c8057829003601f168201915b505050505081525050828281518110610cb957610cb8612a35565b5b602002602001018190525080806001019150506109ec565b508091505090565b6000610ce482611213565b9050919050565b60008073ffffffffffffffffffffffffffffffffffffffff168273ffffffffffffffffffffffffffffffffffffffff1603610d5e5760006040517f89c62b64000000000000000000000000000000000000000000000000000000008152600401610d559190612090565b60405180910390fd5b600360008373ffffffffffffffffffffffffffffffffffffffff1673ffffffffffffffffffffffffffffffffffffffff168152602001908152602001600020549050919050565b600660009054906101000a900473ffffffffffffffffffffffffffffffffffffffff1681565b606060018054610dda906129cd565b80601f0160208091040260200160405190810160405280929190818152602001828054610e06906129cd565b8015610e535780601f10610e2857610100808354040283529160200191610e53565b820191906000526020600020905b815481529060010190602001808311610e3657829003601f168201915b5050505050905090565b600660009054906101000a900473ffffffffffffffffffffffffffffffffffffffff1673ffffffffffffffffffffffffffffffffffffffff163373ffffffffffffffffffffffffffffffffffffffff1614610eb757600080fd5b6000610ec161150c565b905060006040518061010001604052808381526020018981526020018881526020018781526020018781526020018681526020018581526020018481525090508060086000848152602001908152602001600020600082015181600001556020820151816001019081610f349190612c10565b5060408201518160020155606082015181600301556080820151816004015560a0820151816005019081610f689190612c10565b5060c0820151816006019081610f7e9190612c10565b5060e0820151816007019081610f949190612c10565b5090505060098290806001815401808255809150506001900390600052602060002001600090919091909150557fedaa6a49c8e930ab650e893249a283a91cb23ed6b6d3cf163169a74072d56c6b82898989604051610ff69493929190612cf1565b60405180910390a15050505050505050565b600a6020528160005260406000206020528060005260406000206000915091509054906101000a900460ff1681565b6110496110426112d8565b838361153e565b5050565b600b6020528160005260406000206020528060005260406000206000915091509054906101000a900473ffffffffffffffffffffffffffffffffffffffff1681565b61109a848484610869565b6110a6848484846116ad565b50505050565b60606110b782611213565b5060006110c2611864565b905060008151116110e2576040518060200160405280600081525061110d565b806110ec8461187b565b6040516020016110fd929190612d79565b6040516020818303038152906040525b915050919050565b6000600560008473ffffffffffffffffffffffffffffffffffffffff1673ffffffffffffffffffffffffffffffffffffffff16815260200190815260200160002060008373ffffffffffffffffffffffffffffffffffffffff1673ffffffffffffffffffffffffffffffffffffffff16815260200190815260200160002060009054906101000a900460ff16905092915050565b60007f01ffc9a7000000000000000000000000000000000000000000000000000000007bffffffffffffffffffffffffffffffffffffffffffffffffffffffff1916827bffffffffffffffffffffffffffffffffffffffffffffffffffffffff1916149050919050565b60008061121f83611949565b9050600073ffffffffffffffffffffffffffffffffffffffff168173ffffffffffffffffffffffffffffffffffffffff160361129257826040517f7e2732890000000000000000000000000000000000000000000000000000000081526004016112899190612126565b60405180910390fd5b80915050919050565b60006004600083815260200190815260200160002060009054906101000a900473ffffffffffffffffffffffffffffffffffffffff169050919050565b600033905090565b6112ed8383836001611986565b505050565b6000806112fe84611949565b9050600073ffffffffffffffffffffffffffffffffffffffff168373ffffffffffffffffffffffffffffffffffffffff16146113405761133f818486611b4b565b5b600073ffffffffffffffffffffffffffffffffffffffff168173ffffffffffffffffffffffffffffffffffffffff16146113d157611382600085600080611986565b6001600360008373ffffffffffffffffffffffffffffffffffffffff1673ffffffffffffffffffffffffffffffffffffffff168152602001908152602001600020600082825403925050819055505b600073ffffffffffffffffffffffffffffffffffffffff168573ffffffffffffffffffffffffffffffffffffffff1614611454576001600360008773ffffffffffffffffffffffffffffffffffffffff1673ffffffffffffffffffffffffffffffffffffffff168152602001908152602001600020600082825401925050819055505b846002600086815260200190815260200160002060006101000a81548173ffffffffffffffffffffffffffffffffffffffff021916908373ffffffffffffffffffffffffffffffffffffffff160217905550838573ffffffffffffffffffffffffffffffffffffffff168273ffffffffffffffffffffffffffffffffffffffff167fddf252ad1be2c89b69c2b068fc378daa952ba7f163c4a11628f55a4df523b3ef60405160405180910390a4809150509392505050565b600042334460405160200161152393929190612e06565b60405160208183030381529060405280519060200120905090565b600073ffffffffffffffffffffffffffffffffffffffff168273ffffffffffffffffffffffffffffffffffffffff16036115af57816040517f5b08ba180000000000000000000000000000000000000000000000000000000081526004016115a69190612090565b60405180910390fd5b80600560008573ffffffffffffffffffffffffffffffffffffffff1673ffffffffffffffffffffffffffffffffffffffff16815260200190815260200160002060008473ffffffffffffffffffffffffffffffffffffffff1673ffffffffffffffffffffffffffffffffffffffff16815260200190815260200160002060006101000a81548160ff0219169083151502179055508173ffffffffffffffffffffffffffffffffffffffff168373ffffffffffffffffffffffffffffffffffffffff167f17307eab39ab6107e8899845ad3d59bd9653f200f220920489ca2b5937696c31836040516116a09190611f1f565b60405180910390a3505050565b60008373ffffffffffffffffffffffffffffffffffffffff163b111561185e578273ffffffffffffffffffffffffffffffffffffffff1663150b7a026116f16112d8565b8685856040518563ffffffff1660e01b81526004016117139493929190612e98565b6020604051808303816000875af192505050801561174f57506040513d601f19601f8201168201806040525081019061174c9190612ef9565b60015b6117d3573d806000811461177f576040519150601f19603f3d011682016040523d82523d6000602084013e611784565b606091505b5060008151036117cb57836040517f64a0ae920000000000000000000000000000000000000000000000000000000081526004016117c29190612090565b60405180910390fd5b805181602001fd5b63150b7a0260e01b7bffffffffffffffffffffffffffffffffffffffffffffffffffffffff1916817bffffffffffffffffffffffffffffffffffffffffffffffffffffffff19161461185c57836040517f64a0ae920000000000000000000000000000000000000000000000000000000081526004016118539190612090565b60405180910390fd5b505b50505050565b606060405180602001604052806000815250905090565b60606000600161188a84611c0f565b01905060008167ffffffffffffffff8111156118a9576118a8612526565b5b6040519080825280601f01601f1916602001820160405280156118db5781602001600182028036833780820191505090505b509050600082602001820190505b60011561193e578080600190039150507f3031323334353637383961626364656600000000000000000000000000000000600a86061a8153600a858161193257611931612f26565b5b049450600085036118e9575b819350505050919050565b60006002600083815260200190815260200160002060009054906101000a900473ffffffffffffffffffffffffffffffffffffffff169050919050565b80806119bf5750600073ffffffffffffffffffffffffffffffffffffffff168273ffffffffffffffffffffffffffffffffffffffff1614155b15611af35760006119cf84611213565b9050600073ffffffffffffffffffffffffffffffffffffffff168373ffffffffffffffffffffffffffffffffffffffff1614158015611a3a57508273ffffffffffffffffffffffffffffffffffffffff168173ffffffffffffffffffffffffffffffffffffffff1614155b8015611a4d5750611a4b8184611115565b155b15611a8f57826040517fa9fbf51f000000000000000000000000000000000000000000000000000000008152600401611a869190612090565b60405180910390fd5b8115611af157838573ffffffffffffffffffffffffffffffffffffffff168273ffffffffffffffffffffffffffffffffffffffff167f8c5be1e5ebec7d5bd14f71427d1e84f3dd0314c0f7b2291e5b200ac8c7c3b92560405160405180910390a45b505b836004600085815260200190815260200160002060006101000a81548173ffffffffffffffffffffffffffffffffffffffff021916908373ffffffffffffffffffffffffffffffffffffffff16021790555050505050565b611b56838383611d62565b611c0a57600073ffffffffffffffffffffffffffffffffffffffff168373ffffffffffffffffffffffffffffffffffffffff1603611bcb57806040517f7e273289000000000000000000000000000000000000000000000000000000008152600401611bc29190612126565b60405180910390fd5b81816040517f177e802f000000000000000000000000000000000000000000000000000000008152600401611c01929190612f55565b60405180910390fd5b505050565b600080600090507a184f03e93ff9f4daa797ed6e38ed64bf6a1f0100000000000000008310611c6d577a184f03e93ff9f4daa797ed6e38ed64bf6a1f0100000000000000008381611c6357611c62612f26565b5b0492506040810190505b6d04ee2d6d415b85acef81000000008310611caa576d04ee2d6d415b85acef81000000008381611ca057611c9f612f26565b5b0492506020810190505b662386f26fc100008310611cd957662386f26fc100008381611ccf57611cce612f26565b5b0492506010810190505b6305f5e1008310611d02576305f5e1008381611cf857611cf7612f26565b5b0492506008810190505b6127108310611d27576127108381611d1d57611d1c612f26565b5b0492506004810190505b60648310611d4a5760648381611d4057611d3f612f26565b5b0492506002810190505b600a8310611d59576001810190505b80915050919050565b60008073ffffffffffffffffffffffffffffffffffffffff168373ffffffffffffffffffffffffffffffffffffffff1614158015611e1a57508273ffffffffffffffffffffffffffffffffffffffff168473ffffffffffffffffffffffffffffffffffffffff161480611ddb5750611dda8484611115565b5b80611e1957508273ffffffffffffffffffffffffffffffffffffffff16611e018361129b565b73ffffffffffffffffffffffffffffffffffffffff16145b5b90509392505050565b60405180610100016040528060008019168152602001606081526020016000815260200160008152602001600081526020016060815260200160608152602001606081525090565b6000604051905090565b600080fd5b600080fd5b60007fffffffff0000000000000000000000000000000000000000000000000000000082169050919050565b611eb481611e7f565b8114611ebf57600080fd5b50565b600081359050611ed181611eab565b92915050565b600060208284031215611eed57611eec611e75565b5b6000611efb84828501611ec2565b91505092915050565b60008115159050919050565b611f1981611f04565b82525050565b6000602082019050611f346000830184611f10565b92915050565b600081519050919050565b600082825260208201905092915050565b60005b83811015611f74578082015181840152602081019050611f59565b60008484015250505050565b6000601f19601f8301169050919050565b6000611f9c82611f3a565b611fa68185611f45565b9350611fb6818560208601611f56565b611fbf81611f80565b840191505092915050565b60006020820190508181036000830152611fe48184611f91565b905092915050565b6000819050919050565b611fff81611fec565b811461200a57600080fd5b50565b60008135905061201c81611ff6565b92915050565b60006020828403121561203857612037611e75565b5b60006120468482850161200d565b91505092915050565b600073ffffffffffffffffffffffffffffffffffffffff82169050919050565b600061207a8261204f565b9050919050565b61208a8161206f565b82525050565b60006020820190506120a56000830184612081565b92915050565b6120b48161206f565b81146120bf57600080fd5b50565b6000813590506120d1816120ab565b92915050565b600080604083850312156120ee576120ed611e75565b5b60006120fc858286016120c2565b925050602061210d8582860161200d565b9150509250929050565b61212081611fec565b82525050565b600060208201905061213b6000830184612117565b92915050565b6000819050919050565b61215481612141565b811461215f57600080fd5b50565b6000813590506121718161214b565b92915050565b60006020828403121561218d5761218c611e75565b5b600061219b84828501612162565b91505092915050565b6121ad81612141565b82525050565b600082825260208201905092915050565b60006121cf82611f3a565b6121d981856121b3565b93506121e9818560208601611f56565b6121f281611f80565b840191505092915050565b61220681611fec565b82525050565b60006101008301600083015161222560008601826121a4565b506020830151848203602086015261223d82826121c4565b915050604083015161225260408601826121fd565b50606083015161226560608601826121fd565b50608083015161227860808601826121fd565b5060a083015184820360a086015261229082826121c4565b91505060c083015184820360c08601526122aa82826121c4565b91505060e083015184820360e08601526122c482826121c4565b9150508091505092915050565b600060208201905081810360008301526122eb818461220c565b905092915050565b60008060006060848603121561230c5761230b611e75565b5b600061231a868287016120c2565b935050602061232b868287016120c2565b925050604061233c8682870161200d565b9150509250925092565b600081519050919050565b600082825260208201905092915050565b6000819050602082019050919050565b60006101008301600083015161238b60008601826121a4565b50602083015184820360208601526123a382826121c4565b91505060408301516123b860408601826121fd565b5060608301516123cb60608601826121fd565b5060808301516123de60808601826121fd565b5060a083015184820360a08601526123f682826121c4565b91505060c083015184820360c086015261241082826121c4565b91505060e083015184820360e086015261242a82826121c4565b9150508091505092915050565b60006124438383612372565b905092915050565b6000602082019050919050565b600061246382612346565b61246d8185612351565b93508360208202850161247f85612362565b8060005b858110156124bb578484038952815161249c8582612437565b94506124a78361244b565b925060208a01995050600181019050612483565b50829750879550505050505092915050565b600060208201905081810360008301526124e78184612458565b905092915050565b60006020828403121561250557612504611e75565b5b6000612513848285016120c2565b91505092915050565b600080fd5b600080fd5b7f4e487b7100000000000000000000000000000000000000000000000000000000600052604160045260246000fd5b61255e82611f80565b810181811067ffffffffffffffff8211171561257d5761257c612526565b5b80604052505050565b6000612590611e6b565b905061259c8282612555565b919050565b600067ffffffffffffffff8211156125bc576125bb612526565b5b6125c582611f80565b9050602081019050919050565b82818337600083830152505050565b60006125f46125ef846125a1565b612586565b9050828152602081018484840111156126105761260f612521565b5b61261b8482856125d2565b509392505050565b600082601f8301126126385761263761251c565b5b81356126488482602086016125e1565b91505092915050565b60008060008060008060c0878903121561266e5761266d611e75565b5b600087013567ffffffffffffffff81111561268c5761268b611e7a565b5b61269889828a01612623565b96505060206126a989828a0161200d565b95505060406126ba89828a0161200d565b945050606087013567ffffffffffffffff8111156126db576126da611e7a565b5b6126e789828a01612623565b935050608087013567ffffffffffffffff81111561270857612707611e7a565b5b61271489828a01612623565b92505060a087013567ffffffffffffffff81111561273557612734611e7a565b5b61274189828a01612623565b9150509295509295509295565b6000806040838503121561276557612764611e75565b5b60006127738582860161200d565b9250506020612784858286016120c2565b9150509250929050565b61279781611f04565b81146127a257600080fd5b50565b6000813590506127b48161278e565b92915050565b600080604083850312156127d1576127d0611e75565b5b60006127df858286016120c2565b92505060206127f0858286016127a5565b9150509250929050565b6000806040838503121561281157612810611e75565b5b600061281f8582860161200d565b92505060206128308582860161200d565b9150509250929050565b600067ffffffffffffffff82111561285557612854612526565b5b61285e82611f80565b9050602081019050919050565b600061287e6128798461283a565b612586565b90508281526020810184848401111561289a57612899612521565b5b6128a58482856125d2565b509392505050565b600082601f8301126128c2576128c161251c565b5b81356128d284826020860161286b565b91505092915050565b600080600080608085870312156128f5576128f4611e75565b5b6000612903878288016120c2565b9450506020612914878288016120c2565b93505060406129258782880161200d565b925050606085013567ffffffffffffffff81111561294657612945611e7a565b5b612952878288016128ad565b91505092959194509250565b6000806040838503121561297557612974611e75565b5b6000612983858286016120c2565b9250506020612994858286016120c2565b9150509250929050565b7f4e487b7100000000000000000000000000000000000000000000000000000000600052602260045260246000fd5b600060028204905060018216806129e557607f821691505b6020821081036129f8576129f761299e565b5b50919050565b6000606082019050612a136000830186612081565b612a206020830185612117565b612a2d6040830184612081565b949350505050565b7f4e487b7100000000000000000000000000000000000000000000000000000000600052603260045260246000fd5b60008190508160005260206000209050919050565b60006020601f8301049050919050565b600082821b905092915050565b600060088302612ac67fffffffffffffffffffffffffffffffffffffffffffffffffffffffffffffffff82612a89565b612ad08683612a89565b95508019841693508086168417925050509392505050565b6000819050919050565b6000612b0d612b08612b0384611fec565b612ae8565b611fec565b9050919050565b6000819050919050565b612b2783612af2565b612b3b612b3382612b14565b848454612a96565b825550505050565b600090565b612b50612b43565b612b5b818484612b1e565b505050565b5b81811015612b7f57612b74600082612b48565b600181019050612b61565b5050565b601f821115612bc457612b9581612a64565b612b9e84612a79565b81016020851015612bad578190505b612bc1612bb985612a79565b830182612b60565b50505b505050565b600082821c905092915050565b6000612be760001984600802612bc9565b1980831691505092915050565b6000612c008383612bd6565b9150826002028217905092915050565b612c1982611f3a565b67ffffffffffffffff811115612c3257612c31612526565b5b612c3c82546129cd565b612c47828285612b83565b600060209050601f831160018114612c7a5760008415612c68578287015190505b612c728582612bf4565b865550612cda565b601f198416612c8886612a64565b60005b82811015612cb057848901518255600182019150602085019450602081019050612c8b565b86831015612ccd5784890151612cc9601f891682612bd6565b8355505b6001600288020188555050505b505050505050565b612ceb81612141565b82525050565b6000608082019050612d066000830187612ce2565b8181036020830152612d188186611f91565b9050612d276040830185612117565b612d346060830184612117565b95945050505050565b600081905092915050565b6000612d5382611f3a565b612d5d8185612d3d565b9350612d6d818560208601611f56565b80840191505092915050565b6000612d858285612d48565b9150612d918284612d48565b91508190509392505050565b6000819050919050565b612db8612db382611fec565b612d9d565b82525050565b60008160601b9050919050565b6000612dd682612dbe565b9050919050565b6000612de882612dcb565b9050919050565b612e00612dfb8261206f565b612ddd565b82525050565b6000612e128286612da7565b602082019150612e228285612def565b601482019150612e328284612da7565b602082019150819050949350505050565b600081519050919050565b600082825260208201905092915050565b6000612e6a82612e43565b612e748185612e4e565b9350612e84818560208601611f56565b612e8d81611f80565b840191505092915050565b6000608082019050612ead6000830187612081565b612eba6020830186612081565b612ec76040830185612117565b8181036060830152612ed98184612e5f565b905095945050505050565b600081519050612ef381611eab565b92915050565b600060208284031215612f0f57612f0e611e75565b5b6000612f1d84828501612ee4565b91505092915050565b7f4e487b7100000000000000000000000000000000000000000000000000000000600052601260045260246000fd5b6000604082019050612f6a6000830185612081565b612f776020830184612117565b939250505056fea26469706673582212201ac117e9b7834adf966652880a6f914ed69a2683bc477c7ed6d1430634a2f31764736f6c63430008180033",
  "linkReferences": {},
  "deployedLinkReferences": {}
}