{
  "_format": "hh-sol-artifact-1",
  "contractName": "Crowdfunding",
  "sourceName": "contracts/crowdfunding.sol",
  "abi": [
    {
      "inputs": [],
      "stateMutability": "nonpayable",
      "type": "constructor"
    },
    {
      "inputs": [
        {
          "internalType": "bytes32",
          "name": "campaignId",
          "type": "bytes32"
        }
      ],
      "name": "addDonative",
      "outputs": [],
      "stateMutability": "payable",
      "type": "function"
    },
    {
      "inputs": [
        {
          "internalType": "string",
          "name": "_title",
          "type": "string"
        },
        {
          "internalType": "string",
          "name": "_description",
          "type": "string"
        },
        {
          "internalType": "uint256",
          "name": "_expectedAmount",
          "type": "uint256"
        }
      ],
      "name": "createCampaign",
      "outputs": [],
      "stateMutability": "nonpayable",
      "type": "function"
    },
    {
      "inputs": [],
      "name": "getAllCampaigns",
      "outputs": [
        {
          "components": [
            {
              "internalType": "bytes32",
              "name": "Id",
              "type": "bytes32"
            },
            {
              "internalType": "string",
              "name": "title",
              "type": "string"
            },
            {
              "internalType": "string",
              "name": "description",
              "type": "string"
            },
            {
              "internalType": "uint256",
              "name": "expectedAmount",
              "type": "uint256"
            },
            {
              "internalType": "uint256",
              "name": "amount",
              "type": "uint256"
            },
            {
              "internalType": "address",
              "name": "owner",
              "type": "address"
            },
            {
              "internalType": "uint256",
              "name": "startDate",
              "type": "uint256"
            },
            {
              "internalType": "uint256",
              "name": "endDate",
              "type": "uint256"
            },
            {
              "internalType": "bool",
              "name": "isActive",
              "type": "bool"
            },
            {
              "internalType": "bool",
              "name": "completed",
              "type": "bool"
            }
          ],
          "internalType": "struct Crowdfunding.Campaign[]",
          "name": "",
          "type": "tuple[]"
        }
      ],
      "stateMutability": "view",
      "type": "function"
    },
    {
      "inputs": [
        {
          "internalType": "bytes32",
          "name": "campaignId",
          "type": "bytes32"
        }
      ],
      "name": "getCampaignInfo",
      "outputs": [
        {
          "components": [
            {
              "internalType": "bytes32",
              "name": "Id",
              "type": "bytes32"
            },
            {
              "internalType": "string",
              "name": "title",
              "type": "string"
            },
            {
              "internalType": "string",
              "name": "description",
              "type": "string"
            },
            {
              "internalType": "uint256",
              "name": "expectedAmount",
              "type": "uint256"
            },
            {
              "internalType": "uint256",
              "name": "amount",
              "type": "uint256"
            },
            {
              "internalType": "address",
              "name": "owner",
              "type": "address"
            },
            {
              "internalType": "uint256",
              "name": "startDate",
              "type": "uint256"
            },
            {
              "internalType": "uint256",
              "name": "endDate",
              "type": "uint256"
            },
            {
              "internalType": "bool",
              "name": "isActive",
              "type": "bool"
            },
            {
              "internalType": "bool",
              "name": "completed",
              "type": "bool"
            }
          ],
          "internalType": "struct Crowdfunding.Campaign",
          "name": "",
          "type": "tuple"
        }
      ],
      "stateMutability": "view",
      "type": "function"
    },
    {
      "inputs": [
        {
          "internalType": "bytes32",
          "name": "campaignId",
          "type": "bytes32"
        }
      ],
      "name": "getDonatives",
      "outputs": [
        {
          "components": [
            {
              "internalType": "address",
              "name": "donner",
              "type": "address"
            },
            {
              "internalType": "uint256",
              "name": "quantity",
              "type": "uint256"
            },
            {
              "internalType": "uint256",
              "name": "endDate",
              "type": "uint256"
            }
          ],
          "internalType": "struct Crowdfunding.Donative[]",
          "name": "",
          "type": "tuple[]"
        }
      ],
      "stateMutability": "view",
      "type": "function"
    },
    {
      "inputs": [],
      "name": "platformOwner",
      "outputs": [
        {
          "internalType": "address",
          "name": "",
          "type": "address"
        }
      ],
      "stateMutability": "view",
      "type": "function"
    },
    {
      "inputs": [],
      "name": "reviewCampaignsJob",
      "outputs": [],
      "stateMutability": "nonpayable",
      "type": "function"
    },
    {
      "inputs": [
        {
          "internalType": "bytes32",
          "name": "campaignId",
          "type": "bytes32"
        },
        {
          "internalType": "string",
          "name": "_title",
          "type": "string"
        },
        {
          "internalType": "string",
          "name": "_description",
          "type": "string"
        },
        {
          "internalType": "uint256",
          "name": "_expectedAmount",
          "type": "uint256"
        }
      ],
      "name": "updateCampaign",
      "outputs": [],
      "stateMutability": "nonpayable",
      "type": "function"
    }
  ],
  "bytecode": "0x608060405234801561001057600080fd5b506003600181905550336000806101000a81548173ffffffffffffffffffffffffffffffffffffffff021916908373ffffffffffffffffffffffffffffffffffffffff16021790555061286b806100686000396000f3fe60806040526004361061007b5760003560e01c806386cdf6041161004e57806386cdf6041461012d578063b0f987d114610158578063b999be1b1461016f578063ffa56a57146101ac5761007b565b80634df8ccb1146100805780635a027880146100ab57806361988c55146100c75780637427ee59146100f0575b600080fd5b34801561008c57600080fd5b506100956101d5565b6040516100a2919061176a565b60405180910390f35b6100c560048036038101906100c091906117cf565b6101f9565b005b3480156100d357600080fd5b506100ee60048036038101906100e99190611978565b610473565b005b3480156100fc57600080fd5b50610117600480360381019061011291906117cf565b610766565b6040516101249190611b26565b60405180910390f35b34801561013957600080fd5b50610142610a91565b60405161014f9190611d94565b60405180910390f35b34801561016457600080fd5b5061016d610d52565b005b34801561017b57600080fd5b50610196600480360381019061019191906117cf565b61113c565b6040516101a39190611e97565b60405180910390f35b3480156101b857600080fd5b506101d360048036038101906101ce9190611eb9565b61139b565b005b60008054906101000a900473ffffffffffffffffffffffffffffffffffffffff1681565b6000341161023c576040517f08c379a000000000000000000000000000000000000000000000000000000000815260040161023390611fa1565b60405180910390fd5b6000801b8103610281576040517f08c379a00000000000000000000000000000000000000000000000000000000081526004016102789061200d565b60405180910390fd5b6002600082815260200190815260200160002060080160019054906101000a900460ff16156102e5576040517f08c379a00000000000000000000000000000000000000000000000000000000081526004016102dc9061209f565b60405180910390fd5b6000801b600260008381526020019081526020016000206000015403610340576040517f08c379a00000000000000000000000000000000000000000000000000000000081526004016103379061210b565b60405180910390fd5b600060405180606001604052803373ffffffffffffffffffffffffffffffffffffffff1681526020013481526020014281525090506005600083815260200190815260200160002081908060018154018082558091505060019003906000526020600020906003020160009091909190915060008201518160000160006101000a81548173ffffffffffffffffffffffffffffffffffffffff021916908373ffffffffffffffffffffffffffffffffffffffff1602179055506020820151816001015560408201518160020155505060006002600084815260200190815260200160002090503481600401600082825461043a919061215a565b92505081905550806003015481600401541061046e5760018160080160016101000a81548160ff0219169083151502179055505b505050565b6000801b84036104b8576040517f08c379a00000000000000000000000000000000000000000000000000000000081526004016104af9061200d565b60405180910390fd5b6000801b600260008681526020019081526020016000206000015403610513576040517f08c379a000000000000000000000000000000000000000000000000000000000815260040161050a9061210b565b60405180910390fd5b6002600085815260200190815260200160002060080160019054906101000a900460ff1615610577576040517f08c379a000000000000000000000000000000000000000000000000000000000815260040161056e9061209f565b60405180910390fd5b6002600085815260200190815260200160002060080160009054906101000a900460ff166105da576040517f08c379a00000000000000000000000000000000000000000000000000000000081526004016105d1906121da565b60405180910390fd5b600083510361061e576040517f08c379a000000000000000000000000000000000000000000000000000000000815260040161061590612246565b60405180910390fd5b6000825103610662576040517f08c379a0000000000000000000000000000000000000000000000000000000008152600401610659906122b2565b60405180910390fd5b600081116106a5576040517f08c379a000000000000000000000000000000000000000000000000000000000815260040161069c9061231e565b60405180910390fd5b600260008581526020019081526020016000206004015481116106fd576040517f08c379a00000000000000000000000000000000000000000000000000000000081526004016106f4906123b0565b60405180910390fd5b8260026000868152602001908152602001600020600101908161072091906125dc565b508160026000868152602001908152602001600020600201908161074491906125dc565b5080600260008681526020019081526020016000206003018190555050505050565b606060006002600084815260200190815260200160002060405180610140016040529081600082015481526020016001820180546107a3906123ff565b80601f01602080910402602001604051908101604052809291908181526020018280546107cf906123ff565b801561081c5780601f106107f15761010080835404028352916020019161081c565b820191906000526020600020905b8154815290600101906020018083116107ff57829003601f168201915b50505050508152602001600282018054610835906123ff565b80601f0160208091040260200160405190810160405280929190818152602001828054610861906123ff565b80156108ae5780601f10610883576101008083540402835291602001916108ae565b820191906000526020600020905b81548152906001019060200180831161089157829003601f168201915b5050505050815260200160038201548152602001600482015481526020016005820160009054906101000a900473ffffffffffffffffffffffffffffffffffffffff1673ffffffffffffffffffffffffffffffffffffffff1673ffffffffffffffffffffffffffffffffffffffff16815260200160068201548152602001600782015481526020016008820160009054906101000a900460ff161515151581526020016008820160019054906101000a900460ff16151515158152505090506000801b8160000151036109b6576040517f08c379a00000000000000000000000000000000000000000000000000000000081526004016109ad9061210b565b60405180910390fd5b60056000848152602001908152602001600020805480602002602001604051908101604052809291908181526020016000905b82821015610a8557838290600052602060002090600302016040518060600160405290816000820160009054906101000a900473ffffffffffffffffffffffffffffffffffffffff1673ffffffffffffffffffffffffffffffffffffffff1673ffffffffffffffffffffffffffffffffffffffff16815260200160018201548152602001600282015481525050815260200190600101906109e9565b50505050915050919050565b6060600060038054905067ffffffffffffffff811115610ab457610ab3611817565b5b604051908082528060200260200182016040528015610aed57816020015b610ada6116b9565b815260200190600190039081610ad25790505b50905060005b600380549050811015610d4a576002600060038381548110610b1857610b176126ae565b5b906000526020600020015481526020019081526020016000206040518061014001604052908160008201548152602001600182018054610b57906123ff565b80601f0160208091040260200160405190810160405280929190818152602001828054610b83906123ff565b8015610bd05780601f10610ba557610100808354040283529160200191610bd0565b820191906000526020600020905b815481529060010190602001808311610bb357829003601f168201915b50505050508152602001600282018054610be9906123ff565b80601f0160208091040260200160405190810160405280929190818152602001828054610c15906123ff565b8015610c625780601f10610c3757610100808354040283529160200191610c62565b820191906000526020600020905b815481529060010190602001808311610c4557829003601f168201915b5050505050815260200160038201548152602001600482015481526020016005820160009054906101000a900473ffffffffffffffffffffffffffffffffffffffff1673ffffffffffffffffffffffffffffffffffffffff1673ffffffffffffffffffffffffffffffffffffffff16815260200160068201548152602001600782015481526020016008820160009054906101000a900460ff161515151581526020016008820160019054906101000a900460ff161515151581525050828281518110610d3257610d316126ae565b5b60200260200101819052508080600101915050610af3565b508091505090565b60008054906101000a900473ffffffffffffffffffffffffffffffffffffffff1673ffffffffffffffffffffffffffffffffffffffff163373ffffffffffffffffffffffffffffffffffffffff1614610daa57600080fd5b600042905060005b6003805490508110156111385760006002600060038481548110610dd957610dd86126ae565b5b906000526020600020015481526020019081526020016000209050806007015483101580610e0f57508060030154816004015410155b15610f075760008160080160006101000a81548160ff02191690831515021790555060008160050160009054906101000a900473ffffffffffffffffffffffffffffffffffffffff1673ffffffffffffffffffffffffffffffffffffffff168260040154604051610e7f9061270e565b60006040518083038185875af1925050503d8060008114610ebc576040519150601f19603f3d011682016040523d82523d6000602084013e610ec1565b606091505b5050905080610f05576040517f08c379a0000000000000000000000000000000000000000000000000000000008152600401610efc9061276f565b60405180910390fd5b505b80600701548310158015610f22575080600301548160040154105b1561112a5760008160080160006101000a81548160ff02191690831515021790555060006005600083600001548152602001908152602001600020805480602002602001604051908101604052809291908181526020016000905b8282101561101957838290600052602060002090600302016040518060600160405290816000820160009054906101000a900473ffffffffffffffffffffffffffffffffffffffff1673ffffffffffffffffffffffffffffffffffffffff1673ffffffffffffffffffffffffffffffffffffffff1681526020016001820154815260200160028201548152505081526020019060010190610f7d565b50505050905060005b81518110156111275760008282815181106110405761103f6126ae565b5b602002602001015160000151905060008173ffffffffffffffffffffffffffffffffffffffff1684848151811061107a576110796126ae565b5b6020026020010151602001516040516110929061270e565b60006040518083038185875af1925050503d80600081146110cf576040519150601f19603f3d011682016040523d82523d6000602084013e6110d4565b606091505b5050905080611118576040517f08c379a000000000000000000000000000000000000000000000000000000000815260040161110f9061276f565b60405180910390fd5b50508080600101915050611022565b50505b508080600101915050610db2565b5050565b6111446116b9565b600060026000848152602001908152602001600020604051806101400160405290816000820154815260200160018201805461117f906123ff565b80601f01602080910402602001604051908101604052809291908181526020018280546111ab906123ff565b80156111f85780601f106111cd576101008083540402835291602001916111f8565b820191906000526020600020905b8154815290600101906020018083116111db57829003601f168201915b50505050508152602001600282018054611211906123ff565b80601f016020809104026020016040519081016040528092919081815260200182805461123d906123ff565b801561128a5780601f1061125f5761010080835404028352916020019161128a565b820191906000526020600020905b81548152906001019060200180831161126d57829003601f168201915b5050505050815260200160038201548152602001600482015481526020016005820160009054906101000a900473ffffffffffffffffffffffffffffffffffffffff1673ffffffffffffffffffffffffffffffffffffffff1673ffffffffffffffffffffffffffffffffffffffff16815260200160068201548152602001600782015481526020016008820160009054906101000a900460ff161515151581526020016008820160019054906101000a900460ff16151515158152505090506000801b816000015103611392576040517f08c379a00000000000000000000000000000000000000000000000000000000081526004016113899061210b565b60405180910390fd5b80915050919050565b60008351036113df576040517f08c379a00000000000000000000000000000000000000000000000000000000081526004016113d690612246565b60405180910390fd5b6000825103611423576040517f08c379a000000000000000000000000000000000000000000000000000000000815260040161141a906122b2565b60405180910390fd5b60008111611466576040517f08c379a000000000000000000000000000000000000000000000000000000000815260040161145d9061231e565b60405180910390fd5b6000611470611687565b90506000429050600062278d0082611488919061215a565b90506000604051806101400160405280858152602001888152602001878152602001868152602001600081526020013373ffffffffffffffffffffffffffffffffffffffff168152602001848152602001838152602001600115158152602001600015158152509050806002600086815260200190815260200160002060008201518160000155602082015181600101908161152491906125dc565b50604082015181600201908161153a91906125dc565b50606082015181600301556080820151816004015560a08201518160050160006101000a81548173ffffffffffffffffffffffffffffffffffffffff021916908373ffffffffffffffffffffffffffffffffffffffff16021790555060c0820151816006015560e082015181600701556101008201518160080160006101000a81548160ff0219169083151502179055506101208201518160080160016101000a81548160ff021916908315150217905550905050600460003373ffffffffffffffffffffffffffffffffffffffff1673ffffffffffffffffffffffffffffffffffffffff168152602001908152602001600020849080600181540180825580915050600190039060005260206000200160009091909190915055600384908060018154018082558091505060019003906000526020600020016000909190919091505550505050505050565b600042334460405160200161169e939291906127f8565b60405160208183030381529060405280519060200120905090565b6040518061014001604052806000801916815260200160608152602001606081526020016000815260200160008152602001600073ffffffffffffffffffffffffffffffffffffffff16815260200160008152602001600081526020016000151581526020016000151581525090565b600073ffffffffffffffffffffffffffffffffffffffff82169050919050565b600061175482611729565b9050919050565b61176481611749565b82525050565b600060208201905061177f600083018461175b565b92915050565b6000604051905090565b600080fd5b600080fd5b6000819050919050565b6117ac81611799565b81146117b757600080fd5b50565b6000813590506117c9816117a3565b92915050565b6000602082840312156117e5576117e461178f565b5b60006117f3848285016117ba565b91505092915050565b600080fd5b600080fd5b6000601f19601f8301169050919050565b7f4e487b7100000000000000000000000000000000000000000000000000000000600052604160045260246000fd5b61184f82611806565b810181811067ffffffffffffffff8211171561186e5761186d611817565b5b80604052505050565b6000611881611785565b905061188d8282611846565b919050565b600067ffffffffffffffff8211156118ad576118ac611817565b5b6118b682611806565b9050602081019050919050565b82818337600083830152505050565b60006118e56118e084611892565b611877565b90508281526020810184848401111561190157611900611801565b5b61190c8482856118c3565b509392505050565b600082601f830112611929576119286117fc565b5b81356119398482602086016118d2565b91505092915050565b6000819050919050565b61195581611942565b811461196057600080fd5b50565b6000813590506119728161194c565b92915050565b600080600080608085870312156119925761199161178f565b5b60006119a0878288016117ba565b945050602085013567ffffffffffffffff8111156119c1576119c0611794565b5b6119cd87828801611914565b935050604085013567ffffffffffffffff8111156119ee576119ed611794565b5b6119fa87828801611914565b9250506060611a0b87828801611963565b91505092959194509250565b600081519050919050565b600082825260208201905092915050565b6000819050602082019050919050565b611a4c81611749565b82525050565b611a5b81611942565b82525050565b606082016000820151611a776000850182611a43565b506020820151611a8a6020850182611a52565b506040820151611a9d6040850182611a52565b50505050565b6000611aaf8383611a61565b60608301905092915050565b6000602082019050919050565b6000611ad382611a17565b611add8185611a22565b9350611ae883611a33565b8060005b83811015611b19578151611b008882611aa3565b9750611b0b83611abb565b925050600181019050611aec565b5085935050505092915050565b60006020820190508181036000830152611b408184611ac8565b905092915050565b600081519050919050565b600082825260208201905092915050565b6000819050602082019050919050565b611b7d81611799565b82525050565b600081519050919050565b600082825260208201905092915050565b60005b83811015611bbd578082015181840152602081019050611ba2565b60008484015250505050565b6000611bd482611b83565b611bde8185611b8e565b9350611bee818560208601611b9f565b611bf781611806565b840191505092915050565b60008115159050919050565b611c1781611c02565b82525050565b600061014083016000830151611c366000860182611b74565b5060208301518482036020860152611c4e8282611bc9565b91505060408301518482036040860152611c688282611bc9565b9150506060830151611c7d6060860182611a52565b506080830151611c906080860182611a52565b5060a0830151611ca360a0860182611a43565b5060c0830151611cb660c0860182611a52565b5060e0830151611cc960e0860182611a52565b50610100830151611cde610100860182611c0e565b50610120830151611cf3610120860182611c0e565b508091505092915050565b6000611d0a8383611c1d565b905092915050565b6000602082019050919050565b6000611d2a82611b48565b611d348185611b53565b935083602082028501611d4685611b64565b8060005b85811015611d825784840389528151611d638582611cfe565b9450611d6e83611d12565b925060208a01995050600181019050611d4a565b50829750879550505050505092915050565b60006020820190508181036000830152611dae8184611d1f565b905092915050565b600061014083016000830151611dcf6000860182611b74565b5060208301518482036020860152611de78282611bc9565b91505060408301518482036040860152611e018282611bc9565b9150506060830151611e166060860182611a52565b506080830151611e296080860182611a52565b5060a0830151611e3c60a0860182611a43565b5060c0830151611e4f60c0860182611a52565b5060e0830151611e6260e0860182611a52565b50610100830151611e77610100860182611c0e565b50610120830151611e8c610120860182611c0e565b508091505092915050565b60006020820190508181036000830152611eb18184611db6565b905092915050565b600080600060608486031215611ed257611ed161178f565b5b600084013567ffffffffffffffff811115611ef057611eef611794565b5b611efc86828701611914565b935050602084013567ffffffffffffffff811115611f1d57611f1c611794565b5b611f2986828701611914565b9250506040611f3a86828701611963565b9150509250925092565b600082825260208201905092915050565b7f496e636f727265637420646f6e61746976650000000000000000000000000000600082015250565b6000611f8b601283611f44565b9150611f9682611f55565b602082019050919050565b60006020820190508181036000830152611fba81611f7e565b9050919050565b7f43616d706169676e2049442063616e6e6f74206265207a65726f000000000000600082015250565b6000611ff7601a83611f44565b915061200282611fc1565b602082019050919050565b6000602082019050818103600083015261202681611fea565b9050919050565b7f43616d706169676e20616c72656164792072656163682074686520657870656360008201527f74656420616d6f756e7400000000000000000000000000000000000000000000602082015250565b6000612089602a83611f44565b91506120948261202d565b604082019050919050565b600060208201905081810360008301526120b88161207c565b9050919050565b7f496e76616c696420494400000000000000000000000000000000000000000000600082015250565b60006120f5600a83611f44565b9150612100826120bf565b602082019050919050565b60006020820190508181036000830152612124816120e8565b9050919050565b7f4e487b7100000000000000000000000000000000000000000000000000000000600052601160045260246000fd5b600061216582611942565b915061217083611942565b92508282019050808211156121885761218761212b565b5b92915050565b7f43616d706169676e20697320696e616374697665000000000000000000000000600082015250565b60006121c4601483611f44565b91506121cf8261218e565b602082019050919050565b600060208201905081810360008301526121f3816121b7565b9050919050565b7f7469746c652063616e206e6f7420626520656d70747900000000000000000000600082015250565b6000612230601683611f44565b915061223b826121fa565b602082019050919050565b6000602082019050818103600083015261225f81612223565b9050919050565b7f6465736372697074696f6e2063616e206e6f7420626520656d70747900000000600082015250565b600061229c601c83611f44565b91506122a782612266565b602082019050919050565b600060208201905081810360008301526122cb8161228f565b9050919050565b7f616d6f756e742063616e206e6f74206265206e65676174697665000000000000600082015250565b6000612308601a83611f44565b9150612313826122d2565b602082019050919050565b60006020820190508181036000830152612337816122fb565b9050919050565b7f457870656374656420616d6f756e742063616e206e6f74206265206c6573732060008201527f7468616e207468652063757272656e7420616d6d6f756e740000000000000000602082015250565b600061239a603883611f44565b91506123a58261233e565b604082019050919050565b600060208201905081810360008301526123c98161238d565b9050919050565b7f4e487b7100000000000000000000000000000000000000000000000000000000600052602260045260246000fd5b6000600282049050600182168061241757607f821691505b60208210810361242a576124296123d0565b5b50919050565b60008190508160005260206000209050919050565b60006020601f8301049050919050565b600082821b905092915050565b6000600883026124927fffffffffffffffffffffffffffffffffffffffffffffffffffffffffffffffff82612455565b61249c8683612455565b95508019841693508086168417925050509392505050565b6000819050919050565b60006124d96124d46124cf84611942565b6124b4565b611942565b9050919050565b6000819050919050565b6124f3836124be565b6125076124ff826124e0565b848454612462565b825550505050565b600090565b61251c61250f565b6125278184846124ea565b505050565b5b8181101561254b57612540600082612514565b60018101905061252d565b5050565b601f8211156125905761256181612430565b61256a84612445565b81016020851015612579578190505b61258d61258585612445565b83018261252c565b50505b505050565b600082821c905092915050565b60006125b360001984600802612595565b1980831691505092915050565b60006125cc83836125a2565b9150826002028217905092915050565b6125e582611b83565b67ffffffffffffffff8111156125fe576125fd611817565b5b61260882546123ff565b61261382828561254f565b600060209050601f8311600181146126465760008415612634578287015190505b61263e85826125c0565b8655506126a6565b601f19841661265486612430565b60005b8281101561267c57848901518255600182019150602085019450602081019050612657565b868310156126995784890151612695601f8916826125a2565b8355505b6001600288020188555050505b505050505050565b7f4e487b7100000000000000000000000000000000000000000000000000000000600052603260045260246000fd5b600081905092915050565b50565b60006126f86000836126dd565b9150612703826126e8565b600082019050919050565b6000612719826126eb565b9150819050919050565b7f5472616e73666572206661696c65640000000000000000000000000000000000600082015250565b6000612759600f83611f44565b915061276482612723565b602082019050919050565b600060208201905081810360008301526127888161274c565b9050919050565b6000819050919050565b6127aa6127a582611942565b61278f565b82525050565b60008160601b9050919050565b60006127c8826127b0565b9050919050565b60006127da826127bd565b9050919050565b6127f26127ed82611749565b6127cf565b82525050565b60006128048286612799565b60208201915061281482856127e1565b6014820191506128248284612799565b60208201915081905094935050505056fea264697066735822122063e0d81da6f4010405252e35074f4ee1b34d6bfad41654dc9f8362d4031e82b264736f6c63430008180033",
  "linkReferences": {},
  "deployedLinkReferences": {}
}