{
  "_format": "hh-sol-artifact-1",
  "contractName": "Crowdfunding",
  "sourceName": "contracts/crowdfunding.sol",
  "abi": [
    {
      "inputs": [],
      "stateMutability": "nonpayable",
      "type": "constructor"
    },
    {
      "inputs": [
        {
          "internalType": "bytes32",
          "name": "campaignId",
          "type": "bytes32"
        }
      ],
      "name": "addDonative",
      "outputs": [],
      "stateMutability": "payable",
      "type": "function"
    },
    {
      "inputs": [
        {
          "internalType": "string",
          "name": "_title",
          "type": "string"
        },
        {
          "internalType": "string",
          "name": "_description",
          "type": "string"
        },
        {
          "internalType": "uint256",
          "name": "_expectedAmount",
          "type": "uint256"
        }
      ],
      "name": "createCampaign",
      "outputs": [],
      "stateMutability": "nonpayable",
      "type": "function"
    },
    {
      "inputs": [],
      "name": "getAllCampaigns",
      "outputs": [
        {
          "components": [
            {
              "internalType": "bytes32",
              "name": "Id",
              "type": "bytes32"
            },
            {
              "internalType": "string",
              "name": "title",
              "type": "string"
            },
            {
              "internalType": "string",
              "name": "description",
              "type": "string"
            },
            {
              "internalType": "uint256",
              "name": "expectedAmount",
              "type": "uint256"
            },
            {
              "internalType": "uint256",
              "name": "amount",
              "type": "uint256"
            },
            {
              "internalType": "address",
              "name": "owner",
              "type": "address"
            },
            {
              "internalType": "uint256",
              "name": "startDate",
              "type": "uint256"
            },
            {
              "internalType": "uint256",
              "name": "endDate",
              "type": "uint256"
            },
            {
              "internalType": "bool",
              "name": "isActive",
              "type": "bool"
            },
            {
              "internalType": "bool",
              "name": "completed",
              "type": "bool"
            }
          ],
          "internalType": "struct Crowdfunding.Campaign[]",
          "name": "",
          "type": "tuple[]"
        }
      ],
      "stateMutability": "view",
      "type": "function"
    },
    {
      "inputs": [
        {
          "internalType": "bytes32",
          "name": "campaignId",
          "type": "bytes32"
        }
      ],
      "name": "getCampaignInfo",
      "outputs": [
        {
          "components": [
            {
              "internalType": "bytes32",
              "name": "Id",
              "type": "bytes32"
            },
            {
              "internalType": "string",
              "name": "title",
              "type": "string"
            },
            {
              "internalType": "string",
              "name": "description",
              "type": "string"
            },
            {
              "internalType": "uint256",
              "name": "expectedAmount",
              "type": "uint256"
            },
            {
              "internalType": "uint256",
              "name": "amount",
              "type": "uint256"
            },
            {
              "internalType": "address",
              "name": "owner",
              "type": "address"
            },
            {
              "internalType": "uint256",
              "name": "startDate",
              "type": "uint256"
            },
            {
              "internalType": "uint256",
              "name": "endDate",
              "type": "uint256"
            },
            {
              "internalType": "bool",
              "name": "isActive",
              "type": "bool"
            },
            {
              "internalType": "bool",
              "name": "completed",
              "type": "bool"
            }
          ],
          "internalType": "struct Crowdfunding.Campaign",
          "name": "",
          "type": "tuple"
        }
      ],
      "stateMutability": "view",
      "type": "function"
    },
    {
      "inputs": [
        {
          "internalType": "bytes32",
          "name": "campaignId",
          "type": "bytes32"
        }
      ],
      "name": "getDonatives",
      "outputs": [
        {
          "components": [
            {
              "internalType": "address",
              "name": "donner",
              "type": "address"
            },
            {
              "internalType": "uint256",
              "name": "quantity",
              "type": "uint256"
            },
            {
              "internalType": "uint256",
              "name": "endDate",
              "type": "uint256"
            }
          ],
          "internalType": "struct Crowdfunding.Donative[]",
          "name": "",
          "type": "tuple[]"
        }
      ],
      "stateMutability": "view",
      "type": "function"
    },
    {
      "inputs": [],
      "name": "platformOwner",
      "outputs": [
        {
          "internalType": "address",
          "name": "",
          "type": "address"
        }
      ],
      "stateMutability": "view",
      "type": "function"
    },
    {
      "inputs": [],
      "name": "reviewCampaignsJob",
      "outputs": [],
      "stateMutability": "nonpayable",
      "type": "function"
    }
  ],
  "bytecode": "0x608060405234801561001057600080fd5b506003600181905550336000806101000a81548173ffffffffffffffffffffffffffffffffffffffff021916908373ffffffffffffffffffffffffffffffffffffffff160217905550612184806100686000396000f3fe6080604052600436106100705760003560e01c806386cdf6041161004e57806386cdf604146100f9578063b0f987d114610124578063b999be1b1461013b578063ffa56a571461017857610070565b80634df8ccb1146100755780635a027880146100a05780637427ee59146100bc575b600080fd5b34801561008157600080fd5b5061008a6101a1565b6040516100979190611220565b60405180910390f35b6100ba60048036038101906100b59190611285565b6101c5565b005b3480156100c857600080fd5b506100e360048036038101906100de9190611285565b61043f565b6040516100f091906113cb565b60405180910390f35b34801561010557600080fd5b5061010e61076a565b60405161011b919061164a565b60405180910390f35b34801561013057600080fd5b50610139610a2b565b005b34801561014757600080fd5b50610162600480360381019061015d9190611285565b610bf2565b60405161016f919061174d565b60405180910390f35b34801561018457600080fd5b5061019f600480360381019061019a91906118d0565b610e51565b005b60008054906101000a900473ffffffffffffffffffffffffffffffffffffffff1681565b60003411610208576040517f08c379a00000000000000000000000000000000000000000000000000000000081526004016101ff906119b8565b60405180910390fd5b6000801b810361024d576040517f08c379a000000000000000000000000000000000000000000000000000000000815260040161024490611a24565b60405180910390fd5b6002600082815260200190815260200160002060080160019054906101000a900460ff16156102b1576040517f08c379a00000000000000000000000000000000000000000000000000000000081526004016102a890611ab6565b60405180910390fd5b6000801b60026000838152602001908152602001600020600001540361030c576040517f08c379a000000000000000000000000000000000000000000000000000000000815260040161030390611b22565b60405180910390fd5b600060405180606001604052803373ffffffffffffffffffffffffffffffffffffffff1681526020013481526020014281525090506005600083815260200190815260200160002081908060018154018082558091505060019003906000526020600020906003020160009091909190915060008201518160000160006101000a81548173ffffffffffffffffffffffffffffffffffffffff021916908373ffffffffffffffffffffffffffffffffffffffff160217905550602082015181600101556040820151816002015550506000600260008481526020019081526020016000209050348160040160008282546104069190611b71565b92505081905550806003015481600401541061043a5760018160080160016101000a81548160ff0219169083151502179055505b505050565b6060600060026000848152602001908152602001600020604051806101400160405290816000820154815260200160018201805461047c90611bd4565b80601f01602080910402602001604051908101604052809291908181526020018280546104a890611bd4565b80156104f55780601f106104ca576101008083540402835291602001916104f5565b820191906000526020600020905b8154815290600101906020018083116104d857829003601f168201915b5050505050815260200160028201805461050e90611bd4565b80601f016020809104026020016040519081016040528092919081815260200182805461053a90611bd4565b80156105875780601f1061055c57610100808354040283529160200191610587565b820191906000526020600020905b81548152906001019060200180831161056a57829003601f168201915b5050505050815260200160038201548152602001600482015481526020016005820160009054906101000a900473ffffffffffffffffffffffffffffffffffffffff1673ffffffffffffffffffffffffffffffffffffffff1673ffffffffffffffffffffffffffffffffffffffff16815260200160068201548152602001600782015481526020016008820160009054906101000a900460ff161515151581526020016008820160019054906101000a900460ff16151515158152505090506000801b81600001510361068f576040517f08c379a000000000000000000000000000000000000000000000000000000000815260040161068690611b22565b60405180910390fd5b60056000848152602001908152602001600020805480602002602001604051908101604052809291908181526020016000905b8282101561075e57838290600052602060002090600302016040518060600160405290816000820160009054906101000a900473ffffffffffffffffffffffffffffffffffffffff1673ffffffffffffffffffffffffffffffffffffffff1673ffffffffffffffffffffffffffffffffffffffff16815260200160018201548152602001600282015481525050815260200190600101906106c2565b50505050915050919050565b6060600060038054905067ffffffffffffffff81111561078d5761078c611779565b5b6040519080825280602002602001820160405280156107c657816020015b6107b361116f565b8152602001906001900390816107ab5790505b50905060005b600380549050811015610a235760026000600383815481106107f1576107f0611c05565b5b90600052602060002001548152602001908152602001600020604051806101400160405290816000820154815260200160018201805461083090611bd4565b80601f016020809104026020016040519081016040528092919081815260200182805461085c90611bd4565b80156108a95780601f1061087e576101008083540402835291602001916108a9565b820191906000526020600020905b81548152906001019060200180831161088c57829003601f168201915b505050505081526020016002820180546108c290611bd4565b80601f01602080910402602001604051908101604052809291908181526020018280546108ee90611bd4565b801561093b5780601f106109105761010080835404028352916020019161093b565b820191906000526020600020905b81548152906001019060200180831161091e57829003601f168201915b5050505050815260200160038201548152602001600482015481526020016005820160009054906101000a900473ffffffffffffffffffffffffffffffffffffffff1673ffffffffffffffffffffffffffffffffffffffff1673ffffffffffffffffffffffffffffffffffffffff16815260200160068201548152602001600782015481526020016008820160009054906101000a900460ff161515151581526020016008820160019054906101000a900460ff161515151581525050828281518110610a0b57610a0a611c05565b5b602002602001018190525080806001019150506107cc565b508091505090565b60008054906101000a900473ffffffffffffffffffffffffffffffffffffffff1673ffffffffffffffffffffffffffffffffffffffff163373ffffffffffffffffffffffffffffffffffffffff1614610a8357600080fd5b600042905060005b600380549050811015610bee5760006002600060038481548110610ab257610ab1611c05565b5b906000526020600020015481526020019081526020016000209050806007015483101580610ae857508060030154816004015410155b15610be05760008160080160006101000a81548160ff02191690831515021790555060008160050160009054906101000a900473ffffffffffffffffffffffffffffffffffffffff1673ffffffffffffffffffffffffffffffffffffffff168260040154604051610b5890611c65565b60006040518083038185875af1925050503d8060008114610b95576040519150601f19603f3d011682016040523d82523d6000602084013e610b9a565b606091505b5050905080610bde576040517f08c379a0000000000000000000000000000000000000000000000000000000008152600401610bd590611cc6565b60405180910390fd5b505b508080600101915050610a8b565b5050565b610bfa61116f565b6000600260008481526020019081526020016000206040518061014001604052908160008201548152602001600182018054610c3590611bd4565b80601f0160208091040260200160405190810160405280929190818152602001828054610c6190611bd4565b8015610cae5780601f10610c8357610100808354040283529160200191610cae565b820191906000526020600020905b815481529060010190602001808311610c9157829003601f168201915b50505050508152602001600282018054610cc790611bd4565b80601f0160208091040260200160405190810160405280929190818152602001828054610cf390611bd4565b8015610d405780601f10610d1557610100808354040283529160200191610d40565b820191906000526020600020905b815481529060010190602001808311610d2357829003601f168201915b5050505050815260200160038201548152602001600482015481526020016005820160009054906101000a900473ffffffffffffffffffffffffffffffffffffffff1673ffffffffffffffffffffffffffffffffffffffff1673ffffffffffffffffffffffffffffffffffffffff16815260200160068201548152602001600782015481526020016008820160009054906101000a900460ff161515151581526020016008820160019054906101000a900460ff16151515158152505090506000801b816000015103610e48576040517f08c379a0000000000000000000000000000000000000000000000000000000008152600401610e3f90611b22565b60405180910390fd5b80915050919050565b6000835103610e95576040517f08c379a0000000000000000000000000000000000000000000000000000000008152600401610e8c90611d32565b60405180910390fd5b6000825103610ed9576040517f08c379a0000000000000000000000000000000000000000000000000000000008152600401610ed090611d9e565b60405180910390fd5b60008111610f1c576040517f08c379a0000000000000000000000000000000000000000000000000000000008152600401610f1390611e0a565b60405180910390fd5b6000610f2661113d565b90506000429050600062278d0082610f3e9190611b71565b90506000604051806101400160405280858152602001888152602001878152602001868152602001600081526020013373ffffffffffffffffffffffffffffffffffffffff1681526020018481526020018381526020016001151581526020016000151581525090508060026000868152602001908152602001600020600082015181600001556020820151816001019081610fda9190611fd6565b506040820151816002019081610ff09190611fd6565b50606082015181600301556080820151816004015560a08201518160050160006101000a81548173ffffffffffffffffffffffffffffffffffffffff021916908373ffffffffffffffffffffffffffffffffffffffff16021790555060c0820151816006015560e082015181600701556101008201518160080160006101000a81548160ff0219169083151502179055506101208201518160080160016101000a81548160ff021916908315150217905550905050600460003373ffffffffffffffffffffffffffffffffffffffff1673ffffffffffffffffffffffffffffffffffffffff168152602001908152602001600020849080600181540180825580915050600190039060005260206000200160009091909190915055600384908060018154018082558091505060019003906000526020600020016000909190919091505550505050505050565b600042334460405160200161115493929190612111565b60405160208183030381529060405280519060200120905090565b6040518061014001604052806000801916815260200160608152602001606081526020016000815260200160008152602001600073ffffffffffffffffffffffffffffffffffffffff16815260200160008152602001600081526020016000151581526020016000151581525090565b600073ffffffffffffffffffffffffffffffffffffffff82169050919050565b600061120a826111df565b9050919050565b61121a816111ff565b82525050565b60006020820190506112356000830184611211565b92915050565b6000604051905090565b600080fd5b600080fd5b6000819050919050565b6112628161124f565b811461126d57600080fd5b50565b60008135905061127f81611259565b92915050565b60006020828403121561129b5761129a611245565b5b60006112a984828501611270565b91505092915050565b600081519050919050565b600082825260208201905092915050565b6000819050602082019050919050565b6112e7816111ff565b82525050565b6000819050919050565b611300816112ed565b82525050565b60608201600082015161131c60008501826112de565b50602082015161132f60208501826112f7565b50604082015161134260408501826112f7565b50505050565b60006113548383611306565b60608301905092915050565b6000602082019050919050565b6000611378826112b2565b61138281856112bd565b935061138d836112ce565b8060005b838110156113be5781516113a58882611348565b97506113b083611360565b925050600181019050611391565b5085935050505092915050565b600060208201905081810360008301526113e5818461136d565b905092915050565b600081519050919050565b600082825260208201905092915050565b6000819050602082019050919050565b6114228161124f565b82525050565b600081519050919050565b600082825260208201905092915050565b60005b83811015611462578082015181840152602081019050611447565b60008484015250505050565b6000601f19601f8301169050919050565b600061148a82611428565b6114948185611433565b93506114a4818560208601611444565b6114ad8161146e565b840191505092915050565b60008115159050919050565b6114cd816114b8565b82525050565b6000610140830160008301516114ec6000860182611419565b5060208301518482036020860152611504828261147f565b9150506040830151848203604086015261151e828261147f565b915050606083015161153360608601826112f7565b50608083015161154660808601826112f7565b5060a083015161155960a08601826112de565b5060c083015161156c60c08601826112f7565b5060e083015161157f60e08601826112f7565b506101008301516115946101008601826114c4565b506101208301516115a96101208601826114c4565b508091505092915050565b60006115c083836114d3565b905092915050565b6000602082019050919050565b60006115e0826113ed565b6115ea81856113f8565b9350836020820285016115fc85611409565b8060005b85811015611638578484038952815161161985826115b4565b9450611624836115c8565b925060208a01995050600181019050611600565b50829750879550505050505092915050565b6000602082019050818103600083015261166481846115d5565b905092915050565b6000610140830160008301516116856000860182611419565b506020830151848203602086015261169d828261147f565b915050604083015184820360408601526116b7828261147f565b91505060608301516116cc60608601826112f7565b5060808301516116df60808601826112f7565b5060a08301516116f260a08601826112de565b5060c083015161170560c08601826112f7565b5060e083015161171860e08601826112f7565b5061010083015161172d6101008601826114c4565b506101208301516117426101208601826114c4565b508091505092915050565b60006020820190508181036000830152611767818461166c565b905092915050565b600080fd5b600080fd5b7f4e487b7100000000000000000000000000000000000000000000000000000000600052604160045260246000fd5b6117b18261146e565b810181811067ffffffffffffffff821117156117d0576117cf611779565b5b80604052505050565b60006117e361123b565b90506117ef82826117a8565b919050565b600067ffffffffffffffff82111561180f5761180e611779565b5b6118188261146e565b9050602081019050919050565b82818337600083830152505050565b6000611847611842846117f4565b6117d9565b90508281526020810184848401111561186357611862611774565b5b61186e848285611825565b509392505050565b600082601f83011261188b5761188a61176f565b5b813561189b848260208601611834565b91505092915050565b6118ad816112ed565b81146118b857600080fd5b50565b6000813590506118ca816118a4565b92915050565b6000806000606084860312156118e9576118e8611245565b5b600084013567ffffffffffffffff8111156119075761190661124a565b5b61191386828701611876565b935050602084013567ffffffffffffffff8111156119345761193361124a565b5b61194086828701611876565b9250506040611951868287016118bb565b9150509250925092565b600082825260208201905092915050565b7f496e636f727265637420646f6e61746976650000000000000000000000000000600082015250565b60006119a260128361195b565b91506119ad8261196c565b602082019050919050565b600060208201905081810360008301526119d181611995565b9050919050565b7f43616d706169676e2049442063616e6e6f74206265207a65726f000000000000600082015250565b6000611a0e601a8361195b565b9150611a19826119d8565b602082019050919050565b60006020820190508181036000830152611a3d81611a01565b9050919050565b7f43616d706169676e20616c72656164792072656163682074686520657870656360008201527f74656420616d6f756e7400000000000000000000000000000000000000000000602082015250565b6000611aa0602a8361195b565b9150611aab82611a44565b604082019050919050565b60006020820190508181036000830152611acf81611a93565b9050919050565b7f496e76616c696420494400000000000000000000000000000000000000000000600082015250565b6000611b0c600a8361195b565b9150611b1782611ad6565b602082019050919050565b60006020820190508181036000830152611b3b81611aff565b9050919050565b7f4e487b7100000000000000000000000000000000000000000000000000000000600052601160045260246000fd5b6000611b7c826112ed565b9150611b87836112ed565b9250828201905080821115611b9f57611b9e611b42565b5b92915050565b7f4e487b7100000000000000000000000000000000000000000000000000000000600052602260045260246000fd5b60006002820490506001821680611bec57607f821691505b602082108103611bff57611bfe611ba5565b5b50919050565b7f4e487b7100000000000000000000000000000000000000000000000000000000600052603260045260246000fd5b600081905092915050565b50565b6000611c4f600083611c34565b9150611c5a82611c3f565b600082019050919050565b6000611c7082611c42565b9150819050919050565b7f5472616e73666572206661696c65640000000000000000000000000000000000600082015250565b6000611cb0600f8361195b565b9150611cbb82611c7a565b602082019050919050565b60006020820190508181036000830152611cdf81611ca3565b9050919050565b7f7469746c652063616e206e6f7420626520656d70747900000000000000000000600082015250565b6000611d1c60168361195b565b9150611d2782611ce6565b602082019050919050565b60006020820190508181036000830152611d4b81611d0f565b9050919050565b7f6465736372697074696f6e2063616e206e6f7420626520656d70747900000000600082015250565b6000611d88601c8361195b565b9150611d9382611d52565b602082019050919050565b60006020820190508181036000830152611db781611d7b565b9050919050565b7f616d6f756e742063616e206e6f74206265206e65676174697665000000000000600082015250565b6000611df4601a8361195b565b9150611dff82611dbe565b602082019050919050565b60006020820190508181036000830152611e2381611de7565b9050919050565b60008190508160005260206000209050919050565b60006020601f8301049050919050565b600082821b905092915050565b600060088302611e8c7fffffffffffffffffffffffffffffffffffffffffffffffffffffffffffffffff82611e4f565b611e968683611e4f565b95508019841693508086168417925050509392505050565b6000819050919050565b6000611ed3611ece611ec9846112ed565b611eae565b6112ed565b9050919050565b6000819050919050565b611eed83611eb8565b611f01611ef982611eda565b848454611e5c565b825550505050565b600090565b611f16611f09565b611f21818484611ee4565b505050565b5b81811015611f4557611f3a600082611f0e565b600181019050611f27565b5050565b601f821115611f8a57611f5b81611e2a565b611f6484611e3f565b81016020851015611f73578190505b611f87611f7f85611e3f565b830182611f26565b50505b505050565b600082821c905092915050565b6000611fad60001984600802611f8f565b1980831691505092915050565b6000611fc68383611f9c565b9150826002028217905092915050565b611fdf82611428565b67ffffffffffffffff811115611ff857611ff7611779565b5b6120028254611bd4565b61200d828285611f49565b600060209050601f831160018114612040576000841561202e578287015190505b6120388582611fba565b8655506120a0565b601f19841661204e86611e2a565b60005b8281101561207657848901518255600182019150602085019450602081019050612051565b86831015612093578489015161208f601f891682611f9c565b8355505b6001600288020188555050505b505050505050565b6000819050919050565b6120c36120be826112ed565b6120a8565b82525050565b60008160601b9050919050565b60006120e1826120c9565b9050919050565b60006120f3826120d6565b9050919050565b61210b612106826111ff565b6120e8565b82525050565b600061211d82866120b2565b60208201915061212d82856120fa565b60148201915061213d82846120b2565b60208201915081905094935050505056fea2646970667358221220cedba04b914a012ab7bff4c6303d8e0e5c0b1bc575688291cef2ef1b3597874f64736f6c63430008180033",
  "linkReferences": {},
  "deployedLinkReferences": {}
}