{
  "_format": "hh-sol-artifact-1",
  "contractName": "SimpleNFS",
  "sourceName": "contracts/SimpleNFS.sol",
  "abi": [
    {
      "inputs": [],
      "stateMutability": "nonpayable",
      "type": "constructor"
    },
    {
      "inputs": [
        {
          "internalType": "address",
          "name": "sender",
          "type": "address"
        },
        {
          "internalType": "uint256",
          "name": "tokenId",
          "type": "uint256"
        },
        {
          "internalType": "address",
          "name": "owner",
          "type": "address"
        }
      ],
      "name": "ERC721IncorrectOwner",
      "type": "error"
    },
    {
      "inputs": [
        {
          "internalType": "address",
          "name": "operator",
          "type": "address"
        },
        {
          "internalType": "uint256",
          "name": "tokenId",
          "type": "uint256"
        }
      ],
      "name": "ERC721InsufficientApproval",
      "type": "error"
    },
    {
      "inputs": [
        {
          "internalType": "address",
          "name": "approver",
          "type": "address"
        }
      ],
      "name": "ERC721InvalidApprover",
      "type": "error"
    },
    {
      "inputs": [
        {
          "internalType": "address",
          "name": "operator",
          "type": "address"
        }
      ],
      "name": "ERC721InvalidOperator",
      "type": "error"
    },
    {
      "inputs": [
        {
          "internalType": "address",
          "name": "owner",
          "type": "address"
        }
      ],
      "name": "ERC721InvalidOwner",
      "type": "error"
    },
    {
      "inputs": [
        {
          "internalType": "address",
          "name": "receiver",
          "type": "address"
        }
      ],
      "name": "ERC721InvalidReceiver",
      "type": "error"
    },
    {
      "inputs": [
        {
          "internalType": "address",
          "name": "sender",
          "type": "address"
        }
      ],
      "name": "ERC721InvalidSender",
      "type": "error"
    },
    {
      "inputs": [
        {
          "internalType": "uint256",
          "name": "tokenId",
          "type": "uint256"
        }
      ],
      "name": "ERC721NonexistentToken",
      "type": "error"
    },
    {
      "anonymous": false,
      "inputs": [
        {
          "indexed": true,
          "internalType": "address",
          "name": "owner",
          "type": "address"
        },
        {
          "indexed": true,
          "internalType": "address",
          "name": "approved",
          "type": "address"
        },
        {
          "indexed": true,
          "internalType": "uint256",
          "name": "tokenId",
          "type": "uint256"
        }
      ],
      "name": "Approval",
      "type": "event"
    },
    {
      "anonymous": false,
      "inputs": [
        {
          "indexed": true,
          "internalType": "address",
          "name": "owner",
          "type": "address"
        },
        {
          "indexed": true,
          "internalType": "address",
          "name": "operator",
          "type": "address"
        },
        {
          "indexed": false,
          "internalType": "bool",
          "name": "approved",
          "type": "bool"
        }
      ],
      "name": "ApprovalForAll",
      "type": "event"
    },
    {
      "anonymous": false,
      "inputs": [
        {
          "indexed": false,
          "internalType": "uint256",
          "name": "_fromTokenId",
          "type": "uint256"
        },
        {
          "indexed": false,
          "internalType": "uint256",
          "name": "_toTokenId",
          "type": "uint256"
        }
      ],
      "name": "BatchMetadataUpdate",
      "type": "event"
    },
    {
      "anonymous": false,
      "inputs": [
        {
          "indexed": false,
          "internalType": "uint256",
          "name": "_tokenId",
          "type": "uint256"
        }
      ],
      "name": "MetadataUpdate",
      "type": "event"
    },
    {
      "anonymous": false,
      "inputs": [
        {
          "indexed": true,
          "internalType": "address",
          "name": "from",
          "type": "address"
        },
        {
          "indexed": true,
          "internalType": "address",
          "name": "to",
          "type": "address"
        },
        {
          "indexed": true,
          "internalType": "uint256",
          "name": "tokenId",
          "type": "uint256"
        }
      ],
      "name": "Transfer",
      "type": "event"
    },
    {
      "inputs": [
        {
          "internalType": "address",
          "name": "to",
          "type": "address"
        },
        {
          "internalType": "uint256",
          "name": "tokenId",
          "type": "uint256"
        }
      ],
      "name": "approve",
      "outputs": [],
      "stateMutability": "nonpayable",
      "type": "function"
    },
    {
      "inputs": [
        {
          "internalType": "address",
          "name": "owner",
          "type": "address"
        }
      ],
      "name": "balanceOf",
      "outputs": [
        {
          "internalType": "uint256",
          "name": "",
          "type": "uint256"
        }
      ],
      "stateMutability": "view",
      "type": "function"
    },
    {
      "inputs": [],
      "name": "dAppName",
      "outputs": [
        {
          "internalType": "string",
          "name": "",
          "type": "string"
        }
      ],
      "stateMutability": "view",
      "type": "function"
    },
    {
      "inputs": [
        {
          "internalType": "uint256",
          "name": "tokenId",
          "type": "uint256"
        }
      ],
      "name": "getApproved",
      "outputs": [
        {
          "internalType": "address",
          "name": "",
          "type": "address"
        }
      ],
      "stateMutability": "view",
      "type": "function"
    },
    {
      "inputs": [
        {
          "internalType": "address",
          "name": "owner",
          "type": "address"
        },
        {
          "internalType": "address",
          "name": "operator",
          "type": "address"
        }
      ],
      "name": "isApprovedForAll",
      "outputs": [
        {
          "internalType": "bool",
          "name": "",
          "type": "bool"
        }
      ],
      "stateMutability": "view",
      "type": "function"
    },
    {
      "inputs": [
        {
          "internalType": "string",
          "name": "_tokenURI",
          "type": "string"
        }
      ],
      "name": "mint",
      "outputs": [
        {
          "internalType": "uint256",
          "name": "",
          "type": "uint256"
        }
      ],
      "stateMutability": "nonpayable",
      "type": "function"
    },
    {
      "inputs": [],
      "name": "name",
      "outputs": [
        {
          "internalType": "string",
          "name": "",
          "type": "string"
        }
      ],
      "stateMutability": "view",
      "type": "function"
    },
    {
      "inputs": [
        {
          "internalType": "uint256",
          "name": "tokenId",
          "type": "uint256"
        }
      ],
      "name": "ownerOf",
      "outputs": [
        {
          "internalType": "address",
          "name": "",
          "type": "address"
        }
      ],
      "stateMutability": "view",
      "type": "function"
    },
    {
      "inputs": [
        {
          "internalType": "address",
          "name": "from",
          "type": "address"
        },
        {
          "internalType": "address",
          "name": "to",
          "type": "address"
        },
        {
          "internalType": "uint256",
          "name": "tokenId",
          "type": "uint256"
        }
      ],
      "name": "safeTransferFrom",
      "outputs": [],
      "stateMutability": "nonpayable",
      "type": "function"
    },
    {
      "inputs": [
        {
          "internalType": "address",
          "name": "from",
          "type": "address"
        },
        {
          "internalType": "address",
          "name": "to",
          "type": "address"
        },
        {
          "internalType": "uint256",
          "name": "tokenId",
          "type": "uint256"
        },
        {
          "internalType": "bytes",
          "name": "data",
          "type": "bytes"
        }
      ],
      "name": "safeTransferFrom",
      "outputs": [],
      "stateMutability": "nonpayable",
      "type": "function"
    },
    {
      "inputs": [
        {
          "internalType": "address",
          "name": "operator",
          "type": "address"
        },
        {
          "internalType": "bool",
          "name": "approved",
          "type": "bool"
        }
      ],
      "name": "setApprovalForAll",
      "outputs": [],
      "stateMutability": "nonpayable",
      "type": "function"
    },
    {
      "inputs": [
        {
          "internalType": "bytes4",
          "name": "interfaceId",
          "type": "bytes4"
        }
      ],
      "name": "supportsInterface",
      "outputs": [
        {
          "internalType": "bool",
          "name": "",
          "type": "bool"
        }
      ],
      "stateMutability": "view",
      "type": "function"
    },
    {
      "inputs": [],
      "name": "symbol",
      "outputs": [
        {
          "internalType": "string",
          "name": "",
          "type": "string"
        }
      ],
      "stateMutability": "view",
      "type": "function"
    },
    {
      "inputs": [],
      "name": "tokenCount",
      "outputs": [
        {
          "internalType": "uint256",
          "name": "",
          "type": "uint256"
        }
      ],
      "stateMutability": "view",
      "type": "function"
    },
    {
      "inputs": [
        {
          "internalType": "uint256",
          "name": "tokenId",
          "type": "uint256"
        }
      ],
      "name": "tokenURI",
      "outputs": [
        {
          "internalType": "string",
          "name": "",
          "type": "string"
        }
      ],
      "stateMutability": "view",
      "type": "function"
    },
    {
      "inputs": [
        {
          "internalType": "address",
          "name": "from",
          "type": "address"
        },
        {
          "internalType": "address",
          "name": "to",
          "type": "address"
        },
        {
          "internalType": "uint256",
          "name": "tokenId",
          "type": "uint256"
        }
      ],
      "name": "transferFrom",
      "outputs": [],
      "stateMutability": "nonpayable",
      "type": "function"
    }
  ],
  "bytecode": "0x60806040526040518060400160405280600981526020017f53696d706c654e46530000000000000000000000000000000000000000000000815250600890816200004a91906200036b565b503480156200005857600080fd5b506040518060400160405280600881526020017f44417070204e46540000000000000000000000000000000000000000000000008152506040518060400160405280600481526020017f44415050000000000000000000000000000000000000000000000000000000008152508160009081620000d691906200036b565b508060019081620000e891906200036b565b50505062000452565b600081519050919050565b7f4e487b7100000000000000000000000000000000000000000000000000000000600052604160045260246000fd5b7f4e487b7100000000000000000000000000000000000000000000000000000000600052602260045260246000fd5b600060028204905060018216806200017357607f821691505b6020821081036200018957620001886200012b565b5b50919050565b60008190508160005260206000209050919050565b60006020601f8301049050919050565b600082821b905092915050565b600060088302620001f37fffffffffffffffffffffffffffffffffffffffffffffffffffffffffffffffff82620001b4565b620001ff8683620001b4565b95508019841693508086168417925050509392505050565b6000819050919050565b6000819050919050565b60006200024c62000246620002408462000217565b62000221565b62000217565b9050919050565b6000819050919050565b62000268836200022b565b62000280620002778262000253565b848454620001c1565b825550505050565b600090565b6200029762000288565b620002a48184846200025d565b505050565b5b81811015620002cc57620002c06000826200028d565b600181019050620002aa565b5050565b601f8211156200031b57620002e5816200018f565b620002f084620001a4565b8101602085101562000300578190505b620003186200030f85620001a4565b830182620002a9565b50505b505050565b600082821c905092915050565b6000620003406000198460080262000320565b1980831691505092915050565b60006200035b83836200032d565b9150826002028217905092915050565b6200037682620000f1565b67ffffffffffffffff811115620003925762000391620000fc565b5b6200039e82546200015a565b620003ab828285620002d0565b600060209050601f831160018114620003e35760008415620003ce578287015190505b620003da85826200034d565b8655506200044a565b601f198416620003f3866200018f565b60005b828110156200041d57848901518255600182019150602085019450602081019050620003f6565b868310156200043d578489015162000439601f8916826200032d565b8355505b6001600288020188555050505b505050505050565b6124cb80620004626000396000f3fe608060405234801561001057600080fd5b50600436106101005760003560e01c8063850d712011610097578063b88d4fde11610066578063b88d4fde146102ad578063c87b56dd146102c9578063d85d3d27146102f9578063e985e9c51461032957610100565b8063850d71201461023757806395d89b41146102555780639f181b5e14610273578063a22cb4651461029157610100565b806323b872dd116100d357806323b872dd1461019f57806342842e0e146101bb5780636352211e146101d757806370a082311461020757610100565b806301ffc9a71461010557806306fdde0314610135578063081812fc14610153578063095ea7b314610183575b600080fd5b61011f600480360381019061011a9190611936565b610359565b60405161012c919061197e565b60405180910390f35b61013d6103ba565b60405161014a9190611a29565b60405180910390f35b61016d60048036038101906101689190611a81565b61044c565b60405161017a9190611aef565b60405180910390f35b61019d60048036038101906101989190611b36565b610468565b005b6101b960048036038101906101b49190611b76565b61047e565b005b6101d560048036038101906101d09190611b76565b610580565b005b6101f160048036038101906101ec9190611a81565b6105a0565b6040516101fe9190611aef565b60405180910390f35b610221600480360381019061021c9190611bc9565b6105b2565b60405161022e9190611c05565b60405180910390f35b61023f61066c565b60405161024c9190611a29565b60405180910390f35b61025d6106fa565b60405161026a9190611a29565b60405180910390f35b61027b61078c565b6040516102889190611c05565b60405180910390f35b6102ab60048036038101906102a69190611c4c565b610792565b005b6102c760048036038101906102c29190611dc1565b6107a8565b005b6102e360048036038101906102de9190611a81565b6107c5565b6040516102f09190611a29565b60405180910390f35b610313600480360381019061030e9190611ee5565b6108d8565b6040516103209190611c05565b60405180910390f35b610343600480360381019061033e9190611f2e565b610914565b604051610350919061197e565b60405180910390f35b6000634906490660e01b7bffffffffffffffffffffffffffffffffffffffffffffffffffffffff1916827bffffffffffffffffffffffffffffffffffffffffffffffffffffffff191614806103b357506103b2826109a8565b5b9050919050565b6060600080546103c990611f9d565b80601f01602080910402602001604051908101604052809291908181526020018280546103f590611f9d565b80156104425780601f1061041757610100808354040283529160200191610442565b820191906000526020600020905b81548152906001019060200180831161042557829003601f168201915b5050505050905090565b600061045782610a8a565b5061046182610b12565b9050919050565b61047a8282610475610b4f565b610b57565b5050565b600073ffffffffffffffffffffffffffffffffffffffff168273ffffffffffffffffffffffffffffffffffffffff16036104f05760006040517f64a0ae920000000000000000000000000000000000000000000000000000000081526004016104e79190611aef565b60405180910390fd5b600061050483836104ff610b4f565b610b69565b90508373ffffffffffffffffffffffffffffffffffffffff168173ffffffffffffffffffffffffffffffffffffffff161461057a578382826040517f64283d7b00000000000000000000000000000000000000000000000000000000815260040161057193929190611fce565b60405180910390fd5b50505050565b61059b838383604051806020016040528060008152506107a8565b505050565b60006105ab82610a8a565b9050919050565b60008073ffffffffffffffffffffffffffffffffffffffff168273ffffffffffffffffffffffffffffffffffffffff16036106255760006040517f89c62b6400000000000000000000000000000000000000000000000000000000815260040161061c9190611aef565b60405180910390fd5b600360008373ffffffffffffffffffffffffffffffffffffffff1673ffffffffffffffffffffffffffffffffffffffff168152602001908152602001600020549050919050565b6008805461067990611f9d565b80601f01602080910402602001604051908101604052809291908181526020018280546106a590611f9d565b80156106f25780601f106106c7576101008083540402835291602001916106f2565b820191906000526020600020905b8154815290600101906020018083116106d557829003601f168201915b505050505081565b60606001805461070990611f9d565b80601f016020809104026020016040519081016040528092919081815260200182805461073590611f9d565b80156107825780601f1061075757610100808354040283529160200191610782565b820191906000526020600020905b81548152906001019060200180831161076557829003601f168201915b5050505050905090565b60075481565b6107a461079d610b4f565b8383610d83565b5050565b6107b384848461047e565b6107bf84848484610ef2565b50505050565b60606107d082610a8a565b5060006006600084815260200190815260200160002080546107f190611f9d565b80601f016020809104026020016040519081016040528092919081815260200182805461081d90611f9d565b801561086a5780601f1061083f5761010080835404028352916020019161086a565b820191906000526020600020905b81548152906001019060200180831161084d57829003601f168201915b50505050509050600061087b6110a9565b905060008151036108905781925050506108d3565b6000825111156108c55780826040516020016108ad929190612041565b604051602081830303815290604052925050506108d3565b6108ce846110c0565b925050505b919050565b6000600760008154809291906108ed90612094565b91905055506108fe33600754611129565b61090a60075483611147565b6007549050919050565b6000600560008473ffffffffffffffffffffffffffffffffffffffff1673ffffffffffffffffffffffffffffffffffffffff16815260200190815260200160002060008373ffffffffffffffffffffffffffffffffffffffff1673ffffffffffffffffffffffffffffffffffffffff16815260200190815260200160002060009054906101000a900460ff16905092915050565b60007f80ac58cd000000000000000000000000000000000000000000000000000000007bffffffffffffffffffffffffffffffffffffffffffffffffffffffff1916827bffffffffffffffffffffffffffffffffffffffffffffffffffffffff19161480610a7357507f5b5e139f000000000000000000000000000000000000000000000000000000007bffffffffffffffffffffffffffffffffffffffffffffffffffffffff1916827bffffffffffffffffffffffffffffffffffffffffffffffffffffffff1916145b80610a835750610a82826111a3565b5b9050919050565b600080610a968361120d565b9050600073ffffffffffffffffffffffffffffffffffffffff168173ffffffffffffffffffffffffffffffffffffffff1603610b0957826040517f7e273289000000000000000000000000000000000000000000000000000000008152600401610b009190611c05565b60405180910390fd5b80915050919050565b60006004600083815260200190815260200160002060009054906101000a900473ffffffffffffffffffffffffffffffffffffffff169050919050565b600033905090565b610b64838383600161124a565b505050565b600080610b758461120d565b9050600073ffffffffffffffffffffffffffffffffffffffff168373ffffffffffffffffffffffffffffffffffffffff1614610bb757610bb681848661140f565b5b600073ffffffffffffffffffffffffffffffffffffffff168173ffffffffffffffffffffffffffffffffffffffff1614610c4857610bf960008560008061124a565b6001600360008373ffffffffffffffffffffffffffffffffffffffff1673ffffffffffffffffffffffffffffffffffffffff168152602001908152602001600020600082825403925050819055505b600073ffffffffffffffffffffffffffffffffffffffff168573ffffffffffffffffffffffffffffffffffffffff1614610ccb576001600360008773ffffffffffffffffffffffffffffffffffffffff1673ffffffffffffffffffffffffffffffffffffffff168152602001908152602001600020600082825401925050819055505b846002600086815260200190815260200160002060006101000a81548173ffffffffffffffffffffffffffffffffffffffff021916908373ffffffffffffffffffffffffffffffffffffffff160217905550838573ffffffffffffffffffffffffffffffffffffffff168273ffffffffffffffffffffffffffffffffffffffff167fddf252ad1be2c89b69c2b068fc378daa952ba7f163c4a11628f55a4df523b3ef60405160405180910390a4809150509392505050565b600073ffffffffffffffffffffffffffffffffffffffff168273ffffffffffffffffffffffffffffffffffffffff1603610df457816040517f5b08ba18000000000000000000000000000000000000000000000000000000008152600401610deb9190611aef565b60405180910390fd5b80600560008573ffffffffffffffffffffffffffffffffffffffff1673ffffffffffffffffffffffffffffffffffffffff16815260200190815260200160002060008473ffffffffffffffffffffffffffffffffffffffff1673ffffffffffffffffffffffffffffffffffffffff16815260200190815260200160002060006101000a81548160ff0219169083151502179055508173ffffffffffffffffffffffffffffffffffffffff168373ffffffffffffffffffffffffffffffffffffffff167f17307eab39ab6107e8899845ad3d59bd9653f200f220920489ca2b5937696c3183604051610ee5919061197e565b60405180910390a3505050565b60008373ffffffffffffffffffffffffffffffffffffffff163b11156110a3578273ffffffffffffffffffffffffffffffffffffffff1663150b7a02610f36610b4f565b8685856040518563ffffffff1660e01b8152600401610f589493929190612131565b6020604051808303816000875af1925050508015610f9457506040513d601f19601f82011682018060405250810190610f919190612192565b60015b611018573d8060008114610fc4576040519150601f19603f3d011682016040523d82523d6000602084013e610fc9565b606091505b50600081510361101057836040517f64a0ae920000000000000000000000000000000000000000000000000000000081526004016110079190611aef565b60405180910390fd5b805181602001fd5b63150b7a0260e01b7bffffffffffffffffffffffffffffffffffffffffffffffffffffffff1916817bffffffffffffffffffffffffffffffffffffffffffffffffffffffff1916146110a157836040517f64a0ae920000000000000000000000000000000000000000000000000000000081526004016110989190611aef565b60405180910390fd5b505b50505050565b606060405180602001604052806000815250905090565b60606110cb82610a8a565b5060006110d66110a9565b905060008151116110f65760405180602001604052806000815250611121565b80611100846114d3565b604051602001611111929190612041565b6040516020818303038152906040525b915050919050565b6111438282604051806020016040528060008152506115a1565b5050565b80600660008481526020019081526020016000209081611167919061236b565b507ff8e1a15aba9398e019f0b49df1a4fde98ee17ae345cb5f6b5e2c27f5033e8ce7826040516111979190611c05565b60405180910390a15050565b60007f01ffc9a7000000000000000000000000000000000000000000000000000000007bffffffffffffffffffffffffffffffffffffffffffffffffffffffff1916827bffffffffffffffffffffffffffffffffffffffffffffffffffffffff1916149050919050565b60006002600083815260200190815260200160002060009054906101000a900473ffffffffffffffffffffffffffffffffffffffff169050919050565b80806112835750600073ffffffffffffffffffffffffffffffffffffffff168273ffffffffffffffffffffffffffffffffffffffff1614155b156113b757600061129384610a8a565b9050600073ffffffffffffffffffffffffffffffffffffffff168373ffffffffffffffffffffffffffffffffffffffff16141580156112fe57508273ffffffffffffffffffffffffffffffffffffffff168173ffffffffffffffffffffffffffffffffffffffff1614155b8015611311575061130f8184610914565b155b1561135357826040517fa9fbf51f00000000000000000000000000000000000000000000000000000000815260040161134a9190611aef565b60405180910390fd5b81156113b557838573ffffffffffffffffffffffffffffffffffffffff168273ffffffffffffffffffffffffffffffffffffffff167f8c5be1e5ebec7d5bd14f71427d1e84f3dd0314c0f7b2291e5b200ac8c7c3b92560405160405180910390a45b505b836004600085815260200190815260200160002060006101000a81548173ffffffffffffffffffffffffffffffffffffffff021916908373ffffffffffffffffffffffffffffffffffffffff16021790555050505050565b61141a8383836115bd565b6114ce57600073ffffffffffffffffffffffffffffffffffffffff168373ffffffffffffffffffffffffffffffffffffffff160361148f57806040517f7e2732890000000000000000000000000000000000000000000000000000000081526004016114869190611c05565b60405180910390fd5b81816040517f177e802f0000000000000000000000000000000000000000000000000000000081526004016114c592919061243d565b60405180910390fd5b505050565b6060600060016114e28461167e565b01905060008167ffffffffffffffff81111561150157611500611c96565b5b6040519080825280601f01601f1916602001820160405280156115335781602001600182028036833780820191505090505b509050600082602001820190505b600115611596578080600190039150507f3031323334353637383961626364656600000000000000000000000000000000600a86061a8153600a858161158a57611589612466565b5b04945060008503611541575b819350505050919050565b6115ab83836117d1565b6115b86000848484610ef2565b505050565b60008073ffffffffffffffffffffffffffffffffffffffff168373ffffffffffffffffffffffffffffffffffffffff161415801561167557508273ffffffffffffffffffffffffffffffffffffffff168473ffffffffffffffffffffffffffffffffffffffff16148061163657506116358484610914565b5b8061167457508273ffffffffffffffffffffffffffffffffffffffff1661165c83610b12565b73ffffffffffffffffffffffffffffffffffffffff16145b5b90509392505050565b600080600090507a184f03e93ff9f4daa797ed6e38ed64bf6a1f01000000000000000083106116dc577a184f03e93ff9f4daa797ed6e38ed64bf6a1f01000000000000000083816116d2576116d1612466565b5b0492506040810190505b6d04ee2d6d415b85acef81000000008310611719576d04ee2d6d415b85acef8100000000838161170f5761170e612466565b5b0492506020810190505b662386f26fc10000831061174857662386f26fc10000838161173e5761173d612466565b5b0492506010810190505b6305f5e1008310611771576305f5e100838161176757611766612466565b5b0492506008810190505b612710831061179657612710838161178c5761178b612466565b5b0492506004810190505b606483106117b957606483816117af576117ae612466565b5b0492506002810190505b600a83106117c8576001810190505b80915050919050565b600073ffffffffffffffffffffffffffffffffffffffff168273ffffffffffffffffffffffffffffffffffffffff16036118435760006040517f64a0ae9200000000000000000000000000000000000000000000000000000000815260040161183a9190611aef565b60405180910390fd5b600061185183836000610b69565b9050600073ffffffffffffffffffffffffffffffffffffffff168173ffffffffffffffffffffffffffffffffffffffff16146118c55760006040517f73c6ac6e0000000000000000000000000000000000000000000000000000000081526004016118bc9190611aef565b60405180910390fd5b505050565b6000604051905090565b600080fd5b600080fd5b60007fffffffff0000000000000000000000000000000000000000000000000000000082169050919050565b611913816118de565b811461191e57600080fd5b50565b6000813590506119308161190a565b92915050565b60006020828403121561194c5761194b6118d4565b5b600061195a84828501611921565b91505092915050565b60008115159050919050565b61197881611963565b82525050565b6000602082019050611993600083018461196f565b92915050565b600081519050919050565b600082825260208201905092915050565b60005b838110156119d35780820151818401526020810190506119b8565b60008484015250505050565b6000601f19601f8301169050919050565b60006119fb82611999565b611a0581856119a4565b9350611a158185602086016119b5565b611a1e816119df565b840191505092915050565b60006020820190508181036000830152611a4381846119f0565b905092915050565b6000819050919050565b611a5e81611a4b565b8114611a6957600080fd5b50565b600081359050611a7b81611a55565b92915050565b600060208284031215611a9757611a966118d4565b5b6000611aa584828501611a6c565b91505092915050565b600073ffffffffffffffffffffffffffffffffffffffff82169050919050565b6000611ad982611aae565b9050919050565b611ae981611ace565b82525050565b6000602082019050611b046000830184611ae0565b92915050565b611b1381611ace565b8114611b1e57600080fd5b50565b600081359050611b3081611b0a565b92915050565b60008060408385031215611b4d57611b4c6118d4565b5b6000611b5b85828601611b21565b9250506020611b6c85828601611a6c565b9150509250929050565b600080600060608486031215611b8f57611b8e6118d4565b5b6000611b9d86828701611b21565b9350506020611bae86828701611b21565b9250506040611bbf86828701611a6c565b9150509250925092565b600060208284031215611bdf57611bde6118d4565b5b6000611bed84828501611b21565b91505092915050565b611bff81611a4b565b82525050565b6000602082019050611c1a6000830184611bf6565b92915050565b611c2981611963565b8114611c3457600080fd5b50565b600081359050611c4681611c20565b92915050565b60008060408385031215611c6357611c626118d4565b5b6000611c7185828601611b21565b9250506020611c8285828601611c37565b9150509250929050565b600080fd5b600080fd5b7f4e487b7100000000000000000000000000000000000000000000000000000000600052604160045260246000fd5b611cce826119df565b810181811067ffffffffffffffff82111715611ced57611cec611c96565b5b80604052505050565b6000611d006118ca565b9050611d0c8282611cc5565b919050565b600067ffffffffffffffff821115611d2c57611d2b611c96565b5b611d35826119df565b9050602081019050919050565b82818337600083830152505050565b6000611d64611d5f84611d11565b611cf6565b905082815260208101848484011115611d8057611d7f611c91565b5b611d8b848285611d42565b509392505050565b600082601f830112611da857611da7611c8c565b5b8135611db8848260208601611d51565b91505092915050565b60008060008060808587031215611ddb57611dda6118d4565b5b6000611de987828801611b21565b9450506020611dfa87828801611b21565b9350506040611e0b87828801611a6c565b925050606085013567ffffffffffffffff811115611e2c57611e2b6118d9565b5b611e3887828801611d93565b91505092959194509250565b600067ffffffffffffffff821115611e5f57611e5e611c96565b5b611e68826119df565b9050602081019050919050565b6000611e88611e8384611e44565b611cf6565b905082815260208101848484011115611ea457611ea3611c91565b5b611eaf848285611d42565b509392505050565b600082601f830112611ecc57611ecb611c8c565b5b8135611edc848260208601611e75565b91505092915050565b600060208284031215611efb57611efa6118d4565b5b600082013567ffffffffffffffff811115611f1957611f186118d9565b5b611f2584828501611eb7565b91505092915050565b60008060408385031215611f4557611f446118d4565b5b6000611f5385828601611b21565b9250506020611f6485828601611b21565b9150509250929050565b7f4e487b7100000000000000000000000000000000000000000000000000000000600052602260045260246000fd5b60006002820490506001821680611fb557607f821691505b602082108103611fc857611fc7611f6e565b5b50919050565b6000606082019050611fe36000830186611ae0565b611ff06020830185611bf6565b611ffd6040830184611ae0565b949350505050565b600081905092915050565b600061201b82611999565b6120258185612005565b93506120358185602086016119b5565b80840191505092915050565b600061204d8285612010565b91506120598284612010565b91508190509392505050565b7f4e487b7100000000000000000000000000000000000000000000000000000000600052601160045260246000fd5b600061209f82611a4b565b91507fffffffffffffffffffffffffffffffffffffffffffffffffffffffffffffffff82036120d1576120d0612065565b5b600182019050919050565b600081519050919050565b600082825260208201905092915050565b6000612103826120dc565b61210d81856120e7565b935061211d8185602086016119b5565b612126816119df565b840191505092915050565b60006080820190506121466000830187611ae0565b6121536020830186611ae0565b6121606040830185611bf6565b818103606083015261217281846120f8565b905095945050505050565b60008151905061218c8161190a565b92915050565b6000602082840312156121a8576121a76118d4565b5b60006121b68482850161217d565b91505092915050565b60008190508160005260206000209050919050565b60006020601f8301049050919050565b600082821b905092915050565b6000600883026122217fffffffffffffffffffffffffffffffffffffffffffffffffffffffffffffffff826121e4565b61222b86836121e4565b95508019841693508086168417925050509392505050565b6000819050919050565b600061226861226361225e84611a4b565b612243565b611a4b565b9050919050565b6000819050919050565b6122828361224d565b61229661228e8261226f565b8484546121f1565b825550505050565b600090565b6122ab61229e565b6122b6818484612279565b505050565b5b818110156122da576122cf6000826122a3565b6001810190506122bc565b5050565b601f82111561231f576122f0816121bf565b6122f9846121d4565b81016020851015612308578190505b61231c612314856121d4565b8301826122bb565b50505b505050565b600082821c905092915050565b600061234260001984600802612324565b1980831691505092915050565b600061235b8383612331565b9150826002028217905092915050565b61237482611999565b67ffffffffffffffff81111561238d5761238c611c96565b5b6123978254611f9d565b6123a28282856122de565b600060209050601f8311600181146123d557600084156123c3578287015190505b6123cd858261234f565b865550612435565b601f1984166123e3866121bf565b60005b8281101561240b578489015182556001820191506020850194506020810190506123e6565b868310156124285784890151612424601f891682612331565b8355505b6001600288020188555050505b505050505050565b60006040820190506124526000830185611ae0565b61245f6020830184611bf6565b9392505050565b7f4e487b7100000000000000000000000000000000000000000000000000000000600052601260045260246000fdfea264697066735822122029ff46e4e4f1a60ef66197b63e9797e677f324f55a29b91d7f52865c5a2cfeab64736f6c63430008140033",
  "linkReferences": {},
  "deployedLinkReferences": {}
}